:020000040000FA
:0600000078EF03F012008E
:020006000000F8
:08000800806A816A826A836A42
:10001000846A896A8A6A8B6A8C6A8D6A926A030E1C
:10002000936E946A956A966A0F0EC16E070EB46E4F
:10003000800EE66E080EE66E26EC03F0E552E55201
:10004000090EC86E80D8660EE66E070EE66E010ECB
:10005000E66E0ED9E552E552E552640EE66E41ECCD
:1000600003F0E552F0D71200D9CFE6FFE1CFD9FF78
:10007000E652ACEC03F0C580C5B0FED7ACEC03F0A3
:100080004E0EE66EEDEC02F0E552FE0EDB50F00B8C
:10009000DF6E0C0EDF10DF6EACEC03F0DFCFE6FF9F
:1000A000EDEC02F0E552010EE66EA1EC03F0E55234
:1000B000F80EDF14DF6E010EE66EA1EC03F0E552E0
:1000C000ACEC03F0DFCFE6FFEDEC02F0E552050EFD
:1000D000E66EA1EC03F0E552FE0EDB38F00BF00B00
:1000E000DF6E0C0EDF10DF6EACEC03F0DFCFE6FF4F
:1000F000EDEC02F0E552010EE66EA1EC03F0E552E4
:10010000F80EDF14DF6E010EE66EA1EC03F0E5528F
:10011000ACEC03F0DFCFE6FFEDEC02F0E552050EAC
:10012000E66EA1EC03F0E552ACEC03F0C584C5B477
:10013000FED7050EE66E58EC03F0E552E552E552A7
:10014000E7CFD9FF1200140EE66E58EC03F0E5522B
:10015000140EE66E58EC03F0E552300EE66E84DFC6
:10016000E552050EE66E58EC03F0E552300EE66EF1
:100170007BDFE552020EE66E86EC03F0E552300EB0
:10018000E66E72DFE552020EE66E6EDFE552280E75
:10019000E66E6ADFE552060EE66E66DFE5520C0E8D
:1001A000E66E62DFE552010EE66E5EDFE55212009A
:1001B000D9CFE6FFE1CFD9FFE652ACEC03F0C58022
:1001C000C5B0FED7ACEC03F04E0EE66EEDEC02F0DF
:1001D000E552FE0EDB50F00BDF6E0D0EDF10DF6E12
:1001E000ACEC03F0DFCFE6FFEDEC02F0E5520A0ED7
:1001F000E66EA1EC03F0E552F90EDF14DF6E010E9E
:10020000E66EA1EC03F0E552ACEC03F0DFCFE6FFC5
:10021000EDEC02F0E552FE0EDB38F00BF00BDF6E7A
:100220000D0EDF10DF6EACEC03F0DFCFE6FFEDEC80
:1002300002F0E5520A0EE66EA1EC03F0E552F90E6B
:10024000DF14DF6EACEC03F0DFCFE6FFEDEC02F085
:10025000E552ACEC03F0C584C5B4FED7050EE66EDE
:1002600058EC03F0E552E552E552E7CFD9FF120012
:10027000D9CFE6FFE1CFD9FFFE0EDB0404E1800E0B
:10028000E66EF2DEE552FE0EDB50020804E1C00E1F
:10029000E66EEADEE552FC0EDBCFF6FFFD0EDBCFAD
:1002A000F7FF0800F55011E0FC0EDBCFF6FFFD0E66
:1002B000DBCFF7FF0800F550E66E7ADFE552FC0E63
:1002C000DB2AFD0E01E3DB2AE6D7E552E7CFD9FFB3
:1002D0001200ACEC03F0C580C5B0FED7ACEC03F067
:1002E000D00EE66EEDEC02F0E552ACEC03F0E66AFF
:1002F000EDEC02F0E552ACEC03F0E66AEDEC02F056
:10030000E552ACEC03F0190EE66EEDEC02F0E552AE
:10031000ACEC03F0160EE66EEDEC02F0E552ACEC40
:1003200003F0060EE66EEDEC02F0E552ACEC03F0E5
:10033000230EE66EEDEC02F0E552ACEC03F0100E8D
:10034000E66EEDEC02F0E552ACEC03F0140EE66E56
:10035000EDEC02F0E552ACEC03F0C584C5B4FED779
:100360001200ACEC03F0C580C5B0FED7ACEC03F0D6
:10037000D00EE66EEDEC02F0E552ACEC03F0E66A6E
:10038000EDEC02F0E552ACEC03F0C582C5B2FED74D
:10039000ACEC03F0D10EE66EEDEC02F0E552ACEC05
:1003A00003F094EC03F000016A6FACEC03F0C59A23
:1003B000C588C5B8FED7ACEC03F094EC03F000019F
:1003C0006B6FACEC03F0C59AC588C5B8FED7ACEC32
:1003D00003F094EC03F000016C6FACEC03F0C59AF1
:1003E000C588C5B8FED7ACEC03F094EC03F000016F
:1003F0006D6FACEC03F0C59AC588C5B8FED7ACEC00
:1004000003F094EC03F000016E6FACEC03F0C59ABE
:10041000C588C5B8FED7ACEC03F094EC03F000013E
:100420006F6FACEC03F0C59AC588C5B8FED7ACECCD
:1004300003F094EC03F00001706FACEC03F0C58A9C
:10044000C588C5B8FED7ACEC03F0C584C5B4FED7EB
:100450001200800EE66E08DEE55200016C390F0BCB
:10046000300FE66EA5DEE5520F0E00016C15300F61
:10047000E66E9EDEE5523A0EE66E9ADEE552000129
:100480006B390F0B300FE66E93DEE5520F0E000155
:100490006B15300FE66E8CDEE5523A0EE66E88DEA6
:1004A000E55200016A390F0B300FE66E81DEE5522E
:1004B0000F0E00016A15300FE66E7ADEE552C00EAF
:1004C000E66ED2DDE55200016E390F0B300FE66E9D
:1004D0006FDEE5520F0E00016E15300FE66E68DE1E
:1004E000E5522F0EE66E64DEE55200016F390F0B08
:1004F000300FE66E5DDEE5520F0E00016F15300F16
:10050000E66E56DEE5522F0EE66E52DEE552320EF4
:10051000E66E4EDEE552300EE66E4ADEE552000132
:1005200070390F0B300FE66E43DEE5520F0E0001FF
:0C0530007015300FE66E3CDEE552120044
:04053C00060EF66E43
:10054000000EF76E000EF86E00010900F550656FA1
:100550000900F550666F03E1656701D03DD00900E1
:10056000F550606F0900F550616F0900F550626F3A
:1005700009000900F550E96E0900F550EA6E09001E
:1005800009000900F550636F0900F550646F090018
:100590000900F6CF67F0F7CF68F0F8CF69F060C0D8
:1005A000F6FF61C0F7FF62C0F8FF0001635302E18C
:1005B000645307E00900F550EE6E6307F8E2640744
:1005C000F9D767C0F6FF68C0F7FF69C0F8FF000100
:0A05D0006507000E665BBFD712003E
:0605DA00D9CFE6FFDACFE5
:1005E000E6FFE1CFD9FFE2CFDAFFFD0EDB50C96EA7
:1005F000C6AE02D0FF0E24D00F0EC61408080FE0BE
:100600000F0EC6140B080BE0C6889EA6FED7C75077
:10061000040B03E1C750010B10E0000E11D00F0EC8
:10062000C614080804E00F0EC6140B0809E1C7B091
:10063000FED7ACEC03F0C5AC02D0FE0E01D0000E2C
:0C064000E552E5CFDAFFE7CFD9FF12004A
:04064C00D9CFE6FF1D
:10065000DACFE6FFE1CFD9FFE2CFDAFF3F0EC716D0
:10066000C66AC56AFD0EDB50C612FC0EDB50C7120F
:1006700093829380C68AE552E5CFDAFFE7CFD9FFB0
:02068000120066
:0E068200FF0EE350036EEF0E01D0F30EE76E95
:10069000E72E48EF03F00C0E026EE76AE72E4EEFEE
:1006A00003F0022E4DEF03F0032E46EF03F012008D
:1006B000FF0EE350036E480E01D04C0EE76EE72E9E
:1006C000FED7E76AE72EFED7032EF7D70000120009
:1006D000000EF36E00EE00F0080E01D81200EA6082
:1006E00002D0EE6AFCD7F350E9601200EE6AFCD744
:1006F00013EE00F023EE00F0F86A019C9EEC02F08D
:0C070000B9EC03F004EC00F0FBD7120091
:04070C00FF0EE350A9
:10071000036E1B0E00D001D0200EE76EE72EFED731
:08072000032EFAD700D01200ED
:080728000F0EC614080804E0DE
:100730000F0EC6140B0801E1C586C7A0FED7C9502D
:020740001200A5
:0E074200FF0EE350E84E1200000000D000D081
:0807500000D0E82EFAD71200D8
:080758001F0EC514FDE1C7509E
:06076000040BFAE1120097
:0A07660048656C6C6F20576F726CD1
:02077000640023
:02077200120073
:020000040030CA
:010001000CF2
:010002001EDF
:010003001EDE
:0100050003F7
:010006008178
:00000001FF
