:020000040000FA
:0600000040EF01F01200C8
:0A0006000100BA02000060000000D3
:040010000E000000DE
:0C001400D9CFE6FFE1CFD9FFD950FD0F96
:10002000E96EFF0EDA20EA6E000ED880EE54000E64
:10003000ED540BE20A0EE66E4EEC01F0E552FD0EB9
:10004000DB06FE0E01E2DB06E9D7E552E7CFD9FF7A
:1000500012001E0EE66EE66ADDDFE552E552120082
:100060008150010B07E100016051611103E0010EB5
:10007000646F656B8150010B0001606F616B120052
:100080008150020B07E100016251631103E0010E90
:10009000666F676B8150020B01E0010E0001626F19
:1000A000636B12000001010E641901E1655115E155
:1000B000646B656B69516D19E8AE02D06D3504D083
:1000C0006C51685D6D51695904E2682B000E69231B
:1000D00004D06CC068F06DC069F0010E661901E1D2
:1000E000675115E1666B676B6B516919E8AE02D019
:1000F000693504D068516A5D69516B5904E268073B
:10010000000E695B04D06AC068F06BC069F0120031
:10011000080E0001681901E169513FE0070E6819F6
:1001200001E1695137E0060E681901E169512FE0DC
:10013000050E681901E1695127E0040E681901E113
:1001400069511FE0030E681901E1695117E0020EC1
:10015000681901E169510FE0010E681901E1695167
:1001600007E0685101E1695101E019D0836A17D0B5
:10017000010E836E14D0030E836E11D0070E836EB2
:100180000ED00F0E836E0BD01F0E836E08D03F0E65
:10019000836E05D07F0E836E02D0836800D012007C
:1001A000816A8A6A030E936E836A836A956A0F0E68
:1001B000C16E836E55DF64DF75DFAADF4ADFFAD7D1
:0201C00012002B
:0E01C200060EF66E000EF76E000EF86E0001CF
:1001D0000900F550736F0900F550746F03E1736700
:1001E00001D03DD00900F5506E6F0900F5506F6FDA
:1001F0000900F550706F09000900F550E96E09001B
:10020000F550EA6E090009000900F550716F090008
:10021000F550726F09000900F6CF75F0F7CF76F050
:10022000F8CF77F06EC0F6FF6FC0F7FF70C0F8FF31
:100230000001715302E1725307E00900F550EE6EC0
:100240007107F8E27207F9D775C0F6FF76C0F7FFBD
:1002500077C0F8FF00017307000E745BBFD7120070
:10026000000EF36E00EE00F0080E01D81200EA60F6
:1002700002D0EE6AFCD7F350E9601200EE6AFCD7B8
:1002800013EE00F023EE00F0F86A019CE1EC00F0C0
:0C0290005CEC01F0D0EC00F0FBD7120099
:04029C00FF0EE3501E
:1002A000026E1B0E00D001D0200EE76EE72EFED7A7
:0802B000022EFAD700D0120063
:0202B800120032
:0602BA000100010000003C
:0802C00000000300000008002B
:020000040030CA
:010001000CF2
:010003001EDE
:0100050003F7
:00000001FF
