:020000040000FA
:060000004DEF03F01200B9
:0A0006000100F80600006A00000087
:0400100002000000EA
:0C001400D9CFE6FFE1CFD9FF020EE126B4
:10002000806A816A826A836A896A8A6A8B6A8C6A50
:10003000010E926E070E936E946A956A810EC06EE1
:100040000E0EC16E010EC26E800EE66E080EE66EDA
:10005000FBEC02F0E552E552090EC86E010EE66EA9
:100060002DEC03F0E5523AD9010EE66E2DEC03F0CB
:10007000E552730EE66E050EE66E010EE66EBED913
:10008000E552E552E552620EE66E050EE66E020E90
:10009000E66EB4D9E552E552E552640EE66E16EC12
:1000A00003F0E552838200016A6B6B6BD8906B5151
:1000B00004E6E80E6A5D030E6B590AE20A0EE66E6C
:1000C0005BEC03F0E55200016A2B000E6B23EED7C8
:1000D0006A6B6B6B8392C282C2B2FED7C3CFDEFF64
:1000E000C4CFDDFF010EE66E2DEC03F0E552DECF4E
:1000F00002F0DDCF03F0000E025C020E03581EE397
:100100008150040B1BE1510EE66E050EE66E010EEA
:10011000E66E74D9E552E552E552400EE66E050EE4
:10012000E66E020EE66E6AD9E552E552E55280822D
:10013000808480868088808A81866AD0809280943C
:1001400080968098809A819683B016D080822F0EF8
:10015000E66E050EE66E010EE66E50D9E552E552EA
:10016000E552400EE66E050EE66E020EE66E46D9CC
:10017000E552E552E55201D0809283B416D08084D6
:100180001E0EE66E050EE66E010EE66E37D9E552DE
:10019000E552E552400EE66E050EE66E020EE66E84
:1001A0002DD9E552E552E55201D0809483B616D0A0
:1001B00080860D0EE66E050EE66E010EE66E1ED909
:1001C000E552E552E552400EE66E050EE66E020E71
:1001D000E66E14D9E552E552E55201D0809683B21D
:1001E00016D08088FC0EE66E040EE66E010EE66EFA
:1001F00005D9E552E552E552400EE66E050EE66E73
:10020000020EE66EFBD8E552E552E55201D0809829
:1002100049D7020EE15C02E2E16AE552E16EE55285
:10022000E7CFD9FF1200D9CFE6FFE1CFD9FFE652E1
:1002300074EC03F0C580C5B0FED774EC03F04E0E2D
:10024000E66EC2EC02F0E552FE0EDB50F00BDF6E04
:100250000C0EDF10DF6E74EC03F0DFCFE6FFC2ECB4
:1002600002F0E552020EE66E69EC03F0E552F80E7C
:10027000DF14DF6E74EC03F0DFCFE6FFC2EC02F0B8
:10028000E552FE0EDB38F00BF00BDF6E0C0EDF10CC
:10029000DF6E74EC03F0DFCFE6FFC2EC02F0E55254
:1002A000020EE66E69EC03F0E552F80EDF14DF6E25
:1002B00074EC03F0DFCFE6FFC2EC02F0E55274EC21
:1002C00003F0C584C5B4FED7050EE66E2DEC03F031
:1002D000E552E552E552E7CFD9FF1200140EE66E63
:1002E0002DEC03F0E552300EE66E9DDFE5521E0E5A
:1002F000E66E2DEC03F0E552300EE66E94DFE5522B
:100300001E0EE66E2DEC03F0E552300EE66E8BDF2E
:10031000E5521E0EE66E2DEC03F0E552020EE66E7F
:1003200082DFE552280EE66E7EDFE552060EE66EAF
:100330007ADFE5520C0EE66E76DFE552010EE66ED0
:1003400072DFE5521200D9CFE6FFE1CFD9FFE652C6
:1003500074EC03F0C580C5B0FED774EC03F04E0E0C
:10036000E66EC2EC02F0E552FE0EDB50F00BDF6EE3
:100370000D0EDF10DF6E74EC03F0DFCFE6FFC2EC92
:1003800002F0E5520A0EE66E69EC03F0E552F90E52
:10039000DF14DF6E74EC03F0DFCFE6FFC2EC02F097
:1003A000E552FE0EDB38F00BF00BDF6E0D0EDF10AA
:1003B000DF6E74EC03F0DFCFE6FFC2EC02F0E55233
:1003C0000A0EE66E69EC03F0E552F90EDF14DF6EFB
:1003D00074EC03F0DFCFE6FFC2EC02F0E55274EC00
:1003E00003F0C584C5B4FED7050EE66E2DEC03F010
:1003F000E552E552E552E7CFD9FF1200D9CFE6FF2B
:10040000E1CFD9FFFE0EDB0404E1800EE66E0BDFC8
:10041000E552FE0EDB50020804E1C00EE66E03DF7B
:10042000E552FC0EDBCFF6FFFD0EDBCFF7FF080039
:10043000F55011E0FC0EDBCFF6FFFD0EDBCFF7FF32
:100440000800F550E66E7FDFE552FC0EDB2AFD0E5C
:0E04500001E3DB2AE6D7E552E7CFD9FF120021
:02045E00060E88
:10046000F66E000EF76E000EF86E00010900F550F2
:10047000656F0900F550666F03E1656701D03DD0F7
:100480000900F550606F0900F550616F0900F550E3
:10049000626F09000900F550E96E0900F550EA6E37
:1004A000090009000900F550636F0900F550646FF9
:1004B00009000900F6CF67F0F7CF68F0F8CF69F0D0
:1004C00060C0F6FF61C0F7FF62C0F8FF0001635330
:1004D00002E1645307E00900F550EE6E6307F8E2AD
:1004E0006407F9D767C0F6FF68C0F7FF69C0F8FF77
:0C04F00000016507000E665BBFD712001C
:0404FC0020424F54F7
:10050000414F2043494D4120202020200020424FD0
:1005100054414F2044495245495441202000204233
:100520004F54414F20424149584F20202020002065
:10053000424F54414F2045535155455244412000AC
:1005400020205052455353494F4E41444F202020C4
:100550000020424F54414F2045585445524E4F20A1
:10056000200020204932432050415241204C434436
:10057000202000544553544520444F204D4F4455AE
:040580004C4F2000BC
:0C058400D9CFE6FFDACFE6FFE1CFD9FFC8
:10059000E2CFDAFFFD0EDB50C96EC6AE02D0FF0E11
:1005A00024D00F0EC61408080FE00F0EC6140B0857
:1005B0000BE0C6889EA6FED7C750040B03E1C750C8
:1005C000010B10E0000E11D00F0EC614080804E055
:1005D0000F0EC6140B0809E1C7B0FED774EC03F088
:1005E000C5AC02D0FE0E01D0000EE552E5CFDAFF19
:0605F000E7CFD9FF120065
:0A05F600D9CFE6FFDACFE6FFE1CF30
:10060000D9FFE2CFDAFF3F0EC716C66AC56AFD0EF4
:10061000DB50C612FC0EDB50C71293829380C68A51
:0C062000E552E5CFDAFFE7CFD9FF12006A
:04062C00FF0EE3508A
:10063000056EEF0E01D0F30EE76EE72E1DEF03F00F
:100640000C0E046EE76AE72E23EF03F0042E22EF70
:0A06500003F0052E1BEF03F012006B
:06065A00FF0EE350056EE7
:10066000480E01D04C0EE76EE72EFED7E76AE72E64
:0A067000FED7052EF7D70000120098
:06067A00000EF36E00EE1D
:1006800000F0080E01D81200EA6002D0EE6AFCD732
:0A069000F350E9601200EE6AFCD797
:06069A0013EE00F023EE58
:1006A00000F0F86A019C2FEC02F07BEC03F00AECFE
:0606B00000F0FBD7120070
:0A06B600FF0EE350056E1B0E00D08E
:1006C00001D0200EE76EE72EFED7052EFAD700D018
:0206D000120016
:0E06D200FF0EE350E84E1200000000D000D0F2
:0806E00000D0E82EFAD7120049
:0806E8001F0EC514FDE1C7500F
:0606F000040BFAE1120008
:0206F6001200F0
:0206F800000000
:020000040030CA
:010001000CF2
:010003001EDE
:010005008377
:010006008178
:00000001FF
