:020000040000FA
:0600000048EF0CF01200B5
:020006001200E6
:06000800A3EF08F0120056
:02000E000100EF
:0C00100008190000600000003200000031
:04001C00D9CFE6FF53
:10002000E1CFD9FFE6527DEC0CF0C580C5B0FED71C
:100030007DEC0CF04E0EE66EBEEC0BF0E552FE0EC3
:10004000DB50F00BDF6E0C0EDF10DF6E7DEC0CF082
:10005000DFCFE6FFBEEC0BF0E552010EE66E72EC70
:100060000CF0E552F80EDF14DF6E7DEC0CF0DFCF04
:10007000E6FFBEEC0BF0E552FE0EDB38F00BF00BAA
:10008000DF6E0C0EDF10DF6E7DEC0CF0DFCFE6FFD5
:10009000BEEC0BF0E552010EE66E72EC0CF0E55290
:1000A000F80EDF14DF6E7DEC0CF0DFCFE6FFBEEC68
:1000B0000BF0E5527DEC0CF0C584C5B4FED7050EFF
:1000C000E66E28EC0CF0E552E552E552E7CFD9FF99
:1000D0001200140EE66E28EC0CF0E552300EE66EBF
:1000E0009DDFE552050EE66E28EC0CF0E552300E71
:1000F000E66E94DFE552020EE66E56EC0CF0E55229
:10010000300EE66E8BDFE552020EE66E87DFE552BB
:10011000280EE66E83DFE552060EE66E7FDFE552BF
:100120000C0EE66E7BDFE552010EE66E77DFE552E0
:100130001200D9CFE6FFE1CFD9FFE6527DEC0CF0FB
:10014000C580C5B0FED77DEC0CF04E0EE66EBEEC61
:100150000BF0E552FE0EDB50F00BDF6E0D0EDF10E4
:10016000DF6E7DEC0CF0DFCFE6FFBEEC0BF0E5526E
:100170000A0EE66E72EC0CF0E552F90EDF14DF6E3B
:100180007DEC0CF0DFCFE6FFBEEC0BF0E552FE0E8F
:10019000DB38F00BF00BDF6E0D0EDF10DF6E7DEC49
:1001A0000CF0DFCFE6FFBEEC0BF0E5520A0EE66E78
:1001B00072EC0CF0E552F90EDF14DF6E7DEC0CF002
:1001C000DFCFE6FFBEEC0BF0E5527DEC0CF0C58412
:1001D000C5B4FED7050EE66E28EC0CF0E552E552EC
:1001E000E552E7CFD9FF1200D9CFE6FFE1CFD9FF23
:1001F000FD0EDBCFF6FFFE0EDBCFF7FF0800F5505C
:1002000011E0FD0EDBCFF6FFFE0EDBCFF7FF08009F
:10021000F550E66E8EDFE552FD0EDB2AFE0E01E3A1
:10022000DB2AE6D7E552E7CFD9FF1200D9CFE6FFA8
:10023000E1CFD9FF040EE126DE6ADD6AFD0EDBCFD9
:1002400008F0FE0EDBCF09F0020E08C0DBFF030E44
:1002500009C0DBFF040EE66EE1DEE552FC0EDB506A
:10026000DE6EDD6ADECF10F0DDCF11F0113404E276
:1002700010500008000E11542FE2020EDBCF10F0D8
:10028000030EDBCF11F00A0E0D6E0E6A10C008F0DF
:1002900011C009F012EC0CF004C010F005C011F010
:1002A000300E1024E66E45DFE552D950020FE96E9C
:1002B000DACFEAFF0A0E0D6E0E6AEECF08F0EDCF30
:1002C00009F012EC0CF008C0EEFF09C0EDFFDF06EC
:1002D000010E01E2DB06C6D7060EE66E9FDEE55292
:1002E000040EE15C02E2E16AE552E16EE552E7CF1D
:1002F000D9FF1200D9CFE6FFE1CFD9FFE652DF6A7E
:10030000FE0EDB50030A16E0010A0FE0030A08E0C4
:10031000010A01E014D0FD0EDB50800FDF6E0FD01C
:10032000FD0EDB50C00FDF6E0AD0FD0EDB50940FC8
:10033000DF6E05D0FD0EDB50D40FDF6E00D0DF5036
:1003400004E0DFCFE6FF6ADEE552E552E552E7CF93
:10035000D9FF1200806A896A010E926E816A8A6AE8
:10036000030E936E826A8B6A946E836A8C6A0F0E98
:10037000956E846A8D6A966A810EC06E0E0EC16E8D
:10038000010EC26E070EB46E0AEC09F005EC09F01E
:10039000800EE66E080EE66EF7EC0BF0E552E552C5
:1003A000090EC86E96DE03D8EFDBFED71200010EF1
:1003B000E66E34DEE552E66AE66A9CDFE552E55217
:1003C000400EE66E160EE66E0FDFE552E552E66A67
:1003D000010EE66E8FDFE552E552290EE66E160E2F
:1003E000E66E02DFE552E5521200010EE66E16DE01
:1003F000E552E66AE66A7EDFE552E552190EE66EE0
:10040000160EE66EF1DEE552E552E66A010EE66E84
:1004100071DFE552E552090EE66E160EE66EE4DE79
:10042000E552E552E66A020EE66E64DFE552E552F9
:10043000F90EE66E150EE66ED7DEE552E552E66A77
:10044000030EE66E57DFE552E552E90EE66E150E35
:10045000E66ECADEE552E5521200010EE66EDEDD02
:10046000E552E66AE66A46DFE552E552D40EE66EEC
:10047000150EE66EB9DEE552E552E66A010EE66E4D
:1004800039DFE552E552BF0EE66E150EE66EACDEC4
:10049000E552E5521200010EE66EC0DDE552E66A55
:1004A000E66A28DFE552E552B10EE66E150EE66EFD
:1004B0009BDEE552E552E66A010EE66E1BDFE55271
:1004C000E552A30EE66E150EE66E8EDEE552E5529F
:1004D0001200010EE66EA2DDE552E66AE66A0ADF68
:1004E000E552E5528E0EE66E150EE66E7DDEE552A5
:1004F000E552E66A010EE66EFDDEE552E552790E42
:10050000E66E150EE66E70DEE552E552E66A020E04
:10051000E66EF0DEE552E552640EE66E150EE66E0E
:1005200063DEE552E55212006AC0E6FF6BC0E6FFEB
:10053000E1DEE552E552500EE66E150EE66E54DE33
:10054000E552E5520001665107E119EC09F05CEC57
:1005500009F006EC07F0F6D7666B29DFC4EF05F06B
:10056000E66AE66AC7DEE552E5523C0EE66E150E17
:10057000E66E3ADEE552E552E66A010EE66EBADE56
:10058000E552E552320EE66E150EE66E2DDEE552B0
:10059000E552E66A020EE66EADDEE552E552270E42
:1005A000E66E150EE66E20DEE552E552E66A030EB3
:1005B000E66EA0DEE552E5521D0EE66E150EE66E05
:1005C00013DEE552E5520001010E6B6F6A6B00010C
:1005D000665157E135EC07F093EC07F006EC07F0B5
:1005E0000001675114E0676B81766AC0E6FF6BC05B
:1005F000E6FF80DEE552E552200EE66E9ADDE5521A
:1006000000016B0503E1030E6B6F01D06B076951AD
:1006100015E0696B817A6AC0E6FF6BC0E6FF6ADEAF
:10062000E552E552200EE66E84DDE552030E000130
:100630006B5D03E1010E6B6F01D06B2B7BD9130E49
:10064000E66E030EE66E56DEE552E55200016D5190
:10065000E66EE66ACBEC07F0E552E552E66E000185
:100660006D51E66EE66AE2DDE552E552E5526AC09A
:10067000E6FF6BC0E6FF3EDEE552E5521DD96ADAC1
:10068000A6D7666B6B6B080E6A6F91DEC4EF05F040
:10069000010EE66EC3DCE552080EE66E150EE66E40
:1006A000A3DDE552E552E66A010EE66E23DEE55271
:1006B000E552F30EE66E140EE66E96DDE552E55257
:1006C000E66A020EE66E16DEE552E552DE0EE66ED4
:1006D000140EE66E89DDE552E552E66A030EE66E1B
:1006E00009DEE552E552C90EE66E140EE66E7CDDBB
:1006F000E552E5520001010E6B6F6A6BC2EC07F028
:10070000000166513AE1675114E0676B81766AC077
:10071000E6FF6BC0E6FFEEDDE552E552200EE66E29
:1007200008DDE55200016B0503E1030E6B6F01D09C
:100730006B07695115E0696B817A6AC0E6FF6BC08F
:10074000E6FFD8DDE552E552200EE66EF2DCE5521A
:10075000030E00016B5D03E1010E6B6F01D06B2B8B
:10076000C2EC07F06AC0E6FF6BC0E6FFC3DDE552EE
:10077000E552A2D8CDD8C7D9C3D7666B010E6B6F2F
:100780006A6BA7D814DEC4EF05F0E66AE66AB2DD4C
:10079000E552E552BB0EE66E140EE66E25DDE5521F
:1007A000E552E66A010EE66EA5DDE552E552AC0EB5
:1007B000E66E140EE66E18DDE552E552E3DB00014D
:1007C000665102E1DFDBFBD7666B010E6B6F080E33
:1007D0006A6F7FD8ECDDC4EF05F0400EE66E1EDCDC
:1007E000E552040EE66EA5DCE5521B0EE66EA1DCBA
:1007F000E552110EE66E9DDCE552110EE66E99DCB7
:10080000E552110EE66E95DCE552110EE66E91DCB6
:10081000E5521F0EE66E8DDCE5521F0EE66E89DC9A
:10082000E5521200400EE66E0EEC00F0E552040EAA
:10083000E66E7FDCE5520E0EE66E7BDCE552E66A84
:1008400078DCE552E66A75DCE552010EE66E71DC95
:10085000E552130EE66E6DDCE5521E0EE66E69DCA7
:10086000E552E66A66DCE5521200400EE66E0EECDA
:1008700000F0E552040EE66E5CDCE5520E0EE66E0C
:1008800058DCE552E66A55DCE552E66A52DCE55290
:10089000100EE66E4EDCE552190EE66E4ADCE552AD
:1008A0000F0EE66E46DCE552E66A43DCE5521200C6
:1008B000B9DFDBDFEDEF03F000016C5105E03E0E28
:1008C000E66E37DCE55204D0200EE66E32DCE552EF
:1008D000120000016B5105E16A5103E1010E6D6FD9
:1008E00016D06B5106E1080E6A5D03E1020E6D6FD2
:1008F0000ED06B0505E16A5103E1030E6D6F07D061
:100900006B0505E1080E6A5D02E1040E6D6F1200D1
:1009100000016B0503E1010E6D6F0BD0020E6B5DE4
:1009200003E1020E6D6F05D0030E6B5D02E1030E55
:100930006D6F120000016B0503E1010E6D6F0BD0AE
:10094000020E6B5D03E1020E6D6F05D0030E6B5D51
:1009500002E1030E6D6F120015DB0001665166E1C6
:10096000666B100EE66EE66AC5DCE552E55283A0C2
:1009700008D0A80EE66E140EE66E36DCE552E5529F
:1009800007D0560EE66E160EE66E2EDCE552E552E8
:10099000100EE66E010EE66EADDCE552E55283A266
:1009A00008D0A80EE66E140EE66E1EDCE552E55287
:1009B00007D0560EE66E160EE66E16DCE552E552D0
:1009C000100EE66E020EE66E95DCE552E55283A44B
:1009D00009D0A80EE66E140EE66EF4EC00F0E552B7
:1009E000E55208D0560EE66E160EE66EF4EC00F0F8
:1009F000E552E552100EE66E030EE66E7BDCE55224
:100A0000E55283A609D0A80EE66E140EE66EF4EC4D
:100A100000F0E552E55208D0560EE66E160EE66E70
:100A2000F4EC00F0E552E552ADDA97D7666B020EB2
:100A30006B6F6A6B6DDF48EF03F0A4DA000166515B
:100A400002E1A0DAFBD7666B010E6B6F6A6B60DFA9
:100A500048EF03F097DA0001665132E10D0EE66EC1
:100A6000010EE66E47DCE552E55270C0E6FF71C04C
:100A7000E6FF91DAE552E552E66E70C0E6FF71C01E
:100A8000E6FF16EC01F0E552E552E552090EE66E7E
:100A9000010EE66E2FDCE552E55272C0E6FF73C030
:100AA000E6FF79DAE552E552E66E72C0E6FF73C002
:100AB000E6FF16EC01F0E552E552E55263DACBD7DA
:100AC000666B030E6B6F6A6B23DF48EF03F0000168
:100AD000655118E0656B817C010EE66E0EEC00F04E
:100AE000E55200016D51040A0CE0070A09E0010A11
:100AF00005E0030A01E006D017DD04D031DD02D0A5
:100B000001D000D012000001655119E0656B817CB5
:100B1000010EE66E0EEC00F0E55200016D51030A85
:100B20000BE0010A06E0030A01E009D0B4DC85DF2E
:100B300006D05BDC11DF03D090DC8CDF00D000013D
:100B4000665107E0666B010E6B6F6A6BC2DE2FDCCD
:100B50001BD812002CD90001655115E0656B817C12
:100B6000010EE66E0EEC00F0E55200016D51030A35
:100B700007E0010A04E0030A01E005D004D003D035
:100B8000A8DCBEDB00D012006AC0E6FF6BC0E6FF47
:100B90007AEC01F0E552E5529CDEF4D90001665191
:100BA00017E0666B81746AC0E6FF6BC0E6FF7AEC03
:100BB00001F0E552E552200EE66E99EC00F0E552A8
:100BC00000016A5103E1080E6A6F02D0080E6A5FE5
:100BD000675116E0676B81766AC0E6FF6BC0E6FF7F
:100BE0007AEC01F0E552E552200EE66E99EC00F049
:100BF000E55200016B5103E1010E6B6F01D06B07F1
:100C0000685117E0686B81786AC0E6FF6BC0E6FF49
:100C10007AEC01F0E552E552200EE66E99EC00F018
:100C2000E552080E00016A5D02E16A6B02D0080E0F
:100C30006A27695115E0696B817A6AC0E6FF6BC06B
:100C4000E6FF7AEC01F0E552E552200EE66E99ECF3
:100C500000F0E55200016B0502E16B6B01D06B2BDC
:100C600038DE130EE66E030EE66E7AEC01F0E55206
:100C7000E55200016D51E66EE66A8DD9E552E55206
:100C8000E66E00016D51E66EE66A16EC01F0E55283
:100C9000E552E5526AC0E6FF6BC0E6FF7AEC01F070
:100CA000E552E55209DE67EF05F0D9CFE6FFE1CF67
:100CB000D9FFFE0EDB500F0BF36EF346F346C30E67
:100CC000C214F310C26E010EE66E56EC0CF0E55243
:100CD000C282C2B2FED7C3CFF3FFC4CFF4FF00D0AD
:100CE000E552E7CFD9FF1200D9CFE6FFE1CFD9FF18
:100CF000020EE126DF6A050EDF5C4FE2010EDB6AC1
:100D0000EA6ADF34FE0BEA36E96E740EE926000E5D
:100D1000EA22EECF10F0EFCF11F0050E105E000EBC
:100D2000115A000110509D5D11509E592BE3EA6A43
:100D3000DF34FE0BEA36E96E740EE926000EEA2275
:100D4000EECF12F0EFCF13F0050E1226000E132295
:100D50009D51125C9E51135815E3DE52010EDD6E5B
:100D6000DB5010E0DF50EA6A600FE96E000EEA2205
:100D7000EF5008E1DF50EA6A650FE96E000EEA22E3
:100D8000010EEF6EDF50EA6A600FE96E000EEA2294
:100D9000010EDBCFEFFFDF2AAED7020EE15C02E2ED
:100DA000E16AE552E16EE552E7CFD9FF1200E66A4B
:100DB0007CDFE552F3CF9DF0F4CF9EF000019C6BF9
:100DC00074C010F075C011F0050E105E000E115ABF
:100DD00010509D5D11509E5916E3050E0001136AD7
:100DE0007425126E7551132200019D51125C9E51A3
:100DF000135809E3010E9C6F9C5105E000016051FE
:100E000002E1010E656F9CC060F01200E66A4DDFE2
:100E1000E552F3CF9DF0F4CF9EF000019C6B76C0BD
:100E200010F077C011F0050E105E000E115A105030
:100E30009D5D11509E5916E3050E0001136A76253B
:100E4000126E7751132200019D51125C9E5113586E
:100E500009E3010E9C6F9C5105E00001615102E124
:100E6000010E666F9CC061F01200E66A1EDFE5525B
:100E7000F3CF9DF0F4CF9EF000019C6B78C010F092
:100E800079C011F0050E105E000E115A10509D5DD4
:100E900011509E5916E3050E0001136A7825126E53
:100EA0007951132200019D51125C9E51135809E3A0
:100EB000010E9C6F9C5105E00001625102E1010EA0
:100EC000676F9CC062F01200E66AEFDEE552F3CF76
:100ED0009DF0F4CF9EF000019C6B7AC010F07BC0B7
:100EE00011F0050E105E000E115A10509D5D11504C
:100EF0009E5916E3050E0001136A7A25126E7B5186
:100F0000132200019D51125C9E51135809E3010EFA
:100F10009C6F9C5105E00001635102E1010E686F76
:100F20009CC063F01200E66AC0DEE552F3CF9DF08C
:100F3000F4CF9EF000019C6B7CC010F07DC011F0DE
:100F4000050E105E000E115A10509D5D11509E59F5
:100F500016E3050E0001136A7C25126E7D511322E3
:100F600000019D51125C9E51135809E3010E9C6FC4
:100F70009C5105E00001645102E1010E696F9CC0C3
:100F800064F01200E66A91DEE552F3CF9DF0F4CFF3
:100F90009EF074EF06F0D9CFE6FFE1CFD9FF030E44
:100FA000E126FD0EDBCFDEFFDBCFDDFF020EDB6ACD
:100FB000D9CFE9FFDACFEAFF0A0E0D6E0E6AEECF47
:100FC00008F0EDCF09F098EC0BF008C0EEFF09C077
:100FD000EDFF020EDB2AD9CFE9FFDACFEAFFEE50B0
:100FE000ED10E6E1020EDB50106E030EE15C03E251
:100FF00000D0E16AE552E16E1050E552E7CFD9FF2B
:101000001200D9CFE6FFE1CFD9FF040EE126FD0E95
:10101000DBCFE6FFFE0EDBCFE6FFBDDFE552E5529C
:10102000DE6EDD6A020EDB6A030EDB6ADECF10F0D5
:10103000DDCF11F01006000E115A020E10C0DBFFBA
:10104000030E11C0DBFF020EDBCF10F0030EDBCF6F
:1010500011F00001800E111440E1FD0EDBCF12F003
:10106000FE0EDBCF13F00A0E0D6E0E6A12C008F0F2
:1010700013C009F012EC0CF004C012F005C013F01C
:10108000300E1226000E1322020EDBCF10F0030EDC
:10109000DBCF11F0FB0EDB501024E96EFC0EDB50B1
:1010A0001120EA6E12C0EFFFD950FD0FE96EFF0E5E
:1010B000DA20EA6E0A0E0D6E0E6AEECF08F0EDCF62
:1010C00009F012EC0CF008C0EEFF09C0EDFF020EB3
:1010D000DB06030E01E2DB06B6D7FB0EDBCF10F01A
:1010E000FC0EDBCF11F0DE501024E96EDD50112034
:1010F000EA6EEF6A040EE15C02E2E16AE552E16E3B
:10110000E552E7CFD9FF1200D9CFE6FFE1CFD9FFF3
:10111000D950FD0FE96EFF0EDA20EA6E000ED8807E
:10112000EE54000EED540BE20A0EE66E56EC0CF097
:10113000E552FD0EDB06FE0E01E2DB06E9D7E552C5
:10114000E7CFD9FF1200DACFE4FFE2CFDAFFE9CF31
:10115000E4FFEACFE4FFF6CFE4FFF7CFE4FFF5CFFB
:10116000E4FFF3CFE4FFF4CFE4FFFACFE4FF00EEB7
:1011700000F0100EE80403E3EECFE4FFFBD700EE2F
:1011800010F0040EE80403E3EECFE4FFFBD7E652D1
:101190009EA017D000017E2B6C5102E0000E01D002
:1011A000010E6C6F3C0E7E5D0BE17E6B7F2B3C0E67
:1011B0007F5D06E17F6B802B180E805D01E1806B07
:1011C00033D8E55200EE13F0040EE80403E3E5CF54
:1011D000EDFFFBD700EE0FF0100EE80403E3E5CFC0
:1011E000EDFFFBD7E5CFFAFFE5CFF4FFE5CFF3FF47
:1011F000E5CFF5FFE5CFF7FFE5CFF6FFE5CFEAFF57
:10120000E5CFE9FFE5CFDAFF1100D09EF28EF28C38
:101210009D801200CD8ECD8CCD9ACD98CD86CD946B
:10122000CD82CD8014EF09F09E90C00ECF6ECE6AB5
:10123000120080C009F00A0E0E6E7EEC0BF0055015
:10124000300F0001836F0A0E106E10C00EF080C0C8
:1012500009F07EEC0BF00950300F0001826F7FC067
:1012600009F00A0E0E6E7EEC0BF00550300F0001F7
:10127000866F0A0E106E10C00EF07FC009F07EEC73
:101280000BF00950300F0001856F7EC009F00A0E87
:101290000E6E7EEC0BF00550300F00018B6F0A0EC6
:1012A000106E10C00EF07EC009F07EEC0BF00950FD
:1012B000300F00018A6F1200D9CFE6FFE1CFD9FFCE
:1012C000E652DF6A040EE66E010EE66E7AEC01F07D
:1012D000E552E552DF6A0E0EDF5C0DE2DF50EA6A8E
:1012E000820FE96E000EEA22EF50E66E99EC00F0F4
:1012F000E552DF2AF0D7E552E552E7CFD9FF1200D9
:1013000000016B6B0C0E6A6F0001665101E0C4D0E6
:10131000ACDD09DE7BDD020E00016A25E66EE66AC1
:101320007AEC01F0E552E55280C010F0116A10BE6F
:10133000116810C0E6FF11C0E6FF2DDEE552E55250
:10134000E66E80C012F0136A12BE136812C0E6FF88
:1013500013C0E6FF16EC01F0E552E552E552020E2D
:1013600000016A25E66E010EE66E7AEC01F0E552A8
:10137000E5527FC010F0116A10BE116810C0E6FF80
:1013800011C0E6FF08DEE552E552E66E7FC012F0BE
:10139000136A12BE136812C0E6FF13C0E6FF16EC14
:1013A00001F0E552E552E552020E00016A25E66EB3
:1013B000020EE66E7AEC01F0E552E5527EC010F0C6
:1013C000116A10BE116810C0E6FF11C0E6FFE3DD30
:1013D000E552E552E66E7EC012F0136A12BE136843
:1013E00012C0E6FF13C0E6FF16EC01F0E552E5522D
:1013F000E5520001675115E0676B6AC0E6FF6BC0FC
:10140000E6FF7AEC01F0E552E552200EE66E99EC2B
:1014100000F0E55200016B5103E1020E6B6F01D049
:101420006B07695115E0696B6AC0E6FF6BC0E6FFA8
:101430007AEC01F0E552E552200EE66E99EC00F0F0
:10144000E552020E00016B5D02E16B6B01D06B2B6C
:10145000130EE66E030EE66E7AEC01F0E552E552ED
:1014600000016D51E66EE66A96DDE552E552E66EE4
:1014700000016D51E66EE66A16EC01F0E552E552A8
:10148000E5526AC0E6FF6BC0E6FF7AEC01F0E55278
:10149000E5525CEC04F038D7666B010EE66E0EEC9C
:0814A00000F0E552B0EF02F08C
:0814A8004F4E20004A6F7267ED
:1014B00065204D2E20462E204A2E00446576656C10
:1014C0006F7065642062793A0020205075726966F9
:1014D000696361646F72202020202020200020207A
:1014E00053656E736F7265732020202020202020AA
:1014F00020200020204D6F746F7265732020202003
:1015000020202020202020002D2D2D4341542D422D
:101510004F5820563A20312E302D2D2D00202052AC
:10152000656C6F67696F00202053656E736F72651D
:10153000730020204D6F746F726573003D2D3D2D3B
:101540003D2D414A55535445532D3D2D3D2D3D00D4
:101550002D2D2D2D2D2D4341542D424F582D2D2D08
:101560002D2D2D00534547554E444F2E3A20202017
:101570002020202020202020004D494E55544F2E61
:101580002E3A202020202020202020202000484FFC
:1015900052412E2E2E2E3A202020202020202020A6
:1015A0002020004D4F544F52204741564554412072
:1015B000004D4F544F522054414D424F5220005342
:1015C0005052415953203030302F303030202020BD
:1015D000202020002D2D2D2D5055524946494341A4
:1015E000444F522D2D2D2D2000474156455441206A
:1015F0004645434841444F20004741564554412009
:1016000041424552544F20200054414D424F5220F8
:101610004156414E4341444F0054414D424F5220A8
:101620005245435541444F20002020494E464F200B
:10163000202041424F55542D4D4520202020200090
:101640002020484F4D45202020434F4E46494720FB
:0D1650002020202020004F4646004F4E0075
:02165E000E0E6E
:10166000F66E000EF76E000EF86E00010900F550E0
:10167000976F0900F550986F03E1976701D03DD04F
:101680000900F550926F0900F550936F0900F5506D
:10169000946F09000900F550E96E0900F550EA6EF3
:1016A000090009000900F550956F0900F550966F83
:1016B00009000900F6CF99F0F7CF9AF0F8CF9BF028
:1016C00092C0F6FF93C0F7FF94C0F8FF0001955356
:1016D00002E1965307E00900F550EE6E9507F8E237
:1016E0009607F9D799C0F6FF9AC0F7FF9BC0F8FF9D
:0C16F00000019707000E985BBFD71200A6
:0416FC00006A0EAEC4
:1017000084EF0BF00E6C001E09AE89EF0BF0096C34
:10171000001E64EC0CF009BE93EF0BF000AE000C61
:10172000096C056C000C00BE90EF0BF00188FF0CFB
:10173000006A0EAEA1EF0BF00D6C0E1EE86A0E22D1
:10174000001E09AEA9EF0BF0086C091EE86A092219
:10175000001E12EC0CF009BEB9EF0BF000AE000C4D
:10176000086C091EE86A0922046C051EE86A052255
:0C177000000C00BEB0EF0BF00188FF0C75
:04177C00D9CFE6FFDC
:10178000DACFE6FFE1CFD9FFE2CFDAFFFD0EDB5083
:10179000C96EC6AE02D0FF0E24D00F0EC6140808C4
:1017A0000FE00F0EC6140B080BE0C6889EA6FED7EE
:1017B000C750040B03E1C750010B10E0000E11D01D
:1017C0000F0EC614080804E00F0EC6140B0809E13A
:1017D000C7B0FED77DEC0CF0C5AC02D0FE0E01D038
:0E17E000000EE552E5CFDAFFE7CFD9FF120089
:0217EE00D9CF51
:1017F000E6FFDACFE6FFE1CFD9FFE2CFDAFF3F0E17
:10180000C716C66AC56AFD0EDB50C612FC0EDB5059
:10181000C71293829380C68AE552E5CFDAFFE7CFFD
:04182000D9FF1200DA
:0C182400056A046A100EE76ED8900836C2
:101830000936043605360D50045C0E50055805E394
:101840000D50045E0E50055A082AE72EF0D71200FC
:10185000FF0EE350146E480E01D04C0EE76EE72EDB
:10186000FED7E76AE72EFED7142EF7D70000120046
:10187000000EF36E00EE00F0080E01D81200EA60D0
:1018800002D0EE6AFCD7F350E9601200EE6AFCD792
:1018900013EE00F023EE00F0F86A019C2FEC0BF041
:0C18A00003EC00F0AAEC01F0FBD71200F2
:0418AC00FF0EE350F8
:1018B000146E1B0E00D001D0200EE76EE72EFED76F
:0818C000142EFAD700D012002B
:0818C800056A080EE76ED890D6
:1018D000093605360E50055C02E3056E092AE72E2F
:0418E000F7D7120024
:0C18E400FF0EE350E84E1200000000D0A0
:0A18F00000D000D0E82EFAD7120055
:0618FA001F0EC514FDE104
:08190000C750040BFAE11200CC
:081908000000000000000000D7
:101910000000000001005A56F4011200FF02AA0262
:101920000002DB026602393B170030306830306D50
:0A193000696E30307365630000003B
:020000040030CA
:010001000CF2
:010002001EDF
:010003001EDE
:0100050003F7
:010006008178
:00000001FF
