:020000040000FA
:0600000008EF0CF01200F5
:020006001200E6
:0600080067EF08F0120092
:02000E000100EF
:0C001000881800006000000032000000B2
:04001C00D9CFE6FF53
:10002000E1CFD9FFE6523DEC0CF0C580C5B0FED75C
:100030003DEC0CF04E0EE66E7EEC0BF0E552FE0E43
:10004000DB50F00BDF6E0C0EDF10DF6E3DEC0CF0C2
:10005000DFCFE6FF7EEC0BF0E552010EE66E32ECF0
:100060000CF0E552F80EDF14DF6E3DEC0CF0DFCF44
:10007000E6FF7EEC0BF0E552FE0EDB38F00BF00BEA
:10008000DF6E0C0EDF10DF6E3DEC0CF0DFCFE6FF15
:100090007EEC0BF0E552010EE66E32EC0CF0E55210
:1000A000F80EDF14DF6E3DEC0CF0DFCFE6FF7EECE8
:1000B0000BF0E5523DEC0CF0C584C5B4FED7050E3F
:1000C000E66EE8EC0BF0E552E552E552E7CFD9FFDA
:1000D0001200140EE66EE8EC0BF0E552300EE66E00
:1000E0009DDFE552050EE66EE8EC0BF0E552300EB2
:1000F000E66E94DFE552020EE66E16EC0CF0E55269
:10010000300EE66E8BDFE552020EE66E87DFE552BB
:10011000280EE66E83DFE552060EE66E7FDFE552BF
:100120000C0EE66E7BDFE552010EE66E77DFE552E0
:100130001200D9CFE6FFE1CFD9FFE6523DEC0CF03B
:10014000C580C5B0FED73DEC0CF04E0EE66E7EECE1
:100150000BF0E552FE0EDB50F00BDF6E0D0EDF10E4
:10016000DF6E3DEC0CF0DFCFE6FF7EEC0BF0E552EE
:100170000A0EE66E32EC0CF0E552F90EDF14DF6E7B
:100180003DEC0CF0DFCFE6FF7EEC0BF0E552FE0E0F
:10019000DB38F00BF00BDF6E0D0EDF10DF6E3DEC89
:1001A0000CF0DFCFE6FF7EEC0BF0E5520A0EE66EB8
:1001B00032EC0CF0E552F90EDF14DF6E3DEC0CF082
:1001C000DFCFE6FF7EEC0BF0E5523DEC0CF0C58492
:1001D000C5B4FED7050EE66EE8EC0BF0E552E5522D
:1001E000E552E7CFD9FF1200D9CFE6FFE1CFD9FF23
:1001F000FD0EDBCFF6FFFE0EDBCFF7FF0800F5505C
:1002000011E0FD0EDBCFF6FFFE0EDBCFF7FF08009F
:10021000F550E66E8EDFE552FD0EDB2AFE0E01E3A1
:10022000DB2AE6D7E552E7CFD9FF1200D9CFE6FFA8
:10023000E1CFD9FF030EE126FD0EDBCFDEFFDBCFE2
:10024000DDFF020EDB6AD9CFE9FFDACFEAFF0A0E43
:100250000D6E0E6AEECF08F0EDCF09F058EC0BF002
:1002600008C0EEFF09C0EDFF020EDB2AD9CFE9FF7F
:10027000DACFEAFFEE50ED10E6E1020EDB50106E31
:10028000030EE15C03E200D0E16AE552E16E10503A
:10029000E552E7CFD9FF1200D9CFE6FFE1CFD9FF72
:1002A000040EE126DE6ADD6AFD0EDBCF08F0FE0EED
:1002B000DBCF09F0020E08C0DBFF030E09C0DBFF35
:1002C000040EE66EABDEE552FD0EDBCFE6FFFE0E62
:1002D000DBCFE6FFABDFE552E552DE6EDD6ADECF57
:1002E00010F0DDCF11F0113404E210500008000EC0
:1002F00011542FE2020EDBCF10F0030EDBCF11F012
:100300000A0E0D6E0E6A10C008F011C009F0D2EC92
:100310000BF004C010F005C011F0300E1024E66E92
:1003200008DFE552D950020FE96EDACFEAFF0A0E74
:100330000D6E0E6AEECF08F0EDCF09F0D2EC0BF0A7
:1003400008C0EEFF09C0EDFFDF06010E01E2DB068B
:10035000C6D7060EE66E62DEE552040EE15C02E2EE
:10036000E16AE552E16EE552E7CFD9FF1200D9CF3D
:10037000E6FFE1CFD9FFE652DF6AFE0EDB50030A4B
:1003800016E0010A0FE0030A08E0010A01E014D0B8
:10039000FD0EDB50800FDF6E0FD0FD0EDB50C00F67
:1003A000DF6E0AD0FD0EDB50940FDF6E05D0FD0E20
:1003B000DB50D40FDF6E00D0DF5004E0DFCFE6FF6C
:1003C0002DDEE552E552E552E7CFD9FF1200010ECE
:1003D000E66E24DEE552E66AE66AC9DFE552E552DA
:1003E000C90EE66E150EE66EFFDEE552E552E66AD0
:1003F000010EE66EBCDFE552E552B40EE66E150E58
:10040000E66EF2DEE552E5521200010EE66E06DE01
:10041000E552E66AE66AABDFE552E552A40EE66E07
:10042000150EE66EE1DEE552E552E66A010EE66E75
:100430009EDFE552E552940EE66E150EE66ED4DEB2
:10044000E552E552E66A020EE66E91DFE552E552AC
:10045000840EE66E150EE66EC7DEE552E552E66ADC
:10046000030EE66E84DFE552E552740EE66E150E5D
:10047000E66EBADEE552E5521200010EE66ECEDD02
:10048000E552E66AE66A73DFE552E5525F0EE66E14
:10049000150EE66EA9DEE552E552E66A010EE66E3D
:1004A00066DFE552E5524A0EE66E150EE66E9CDEFC
:1004B000E552E5521200010EE66EB0DDE552E66A45
:1004C000E66A55DFE552E5523C0EE66E150EE66E25
:1004D0008BDEE552E552E66A010EE66E48DFE55234
:1004E000E5522E0EE66E150EE66E7EDEE552E55204
:1004F0001200010EE66E92DDE552E66AE66A37DF2B
:10050000E552E552190EE66E150EE66E6DDEE55209
:10051000E552E66A010EE66E2ADFE552E552040E68
:10052000E66E150EE66E60DEE552E552E66A020EF4
:10053000E66E1DDFE552E552EF0EE66E140EE66E36
:1005400053DEE552E5521200400EE66E67DDE552DD
:10055000040EE66EEEDDE5521B0EE66EEADDE552B8
:10056000110EE66EE6DDE552110EE66EE2DDE552B5
:10057000110EE66EDEDDE552110EE66EDADDE552B5
:100580001F0EE66ED6DDE5521F0EE66ED2DDE55299
:100590001200400EE66E42DDE552040EE66EC9DD45
:1005A000E5520E0EE66EC5DDE552E66AC2DDE552A5
:1005B000E66ABFDDE552010EE66EBBDDE552130EC5
:1005C000E66EB7DDE5521E0EE66EB3DDE552E66A75
:1005D000B0DDE5521200400EE66E20DDE552040E5D
:1005E000E66EA7DDE5520E0EE66EA3DDE552E66A85
:1005F000A0DDE552E66A9DDDE552100EE66E99DD5E
:10060000E552190EE66E95DDE5520F0EE66E91DDB0
:10061000E552E66A8EDDE5521200BBDFDCDFA4EFB7
:1006200002F06AC0E6FF6BC0E6FFA1DEE552E552CC
:100630003DDB0001665114E081746AC0E6FF6BC0C7
:10064000E6FF95DEE552E552200EE66E72DDE552DC
:1006500000016A5103E1080E6A6F02D0080E6A5F5A
:10066000675113E081766AC0E6FF6BC0E6FF7FDE6C
:10067000E552E552200EE66E5CDDE55200016B515D
:1006800003E1010E6B6F01D06B07685114E08178B4
:100690006AC0E6FF6BC0E6FF6ADEE552E552200E57
:1006A000E66E47DDE552080E00016A5D02E16A6B05
:1006B00002D0080E6A27695112E0817A6AC0E6FF0B
:1006C0006BC0E6FF54DEE552E552200EE66E31DDEA
:1006D000E55200016B0502E16B6B01D06B2B70D909
:1006E000130EE66E030EE66E42DEE552E5520001A1
:1006F0006D51E66EE66AD0DDE552E5526AC0E6FF6E
:100700006BC0E6FF34DEE552E5524BD9ADEF07F0A2
:100710006AC0E6FF6BC0E6FF2ADEE552E552D40E62
:10072000E66E140EE66E60DDE552E552000166519C
:1007300006E1DDEC08F020EC09F04ADBF7D7666B48
:10074000E7EF01F0E66AE66A12DEE552E552C00E16
:10075000E66E140EE66E48DDE552E552E66A010EDD
:10076000E66E05DEE552E552B60EE66E140EE66E56
:100770003BDDE552E552E66A020EE66EF8DDE55233
:10078000E552AB0EE66E140EE66E2EDDE552E55236
:10079000E66A030EE66EEBDDE552E552A10EE66E6B
:1007A000140EE66E21DDE552E5520001010E6B6F7D
:1007B0006A6B000166514AE13ADB97DB09DB000115
:1007C000675114E0676B81766AC0E6FF6BC0E6FF95
:1007D000CEDDE552E552200EE66EABDCE5520001BF
:1007E0006B0503E1030E6B6F01D06B07695115E0D8
:1007F000696B817A6AC0E6FF6BC0E6FFB8DDE5523F
:10080000E552200EE66E95DCE552030E00016B5DAD
:1008100003E1010E6B6F01D06B2B03D9130EE66E53
:10082000030EE66EA4DDE552E55200016D51E66E61
:10083000E66A32DDE552E5526AC0E6FF6BC0E6FFCC
:1008400096DDE552E552ADD8F3D9B3D786DB00018A
:100850006B6B080E6A6FE7EF01F0010EE66E0EECAF
:1008600000F0E5528C0EE66E140EE66EBDDCE5522D
:10087000E552E66A010EE66E7ADDE552E552770E44
:10088000E66E140EE66EB0DCE552E552E66A020E44
:10089000E66E6DDDE552E552620EE66E140EE66E12
:1008A000A3DCE552E552E66A030EE66E60DDE55232
:1008B000E5524D0EE66E140EE66E96DCE552E552FC
:1008C0000001010E6B6F6A6B3FDB0001665139E17D
:1008D000675114E0676B81766AC0E6FF6BC0E6FF84
:1008E00046DDE552E552200EE66E23DCE5520001BE
:1008F0006B0503E1030E6B6F01D06B07695115E0C7
:10090000696B817A6AC0E6FF6BC0E6FF30DDE552B5
:10091000E552200EE66E0DDCE552030E00016B5D24
:1009200003E1010E6B6F01D06B2B0EDB6AC0E6FF9B
:100930006BC0E6FF1CDDE552E55233D860D84FD9D5
:10094000C4D7666B010E6B6F6A6B3AD840DD11EF4E
:1009500003F0E66AE66A0BDDE552E5523F0EE66E0D
:10096000140EE66E41DCE552E552E66A010EE66ED3
:10097000FEDCE552E552300EE66E140EE66E34DC17
:10098000E552E552E1DA0001665102E1DDDAFBD71A
:10099000666B010E6B6F080E6A6F12D818DD11EFCF
:1009A00003F000016C5106E03E0EE66E99EC00F09B
:1009B000E55205D0200EE66E99EC00F0E5521200EB
:1009C00000016B5105E16A5103E1010E6D6F16D014
:1009D0006B5106E1080E6A5D03E1020E6D6F0ED0E9
:1009E0006B0505E16A5103E1030E6D6F07D06B05DE
:1009F00005E1080E6A5D02E1040E6D6F1200000150
:100A00006B0503E1010E6D6F0BD0020E6B5D03E110
:100A1000020E6D6F05D0030E6B5D02E1030E6D6F6C
:100A2000120000016B0503E1010E6D6F0BD0020E89
:100A30006B5D03E1020E6D6F05D0030E6B5D02E18D
:100A4000030E6D6F120080DA000166516AE1666B79
:100A5000100EE66EE66A8BDCE552E55283A009D003
:100A60002C0EE66E140EE66EF4EC00F0E552E55244
:100A700008D0E80EE66E140EE66EF4EC00F0E552D7
:100A8000E552100EE66E010EE66E71DCE552E5529F
:100A900083A209D02C0EE66E140EE66EF4EC00F084
:100AA000E552E55208D0E80EE66E140EE66EF4EC60
:100AB00000F0E552E552100EE66E020EE66E57DCCF
:100AC000E552E55283A409D02C0EE66E140EE66EB4
:100AD000F4EC00F0E552E55208D0E80EE66E140E94
:100AE000E66EF4EC00F0E552E552100EE66E030EF1
:100AF000E66E3DDCE552E55283A609D02C0EE66E8B
:100B0000140EE66EF4EC00F0E552E55208D0E80E63
:100B1000E66E140EE66EF4EC00F0E552E55214DADF
:100B200093D7666B020E6B6F6A6B69DF2DEF04F073
:100B30000BDA0001665102E107DAFBD7666B010EA2
:100B40006B6F6A6B5CDF2DEF04F0FED9000166511C
:100B500021E10D0EE66E010EE66E09DCE552E5526E
:100B600070C0E6FF71C0E6FF4CEC01F0E552E552C3
:100B7000090EE66E010EE66EB7EC01F0E552E552A5
:100B800072C0E6FF73C0E6FF4CEC01F0E552E5529F
:100B9000DBD9DCD7666B030E6B6F6A6B30DF2DEF32
:100BA00004F0E7D80001655118E0D7D9817C010E27
:100BB000E66E0EEC00F0E55200016D51040A0CE007
:100BC000070A09E0010A05E0030A01E006D0A0DDFA
:100BD00004D0B8DD02D001D000D0ADEF07F00001A5
:100BE00065511AE0656B817C010EE66E0EEC00F03B
:100BF000E55200016D51030A0CE0010A06E0030A08
:100C000001E00AD058DC94DF07D005EC02F01BDFCE
:100C100003D033DC9ADF00D00001665108E0666B38
:100C2000010E6B6F6A6BCCDEE7EC01F0FADC1200B0
:100C3000A0D80001655119E090D9817C010EE66EC3
:100C40000EEC00F0E55200016D51030A0BE0010AC1
:100C500006E0030A01E009D04CDC16DB06D049DCD3
:100C600013DB03D046DC10DB00D0ADEF07F0D9CFAB
:100C7000E6FFE1CFD9FFFE0EDB500F0BF36EF3461C
:100C8000F346C30EC214F310C26E010EE66E16ECEC
:100C90000CF0E552C282C2B2FED7C3CFF3FFC4CF7D
:100CA000F4FF00D0E552E7CFD9FF1200D9CFE6FF1D
:100CB000E1CFD9FF020EE126DF6A050EDF5C4FE2CD
:100CC000010EDB6AEA6ADF34FE0BEA36E96E740E67
:100CD000E926000EEA22EECF10F0EFCF11F0050E5C
:100CE000105E000E115A000110509D5D11509E596A
:100CF0002BE3EA6ADF34FE0BEA36E96E740EE9266E
:100D0000000EEA22EECF12F0EFCF13F0050E1226FE
:100D1000000E13229D51125C9E51135815E3DE52B2
:100D2000010EDD6EDB5010E0DF50EA6A600FE96E05
:100D3000000EEA22EF5008E1DF50EA6A650FE96E23
:100D4000000EEA22010EEF6EDF50EA6A600FE96ED4
:100D5000000EEA22010EDBCFEFFFDF2AAED7020E34
:100D6000E15C02E2E16AE552E16EE552E7CFD9FFCC
:100D70001200E66A7CDFE552F3CF9DF0F4CF9EF0DF
:100D800000019C6B74C010F075C011F0050E105E70
:100D9000000E115A10509D5D11509E5916E3050E1C
:100DA0000001136A7425126E7551132200019D51C2
:100DB000125C9E51135809E3010E9C6F9C5105E093
:100DC0000001605102E1010E656F9CC060F01200ED
:100DD000E66A4DDFE552F3CF9DF0F4CF9EF00001BF
:100DE0009C6B76C010F077C011F0050E105E000EFF
:100DF000115A10509D5D11509E5916E3050E0001C9
:100E0000136A7625126E7751132200019D51125CF0
:100E10009E51135809E3010E9C6F9C5105E000019F
:100E2000615102E1010E666F9CC061F01200E66A3A
:100E30001EDFE552F3CF9DF0F4CF9EF000019C6BD6
:100E400078C010F079C011F0050E105E000E115A36
:100E500010509D5D11509E5916E3050E0001136A56
:100E60007825126E7951132200019D51125C9E511A
:100E7000135809E3010E9C6F9C5105E0000162517B
:100E800002E1010E676F9CC062F01200E66AEFDEBD
:100E9000E552F3CF9DF0F4CF9EF000019C6B7AC039
:100EA00010F07BC011F0050E105E000E115A1050AC
:100EB0009D5D11509E5916E3050E0001136A7A25B7
:100EC000126E7B51132200019D51125C9E511358EA
:100ED00009E3010E9C6F9C5105E00001635102E1A2
:100EE000010E686F9CC063F01200E66AC0DEE55236
:100EF000F3CF9DF0F4CF9EF000019C6B7CC010F00E
:100F00007DC011F0050E105E000E115A10509D5D4F
:100F100011509E5916E3050E0001136A7C25126ECE
:100F20007D51132200019D51125C9E51135809E31B
:100F3000010E9C6F9C5105E00001645102E1010E1D
:100F4000696F9CC064F01200E66A91DEE552F3CF4F
:100F50009DF0F4CF9EF056EF06F0D9CFE6FFE1CF3B
:100F6000D9FFE652DF6A050EDF5C09E2DF50EA6A6C
:100F7000650FE96E000EEA22EF6ADF2AF4D7E55228
:100F8000E552E7CFD9FF1200D9CFE6FFE1CFD9FF75
:100F9000040EE126FD0EDBCFE6FFFE0EDBCFE6FF03
:100FA00016EC01F0E552E552DE6EDD6A020EDB6AF8
:100FB000030EDB6ADECF10F0DDCF11F01006000E5D
:100FC000115A020E10C0DBFF030E11C0DBFF020E30
:100FD000DBCF10F0030EDBCF11F00001800E1114F7
:100FE00040E1FD0EDBCF12F0FE0EDBCF13F00A0E58
:100FF0000D6E0E6A12C008F013C009F0D2EC0BF0AF
:1010000004C012F005C013F0300E1226000E132299
:10101000020EDBCF10F0030EDBCF11F0FB0EDB5026
:101020001024E96EFC0EDB501120EA6E12C0EFFFB7
:10103000D950FD0FE96EFF0EDA20EA6E0A0E0D6E32
:101040000E6AEECF08F0EDCF09F0D2EC0BF008C03D
:10105000EEFF09C0EDFF020EDB06030E01E2DB0628
:10106000B6D7FB0EDBCF10F0FC0EDBCF11F0DE505D
:101070001024E96EDD501120EA6EEF6A040EE15C87
:1010800002E2E16AE552E16EE552E7CFD9FF1200D4
:10109000D9CFE6FFE1CFD9FFD950FD0FE96EFF0EA2
:1010A000DA20EA6E000ED880EE54000EED540BE20A
:1010B0000A0EE66E16EC0CF0E552FD0EDB06FE0E97
:1010C00001E2DB06E9D7E552E7CFD9FF1200DACF1C
:1010D000E4FFE2CFDAFFE9CFE4FFEACFE4FFF6CFA7
:1010E000E4FFF7CFE4FFF5CFE4FFF3CFE4FFF4CF65
:1010F000E4FFFACFE4FF00EE00F0100EE80403E393
:10110000EECFE4FFFBD700EE10F0040EE80403E39B
:10111000EECFE4FFFBD7E6529EA017D000017E2B56
:101120006C5102E0000E01D0010E6C6F3C0E7E5D32
:101130000BE17E6B7F2B3C0E7F5D06E17F6B802B8E
:10114000180E805D01E1806B33D8E55200EE13F09C
:10115000040EE80403E3E5CFEDFFFBD700EE0FF04C
:10116000100EE80403E3E5CFEDFFFBD7E5CFFAFF70
:10117000E5CFF4FFE5CFF3FFE5CFF5FFE5CFF7FFD0
:10118000E5CFF6FFE5CFEAFFE5CFE9FFE5CFDAFFF0
:101190001100D09EF28EF28C9D801200CD8ECD8CEF
:1011A000CD9ACD98CD86CD94CD82CD80D8EF08F064
:1011B0009E90C00ECF6ECE6A120080C009F00A0E5B
:1011C0000E6E3EEC0BF00550300F0001836F0A0EDF
:1011D000106E10C00EF080C009F03EEC0BF009500C
:1011E000300F0001826F7FC009F00A0E0E6E3EECD8
:1011F0000BF00550300F0001866F0A0E106E10C004
:101200000EF07FC009F03EEC0BF00950300F0001EA
:10121000856F7EC009F00A0E0E6E3EEC0BF0055095
:10122000300F00018B6F0A0E106E10C00EF07EC0E2
:1012300009F03EEC0BF00950300F00018A6F1200EC
:10124000D9CFE6FFE1CFD9FFE652DF6A040EE66EA2
:10125000010EE66EB7EC01F0E552E552DF6A0E0EC4
:10126000DF5C0DE2DF50EA6A820FE96E000EEA22CF
:10127000EF50E66E99EC00F0E552DF2AF0D7E55228
:10128000E552E7CFD9FF120000016B6B0C0E6A6FBD
:101290000001665101E091D0CADD27DE99DD020E22
:1012A00000016A25E66EE66AB7EC01F0E552E55208
:1012B00080C010F0116A10BE116810C0E6FF11C0A6
:1012C000E6FF4CEC01F0E552E552020E00016A2502
:1012D000E66E010EE66EB7EC01F0E552E5527FC016
:1012E00010F0116A10BE116810C0E6FF11C0E6FFD1
:1012F0004CEC01F0E552E552020E00016A25E66E63
:10130000020EE66EB7EC01F0E552E5527EC010F039
:10131000116A10BE116810C0E6FF11C0E6FF4CEC68
:1013200001F0E552E5520001675115E0676B6AC0B4
:10133000E6FF6BC0E6FFB7EC01F0E552E552200E88
:10134000E66E99EC00F0E55200016B5103E1020EEC
:101350006B6F01D06B07695115E0696B6AC0E6FFDE
:101360006BC0E6FFB7EC01F0E552E552200EE66EE9
:1013700099EC00F0E552020E00016B5D02E16B6B2F
:1013800001D06B2B130EE66E030EE66EB7EC01F088
:10139000E552E55200016D51E66EE66A4CEC01F053
:1013A000E552E5526AC0E6FF6BC0E6FFB7EC01F01C
:1013B000E552E552D1EC04F06BD7CFDD0001010E10
:1013C0006B6F6A6B1200806A896A010E926E816A85
:1013D0008A6A030E936E826A8B6A946E836A8C6A41
:1013E0000F0E956E846A8D6A966A810EC06E0E0E1F
:1013F000C16E010EC26E070EB46ED0DECADE800E64
:10140000E66E080EE66EB7EC0BF0E552E552090EFB
:10141000C86E69EC00F0E7EC01F0E0EC04F08388C2
:0C14200011EC03F0D1EC05F0FBD712003A
:04142C004F4E2000FF
:101430004A6F726765204D2E20462E204A2E0044AA
:101440006576656C6F7065642062793A0020205083
:1014500075726966696361646F72202020202020A4
:101460002000202053656E736F726573202020204A
:101470002020202020200020204D6F746F72657383
:101480002020202020202020202020002D2D2D4332
:1014900041542D424F5820563A20312E302D2D2DBB
:1014A00000202052656C6F67696F00202053656EC5
:1014B000736F7265730020204D6F746F72657300D7
:1014C0003D2D3D2D3D2D414A55535445532D3D2D28
:1014D0003D2D3D002D2D2D2D2D2D4341542D424FC1
:1014E000582D2D2D2D2D2D004F4646004F4E0053CB
:1014F0004547554E444F2E3A2020202020202020C2
:10150000202020004D494E55544F2E2E3A202020A9
:10151000202020202020202000484F52412E2E2E17
:101520002E3A2020202020202020202020004D4F57
:10153000544F522047415645544120004D4F544F7F
:10154000522054414D424F52200053505241595362
:10155000203030302F303030202020202020002D2F
:101560002D2D2D5055524946494341444F522D2D62
:101570002D2D2000474156455441204645434841C2
:10158000444F200047415645544120414245525462
:101590004F20200054414D424F52204156414E436E
:1015A00041444F0054414D424F5220524543554112
:1015B000444F20002020494E464F20202041424FDA
:1015C00055542D4D45202020002020484F4D4520CA
:0E15D0002020434F4E46494720202020200077
:0215DE000E0EEF
:1015E000F66E000EF76E000EF86E00010900F55061
:1015F000976F0900F550986F03E1976701D03DD0D0
:101600000900F550926F0900F550936F0900F550ED
:10161000946F09000900F550E96E0900F550EA6E73
:10162000090009000900F550956F0900F550966F03
:1016300009000900F6CF99F0F7CF9AF0F8CF9BF0A8
:1016400092C0F6FF93C0F7FF94C0F8FF00019553D6
:1016500002E1965307E00900F550EE6E9507F8E2B7
:101660009607F9D799C0F6FF9AC0F7FF9BC0F8FF1D
:0C16700000019707000E985BBFD7120026
:04167C00006A0EAE44
:1016800044EF0BF00E6C001E09AE49EF0BF0096C35
:10169000001E24EC0CF009BE53EF0BF000AE000C62
:1016A000096C056C000C00BE50EF0BF00188FF0CBC
:1016B000006A0EAE61EF0BF00D6C0E1EE86A0E2292
:1016C000001E09AE69EF0BF0086C091EE86A0922DA
:1016D000001ED2EC0BF009BE79EF0BF000AE000C4F
:1016E000086C091EE86A0922046C051EE86A0522D6
:0C16F000000C00BE70EF0BF00188FF0C36
:0416FC00D9CFE6FF5D
:10170000DACFE6FFE1CFD9FFE2CFDAFFFD0EDB5003
:10171000C96EC6AE02D0FF0E24D00F0EC614080844
:101720000FE00F0EC6140B080BE0C6889EA6FED76E
:10173000C750040B03E1C750010B10E0000E11D09D
:101740000F0EC614080804E00F0EC6140B0809E1BA
:10175000C7B0FED73DEC0CF0C5AC02D0FE0E01D0F8
:0E176000000EE552E5CFDAFFE7CFD9FF120009
:02176E00D9CFD1
:10177000E6FFDACFE6FFE1CFD9FFE2CFDAFF3F0E97
:10178000C716C66AC56AFD0EDB50C612FC0EDB50DA
:10179000C71293829380C68AE552E5CFDAFFE7CF7E
:0417A000D9FF12005B
:0C17A400056A046A100EE76ED890083643
:1017B0000936043605360D50045C0E50055805E315
:1017C0000D50045E0E50055A082AE72EF0D712007D
:1017D000FF0EE350146E480E01D04C0EE76EE72E5C
:1017E000FED7E76AE72EFED7142EF7D700001200C7
:1017F000000EF36E00EE00F0080E01D81200EA6051
:1018000002D0EE6AFCD7F350E9601200EE6AFCD712
:1018100013EE00F023EE00F0F86A019CEFEC0AF002
:0C18200003EC00F0E3EC09F0FBD7120031
:04182C00FF0EE35078
:10183000146E1B0E00D001D0200EE76EE72EFED7EF
:08184000142EFAD700D01200AB
:08184800056A080EE76ED89056
:10185000093605360E50055C02E3056E092AE72EAF
:04186000F7D71200A4
:0C186400FF0EE350E84E1200000000D020
:0A18700000D000D0E82EFAD71200D5
:06187A001F0EC514FDE184
:08188000C750040BFAE112004D
:08188800000000000000000058
:10189000000000000100ECE8F4011200FF02AA02BF
:1018A0000002DB026602393B170030306830306DD1
:0A18B000696E3030736563000000BC
:020000040030CA
:010001000CF2
:010002001EDF
:010003001EDE
:0100050003F7
:010006008178
:00000001FF
