:020000040000FA
:0600000063EF12F0120094
:020006001200E6
:060008008FEF05F012006D
:02000E000100EF
:0C0010003E2500006000000042000000DF
:04001C00D9CFE6FF53
:10002000E1CFD9FFE65298EC12F0C580C5B0FED7FB
:1000300098EC12F04E0EE66EB3EC11F0E552FE0EA7
:10004000DB50F00BDF6E0C0EDF10DF6E98EC12F061
:10005000DFCFE6FFB3EC11F0E552010EE66E8DEC5A
:1000600012F0E552F80EDF14DF6E98EC12F0DFCFDD
:10007000E6FFB3EC11F0E552FE0EDB38F00BF00BAF
:10008000DF6E0C0EDF10DF6E98EC12F0DFCFE6FFB4
:10009000B3EC11F0E552010EE66E8DEC12F0E55274
:1000A000F80EDF14DF6E98EC12F0DFCFE6FFB3EC52
:1000B00011F0E55298EC12F0C584C5B4FED7050ED8
:1000C000E66E43EC12F0E552E552E552E7CFD9FF78
:1000D0001200140EE66E43EC12F0E552300EE66E9E
:1000E0009DDFE552050EE66E43EC12F0E552300E50
:1000F000E66E94DFE552020EE66E71EC12F0E55208
:10010000300EE66E8BDFE552020EE66E87DFE552BB
:10011000280EE66E83DFE552060EE66E7FDFE552BF
:100120000C0EE66E7BDFE552010EE66E77DFE552E0
:100130001200D9CFE6FFE1CFD9FFE65298EC12F0DA
:10014000C580C5B0FED798EC12F04E0EE66EB3EC4B
:1001500011F0E552FE0EDB50F00BDF6E0D0EDF10DE
:10016000DF6E98EC12F0DFCFE6FFB3EC11F0E55252
:100170000A0EE66E8DEC12F0E552F90EDF14DF6E1A
:1001800098EC12F0DFCFE6FFB3EC11F0E552FE0E73
:10019000DB38F00BF00BDF6E0D0EDF10DF6E98EC2E
:1001A00012F0DFCFE6FFB3EC11F0E5520A0EE66E77
:1001B0008DEC12F0E552F90EDF14DF6E98EC12F0C0
:1001C000DFCFE6FFB3EC11F0E55298EC12F0C584F6
:1001D000C5B4FED7050EE66E43EC12F0E552E552CB
:1001E000E552E7CFD9FF1200D9CFE6FFE1CFD9FF23
:1001F000FD0EDBCFF6FFFE0EDBCFF7FF0800F5505C
:1002000011E0FD0EDBCFF6FFFE0EDBCFF7FF08009F
:10021000F550E66E8EDFE552FD0EDB2AFE0E01E3A1
:10022000DB2AE6D7E552E7CFD9FF1200D9CFE6FFA8
:10023000E1CFD9FF030EE126FD0EDBCFDEFFDBCFE2
:10024000DDFF020EDB6AD9CFE9FFDACFEAFF0A0E43
:100250000D6E0E6AEECF08F0EDCF09F0ECEC11F068
:1002600008C0EEFF09C0EDFF020EDB2AD9CFE9FF7F
:10027000DACFEAFFEE50ED10E6E1020EDB50106E31
:10028000030EE15C03E200D0E16AE552E16E10503A
:10029000E552E7CFD9FF1200D9CFE6FFE1CFD9FF72
:1002A000040EE126DE6ADD6AFD0EDBCF08F0FE0EED
:1002B000DBCF09F0020E08C0DBFF030E09C0DBFF35
:1002C000040EE66EABDEE552FD0EDBCFE6FFFE0E62
:1002D000DBCFE6FFABDFE552E552DE6EDD6ADECF57
:1002E00010F0DDCF11F0113404E210500008000EC0
:1002F00011542FE2020EDBCF10F0030EDBCF11F012
:100300000A0E0D6E0E6A10C008F011C009F02DEC37
:1003100012F004C010F005C011F0300E1024E66E8B
:1003200008DFE552D950020FE96EDACFEAFF0A0E74
:100330000D6E0E6AEECF08F0EDCF09F02DEC12F045
:1003400008C0EEFF09C0EDFFDF06010E01E2DB068B
:10035000C6D7060EE66E62DEE552040EE15C02E2EE
:10036000E16AE552E16EE552E7CFD9FF1200D9CF3D
:10037000E6FFE1CFD9FFE652DF6AFE0EDB50030A4B
:1003800016E0010A0FE0030A08E0010A01E014D0B8
:10039000FD0EDB50800FDF6E0FD0FD0EDB50C00F67
:1003A000DF6E0AD0FD0EDB50940FDF6E05D0FD0E20
:1003B000DB50D40FDF6E00D0DF5004E0DFCFE6FF6C
:1003C0002DDEE552E552E552E7CFD9FF1200E66A8D
:1003D000E66ACDDFE552E552B30EE66E220EE66E1A
:1003E00003DFE552E552E66A010EE66EC0DFE55234
:1003F000E5529E0EE66E220EE66EF6DEE552E55200
:10040000E66A020EE66EB3DFE552E552890EE66E4D
:10041000220EE66EE9DEE552E552E66A030EE66E6E
:10042000A6DFE552E552740EE66E220EE66EDCDEC5
:10043000E552E5521200010E0001605D3BE3010E42
:10044000E66EECDDE552E66AE66A91DFE552E552DA
:100450005F0EE66E220EE66EC7DEE552E552E66AF4
:10046000010EE66E84DFE552E5524A0EE66E220E7C
:10047000E66EBADEE552E552E66A020EE66E77DF18
:10048000E552E552350EE66E220EE66EADDEE55221
:10049000E552E66A030EE66E6ADFE552E552200E8B
:1004A000E66E220EE66EA0DEE552E55200016051D6
:1004B00001E0FCD7010EE66EB1DDE552E66AE66AC0
:1004C00056DFE552E5520B0EE66E220EE66E8CDE2E
:1004D000E552E552E66A010EE66E49DFE552E55265
:1004E000F60EE66E210EE66E7FDEE552E552E66A16
:1004F000020EE66E3CDFE552E552E10EE66E210E9D
:10050000E66E72DEE552E552E66A030EE66E2FDF16
:10051000E552E552CC0EE66E210EE66E65DEE55242
:10052000E5521200010EE66E79DDE552E66AE66AF2
:100530001EDFE552E552B70EE66E210EE66E54DE82
:10054000E552E552E66A010EE66E11DFE552E5522C
:10055000A20EE66E210EE66E47DEE552E552E66A31
:10056000020EE66E04DFE552E5528D0EE66E210EB8
:10057000E66E3ADEE552E5521200010EE66E4EDD01
:10058000E552E66AE66AF3DEE552E552780EE66E7B
:10059000210EE66E29DEE552E552E66A010EE66EB0
:1005A000E6DEE552E552630EE66E210EE66E1CDED7
:1005B000E552E552E66A020EE66ED9DEE552E552F4
:1005C0004E0EE66E210EE66E0FDEE552E55212008B
:1005D000010EE66E23DDE552E66AE66AC8DEE55204
:1005E000E552390EE66E210EE66EFEDDE552E5526D
:1005F000E66A010EE66EBBDEE552E552240EE66EBB
:10060000210EE66EF1DDE552E552E66A020EE66E77
:10061000AEDEE552E5524E0EE66E210EE66EE4DDEC
:10062000E552E5521200010EE66EF8DCE552E66A8C
:10063000E66A9DDEE552E5520F0EE66E210EE66E8D
:10064000D3DDE552E552E66A010EE66E90DEE55234
:10065000E552FA0EE66E200EE66EC6DDE552E55274
:10066000E66A020EE66E83DEE552E552E50EE66EC0
:10067000200EE66EB9DDE552E552E66A030EE66E3F
:1006800076DEE552E5524E0EE66E210EE66EACDDEC
:10069000E552E5521200010EE66EC0DCE552E66A54
:1006A000E66A65DEE552E552D00EE66E200EE66E95
:1006B0009BDDE552E552E66A010EE66E58DEE55234
:1006C000E552BB0EE66E200EE66E8EDDE552E5527B
:1006D000E66A020EE66E4BDEE552E5524E0EE66E1F
:1006E000210EE66E81DDE552E5521200400EE66E07
:1006F00095DCE552040EE66E1CDDE5521B0EE66E3F
:1007000018DDE552110EE66E14DDE552110EE66EAF
:1007100010DDE552110EE66E0CDDE552110EE66EAF
:1007200008DDE5521F0EE66E04DDE5521F0EE66E93
:1007300000DDE5521200400EE66E70DCE552040E5C
:10074000E66EF7DCE5520E0EE66EF3DCE552E66A85
:10075000F0DCE552E66AEDDCE552010EE66EE9DC1E
:10076000E552130EE66EE5DCE5521E0EE66EE1DCA8
:10077000E552E66ADEDCE5521200400EE66E4EDC23
:10078000E552040EE66ED5DCE5520E0EE66ED1DCC7
:10079000E552E66ACEDCE552E66ACBDCE552100EA5
:1007A000E66EC7DCE552190EE66EC3DCE5520F0EAD
:1007B000E66EBFDCE552E66ABCDCE5521200BBDF48
:1007C000DCDF76EF03F0D9CFE6FFE1CFD9FFFE0EF5
:1007D000DB500F0BF36EF346F346C30EC214F31057
:1007E000C26E010EE66E71EC12F0E552C282C2B228
:1007F000FED7C3CFF3FFC4CFF4FF00D0E552E7CF5D
:10080000D9FF1200D9CFE6FFE1CFD9FF020EE126D2
:10081000DF6A050EDF5C4FE2010EDB6AEA6ADF3455
:10082000FE0BEA36E96E950EE926000EEA22EECFBF
:1008300010F0EFCF11F0050E105E000E115A0001FE
:100840001050A45D1150A5592BE3EA6ADF34FE0B6A
:10085000EA36E96E950EE926000EEA22EECF12F096
:10086000EFCF13F0050E1226000E1322A451125CD6
:10087000A551135815E3DE52010EDD6EDB5010E07A
:10088000DF50EA6A790FE96E000EEA22EF5008E1C4
:10089000DF50EA6A7E0FE96E000EEA22010EEF6E6B
:1008A000DF50EA6A790FE96E000EEA22010EDBCF13
:1008B000EFFFDF2AAED7020EE15C02E2E16AE55209
:1008C000E16EE552E7CFD9FF1200E66A7CDFE55220
:1008D000F3CFA4F0F4CFA5F00001A26B95C010F007
:1008E00096C011F0050E105E000E115A1050A45D56
:1008F0001150A55916E3050E0001136A9525126ED5
:10090000965113220001A451125CA551135809E31A
:10091000010EA26FA25105E00001795102E1010E22
:100920007E6FA2C079F01200E66A4DDFE552F3CF88
:10093000A4F0F4CFA5F00001A26B97C010F098C00E
:1009400011F0050E105E000E115A1050A45D1150EA
:10095000A55916E3050E0001136A9725126E9851EA
:1009600013220001A451125CA551135809E3010E92
:10097000A26FA25105E000017A5102E1010E7F6FE2
:10098000A2C07AF01200E66A1EDFE552F3CFA4F0AF
:10099000F4CFA5F00001A26B99C010F09AC011F03D
:1009A000050E105E000E115A1050A45D1150A5598D
:1009B00016E3050E0001136A9925126E9A5113224F
:1009C0000001A451125CA551135809E3010EA26F56
:1009D000A25105E000017B5102E1010E806FA2C02F
:1009E0007BF01200E66AEFDEE552F3CFA4F0F4CF1D
:1009F000A5F00001A26B9BC010F09CC011F0050E89
:100A0000105E000E115A1050A45D1150A55916E346
:100A1000050E0001136A9B25126E9C5113220001E2
:100A2000A451125CA551135809E3010EA26FA25103
:100A300005E000017C5102E1010E816FA2C07CF053
:100A40001200E66AC0DEE552F3CFA4F0F4CFA5F0C1
:100A50000001A26B9DC010F09EC011F0050E105E4B
:100A6000000E115A1050A45D1150A55916E3050E41
:100A70000001136A9D25126E9E5113220001A4519C
:100A8000125CA551135809E3010EA26FA25105E0B3
:100A900000017D5102E1010E826FA2C07DF01200C3
:100AA000E66A91DEE552F3CFA4F0F4CFA5F002EFB1
:100AB00004F0D9CFE6FFE1CFD9FFE652DF6A050E99
:100AC000DF5C09E2DF50EA6A7E0FE96E000EEA227F
:100AD000EF6ADF2AF4D7E552E552E7CFD9FF1200DB
:100AE000D9CFE6FFE1CFD9FFD950FD0FE96EFF0E58
:100AF000DA20EA6E000ED880EE54000EED540BE2C0
:100B00000A0EE66E71EC12F0E552FD0EDB06FE0EEB
:100B100001E2DB06E9D7E552E7CFD9FF1200DACFD1
:100B2000E4FFE2CFDAFFE9CFE4FFEACFE4FFF6CF5C
:100B3000E4FFF7CFE4FFF5CFE4FFF3CFE4FFF4CF1A
:100B4000E4FFFACFE4FF00EE00F0100EE80403E348
:100B5000EECFE4FFFBD700EE10F0040EE80403E351
:100B6000EECFE4FFFBD7E652F2A429D00001872B99
:100B7000855102E0000E01D0010E856F020E875DE7
:100B80001DE1876B6051000801E260079F07000EBE
:100B9000A05B892B3C0E895D11E1896B8B2B3C0E90
:100BA0008B5D0CE18B6B8D2B180E8D5D07E18D6BD2
:100BB000060E8F5D02E18F6B01D08F2B42D8E5527C
:100BC00000EE13F0040EE80403E3E5CFEDFFFBD7DE
:100BD00000EE0FF0100EE80403E3E5CFEDFFFBD7C6
:100BE000E5CFFAFFE5CFF4FFE5CFF3FFE5CFF5FF63
:100BF000E5CFF7FFE5CFF6FFE5CFEAFFE5CFE9FF69
:100C0000E5CFDAFF1100D09EF28EF28CF28A12004C
:100C1000CD8ECD8CCD9ACD98CD86CD94CD92CD80F4
:100C200012EF06F09E90C00ECF6ECE6A1200D58EE7
:100C3000D59CD59AD598D596D594D582D58021EFD7
:100C400006F0F294850ED76EEE0ED66E12000A0EE6
:100C5000106E10C00EF08DC009F07FEC12F0055040
:100C6000300F0001626F0A0E106E10C00EF08DC0C2
:100C700009F07FEC12F00950300F0001616F0A0E8D
:100C8000106E10C00EF08BC009F07FEC12F0055012
:100C9000300F0001656F0A0E106E10C00EF08BC091
:100CA00009F07FEC12F00950300F0001646F0A0E5A
:100CB000106E10C00EF089C009F07FEC12F00550E4
:100CC000300F00016A6F0A0E106E10C00EF089C05E
:100CD00009F07FEC12F00950300F0001696F12002B
:100CE000D9CFE6FFE1CFD9FFE652DF6A040EE66E08
:100CF000010EE66EB7EC01F0E552E552DF6A0E0E2A
:100D0000DF5C0DE2DF50EA6A610FE96E000EEA2255
:100D1000EF50E66E99EC00F0E552DF2AF0D7E66A74
:100D2000020EE66EB7EC01F0E552E55200018F517C
:100D3000060A4BE0030A40E0010A35E0070A2AE010
:100D4000010A1FE0030A14E0010A09E00C0EE66E36
:100D5000200EE66EF4EC00F0E552E5523FD09F0E17
:100D6000E66E200EE66EF4EC00F0E552E55236D069
:100D70008A0EE66E200EE66EF4EC00F0E552E552C7
:100D80002DD0750EE66E200EE66EF4EC00F0E55206
:100D9000E55224D0600EE66E200EE66EF4EC00F014
:100DA000E552E5521BD04B0EE66E200EE66EF4ECDB
:100DB00000F0E552E55212D0360EE66E200EE66ED9
:100DC000F4EC00F0E552E55209D0210EE66E200E5B
:100DD000E66EF4EC00F0E552E55200D0E552E55243
:100DE000E7CFD9FF12000001855106E03E0EE66E06
:100DF00099EC00F0E55205D0200EE66E99EC00F07B
:100E0000E55212000001846B0C0E836F00017F51CC
:100E100001E081D0B8DD15DE87DD020E00018325FB
:100E2000E66EE66AB7EC01F0E552E55200018D513D
:100E3000E66EE66A4CEC01F0E552E552020E000166
:100E40008325E66E010EE66EB7EC01F0E552E55241
:100E500000018B51E66EE66A4CEC01F0E552E5527A
:100E6000020E00018325E66E020EE66EB7EC01F07D
:100E7000E552E55200018951E66EE66A4CEC01F05C
:100E8000E552E5520001805115E0806B83C0E6FF1A
:100E900084C0E6FFB7EC01F0E552E552200EE66EA5
:100EA00099EC00F0E5520001845103E1020E846FD9
:100EB00001D08407825115E0826B83C0E6FF84C0B5
:100EC000E6FFB7EC01F0E552E552200EE66E99EC34
:100ED00000F0E552020E0001845D02E1846B01D056
:100EE000842B130EE66E030EE66EB7EC01F0E552AE
:100EF000E55200018651E66EE66A4CEC01F0E552DF
:100F0000E55283C0E6FF84C0E6FFB7EC01F0E5528E
:100F1000E55269DF7BD7CDDD0001010E846F836B65
:100F20001200CA9CCA9ACA98CA96CA84CA92CA901F
:100F30009E92640ECB6EBD9ABD98BD86BD84BD9257
:100F4000BD901E0EBE6E1200A6C010F0A7C011F01C
:100F50000A0E0D6E0E6A10C008F011C009F02DECDB
:100F600012F004C010F005C011F0300E1024000182
:100F7000716FA6C010F0A7C011F00A0E0D6E0E6AB8
:100F800010C008F011C009F02DEC12F008C010F0EC
:100F900009C011F00A0E0D6E0E6A10C008F011C0E3
:100FA00009F02DEC12F004C010F005C011F0300E65
:100FB00010240001706FA6C010F0A7C011F00A0E37
:100FC0000D6E0E6A10C008F011C009F02DEC12F081
:100FD00008C010F009C011F00A0E0D6E0E6A10C0A4
:100FE00008F011C009F02DEC12F008C010F009C093
:100FF00011F0300E102400016F6FA8C010F0A9C0CE
:1010000011F00A0E0D6E0E6A10C008F011C009F042
:101010002DEC12F004C010F005C011F0300E1024B9
:101020000001756FA8C010F0A9C011F00A0E0D6E76
:101030000E6A10C008F011C009F02DEC12F008C0C3
:1010400010F009C011F00A0E0D6E0E6A10C008F003
:1010500011C009F02DEC12F004C010F005C011F021
:10106000300E10240001746FA8C010F0A9C011F058
:101070000A0E0D6E0E6A10C008F011C009F02DECBA
:1010800012F008C010F009C011F00A0E0D6E0E6AC1
:1010900010C008F011C009F02DEC12F008C010F0DB
:1010A00009C011F0300E10240001736F120000010E
:1010B000845103E1010E866F16D0845106E1080EBB
:1010C000835D03E1020E866F0ED0840505E1835136
:1010D00003E1030E866F07D0840505E1080E835DEA
:1010E00002E1040E866F1200010EE66E0EEC00F0B7
:1010F000E55200018451030A0DE0010A09E0030AE8
:1011000005E0010A01E009D00AD807D030D905D09E
:101110007FDA03D084EC0CF000D059EF05F0BDEC81
:1011200002F00001846B836B83C0E6FF84C0E6FF9E
:10113000B7EC01F0E552E55291C0A6F092C0A7F0DD
:1011400093C0A8F094C0A9F00001A35101E001D11F
:101150001ADC77DC47DC94EC04F065EC04F0F4DE98
:101160000001886B030E885D2DE20F0E8825E66E68
:10117000E66AB7EC01F0E552E55200018851EA6AEF
:101180006F0FE96E000EEA22EF50E66E99EC00F068
:10119000E5520F0E00018825E66E010EE66EB7ECF3
:1011A00001F0E552E55200018851EA6A730FE96ED9
:1011B000000EEA22EF50E66E99EC00F0E5520001D5
:1011C000882BD0D7805115E074DC83C0E6FF84C043
:1011D000E6FFB7EC01F0E552E552200EE66E99EC21
:1011E00000F0E5520001845103E1020E846F01D04A
:1011F0008407825115E05DDC83C0E6FF84C0E6FF12
:10120000B7EC01F0E552E552200EE66E99EC00F0E5
:10121000E552020E0001845D02E1846B01D0842B53
:101220008451020A47E0030A24E0010A01E087D062
:101230007F510BE03EDC0001A651A71103E1A66B34
:10124000A76B03D0A607000EA75B0001815110E039
:1012500030DCE70E0001A61902E1030EA71905E133
:10126000E70EA66F030EA76F03D0A62B000EA723D1
:1012700066D07F510BE01DDC0001A851A91103E1EC
:10128000A86BA96B03D0A807000EA95B00018151D0
:1012900010E00FDCE70E0001A81902E1030EA91906
:1012A00005E1E70EA86F030EA96F03D0A82B000E6F
:1012B000A92345D07F5117E059EC05F083C0E6FF24
:1012C00084C0E6FFB7EC01F0E552E552200EE66E71
:1012D00099EC00F0E5520001835103E10B0E836F9E
:1012E00002D00B0E835F815117E059EC05F083C0EB
:1012F000E6FF84C0E6FFB7EC01F0E552E552200EB0
:10130000E66E99EC00F0E5520B0E0001835D02E100
:10131000836B02D00B0E83277E5110E059EC05F051
:101320000001010EA36F0001835108E1A6C091F0F6
:10133000A7C092F0A8C093F0A9C094F000D083C0D9
:10134000E6FF84C0E6FFB7EC01F0E552E5524BDD65
:10135000FBD60001846B836B0001A36B59EC05F095
:10136000010EE66E0EEC00F0E552E7EF01F0E8EC5E
:1013700002F00001846B836B83C0E6FF84C0E6FF4C
:10138000B7EC01F0E552E552AAC0ACF0ABC0ADF04D
:10139000AEC0B0F0AFC0B1F00001A35101E029D15F
:1013A000C3EC04F021EC05F0F2EC04F094EC04F052
:1013B00065EC04F0120EE66EE66AB7EC01F0E55259
:1013C000E552ACC0E6FFADC0E6FF4CEC01F0E552E3
:1013D000E552120EE66E010EE66EB7EC01F0E55234
:1013E000E552B0C0E6FFB1C0E6FF4CEC01F0E552BB
:1013F000E5520001805116E059EC05F083C0E6FF8C
:1014000084C0E6FFB7EC01F0E552E552200EE66E2F
:1014100099EC00F0E5520001845103E1020E846F63
:1014200001D08407825116E059EC05F083C0E6FF35
:1014300084C0E6FFB7EC01F0E552E552200EE66EFF
:1014400099EC00F0E552020E0001845D02E1846B2C
:1014500001D0842B8451020A01E17BD0030A3EE0D3
:10146000010A01E0BBD07F511AE059EC05F083C0BE
:10147000E6FF84C0E6FFB7EC01F0E552E552200E2E
:10148000E66E99EC00F0E5520001AC51AD1104E1BB
:10149000630EAC6FAD6B03D0AC07000EAD5B00010B
:1014A00081511BE059EC05F083C0E6FF84C0E6FFE4
:1014B000B7EC01F0E552E552200EE66E99EC00F033
:1014C000E5520001630EAC1901E1AD5103E1AC6BD3
:1014D000AD6B03D0AC2B000EAD2380D07F511AE052
:1014E00059EC05F083C0E6FF84C0E6FFB7EC01F0DD
:1014F000E552E552200EE66E99EC00F0E55200014F
:10150000B051B11104E1630EB06FB16B03D0B007FD
:10151000000EB15B000181511BE059EC05F083C066
:10152000E6FF84C0E6FFB7EC01F0E552E552200E7D
:10153000E66E99EC00F0E5520001630EB01901E18E
:10154000B15103E1B06BB16B03D0B02B000EB123EE
:1015500045D07F5117E059EC05F083C0E6FF84C009
:10156000E6FFB7EC01F0E552E552200EE66E99EC8D
:1015700000F0E5520001835103E10B0E836F02D0AE
:101580000B0E835F815117E059EC05F083C0E6FF35
:1015900084C0E6FFB7EC01F0E552E552200EE66E9E
:1015A00099EC00F0E5520B0E0001835D02E1836BC4
:1015B00002D00B0E83277E5110E059EC05F000019C
:1015C000010EA36F0001835108E1B0C0AEF0B1C0BD
:1015D000AFF0ACC0AAF0ADC0ABF000D083C0E6FF66
:1015E00084C0E6FFB7EC01F0E552E552F3EC06F0FB
:1015F000D3D60001010E846F836B0001A36B59ECFD
:1016000005F0010EE66E0EEC00F0E552E7EF01F09A
:1016100013EC03F00001846B836B83C0E6FF84C08E
:10162000E6FFB7EC01F0E552E55289C08AF08BC0C5
:101630008CF08DC08EF00001A35101E056D1C3ECB7
:1016400004F021EC05F0F2EC04F094EC04F065EC0D
:1016500004F00E0EE66EE66AB7EC01F0E552E552D4
:1016600000018E51E66EE66A4CEC01F0E552E5525F
:101670000E0EE66E010EE66EB7EC01F0E552E55295
:1016800000018C51E66EE66A4CEC01F0E552E55241
:101690000E0EE66E020EE66EB7EC01F0E552E55274
:1016A00000018A51E66EE66A4CEC01F0E552E55223
:1016B0000001805116E059EC05F083C0E6FF84C0BC
:1016C000E6FFB7EC01F0E552E552200EE66E99EC2C
:1016D00000F0E5520001845103E1030E846F01D054
:1016E0008407825116E059EC05F083C0E6FF84C000
:1016F000E6FFB7EC01F0E552E552200EE66E99ECFC
:1017000000F0E552030E0001845D02E1846B01D01C
:10171000842B8451030A01E19AD0010A67E0030A8D
:1017200034E0010A01E0D6D07F5116E059EC05F013
:1017300083C0E6FF84C0E6FFB7EC01F0E552E55256
:10174000200EE66E99EC00F0E55200018E5103E1A7
:10175000180E8E6F01D08E07815116E059EC05F0FE
:1017600083C0E6FF84C0E6FFB7EC01F0E552E55226
:10177000200EE66E99EC00F0E552180E00018E5D29
:1017800002E18E6B01D08E2BA5D07F5116E059EC73
:1017900005F083C0E6FF84C0E6FFB7EC01F0E55238
:1017A000E552200EE66E99EC00F0E55200018C51F6
:1017B00003E13C0E8C6F01D08C07815116E059EC8F
:1017C00005F083C0E6FF84C0E6FFB7EC01F0E55208
:1017D000E552200EE66E99EC00F0E5523C0E000159
:1017E0008C5D02E18C6B01D08C2B74D07F5116E0A4
:1017F00059EC05F083C0E6FF84C0E6FFB7EC01F0CA
:10180000E552E552200EE66E99EC00F0E55200013B
:101810008A5103E13C0E8A6F01D08A07815116E09C
:1018200059EC05F083C0E6FF84C0E6FFB7EC01F099
:10183000E552E552200EE66E99EC00F0E5523C0EC2
:1018400000018A5D02E18A6B01D08A2B43D07F516F
:1018500017E059EC05F083C0E6FF84C0E6FFB7EC63
:1018600001F0E552E552200EE66E99EC00F0E552EB
:101870000001835103E10B0E836F02D00B0E835FD7
:10188000815117E059EC05F083C0E6FF84C0E6FF04
:10189000B7EC01F0E552E552200EE66E99EC00F04F
:1018A000E5520B0E0001835D02E1836B02D00B0E4B
:1018B00083277E510EE059EC05F00001010EA36F65
:1018C0000001835106E18EC08DF08CC08BF08AC080
:1018D00089F000D083C0E6FF84C0E6FFB7EC01F0DA
:1018E000E552E552F3EC06F0A6D60001020E846F35
:1018F000836B0001A36B59EC05F0010EE66E0EEC54
:1019000000F0E552E7EF01F04BEC03F00001010EAF
:10191000846F836B83C0E6FF84C0E6FFB7EC01F001
:10192000E552E5528FC090F00001A35101E00BD1C8
:10193000C3EC04F021EC05F0F2EC04F094EC04F0BC
:1019400065EC04F00D0EE66E010EE66EB7EC01F0EC
:10195000E552E55200019051E66EE66A4CEC01F06A
:10196000E552E5520E0EE66E010EE66EB7EC01F0A2
:10197000E552E55200019051060A43E0030A38E0BF
:10198000010A2DE0070A22E0010A17E0030A0CE031
:10199000010A01E03FD0070EE66E200EE66EF4EC81
:1019A00000F0E552E55236D0020EE66E200EE66EED
:1019B000F4EC00F0E552E5522DD0FD0EE66E1F0E60
:1019C000E66EF4EC00F0E552E55224D0F80EE66E37
:1019D0001F0EE66EF4EC00F0E552E5521BD0F30E5C
:1019E000E66E1F0EE66EF4EC00F0E552E55212D002
:1019F000EE0EE66E1F0EE66EF4EC00F0E552E552D8
:101A000009D0E90EE66E1F0EE66EF4EC00F0E5522A
:101A1000E55200D00001805116E059EC05F083C07A
:101A2000E6FF84C0E6FFB7EC01F0E552E552200E78
:101A3000E66E99EC00F0E5520001840503E1020E28
:101A4000846F01D08407825117E059EC05F083C000
:101A5000E6FF84C0E6FFB7EC01F0E552E552200E48
:101A6000E66E99EC00F0E552020E0001845D03E1A0
:101A7000010E846F01D0842B8451020A1AE0030AFC
:101A800001E056D07F5109E059EC05F0000190517A
:101A900003E1060E906F01D09007815109E059ECE7
:101AA00005F0060E0001905D02E1906B01D0902BD5
:101AB0003FD07F5117E059EC05F083C0E6FF84C0AA
:101AC000E6FFB7EC01F0E552E552200EE66E99EC28
:101AD00000F0E5520001835103E10B0E836F02D049
:101AE0000B0E835F815117E059EC05F083C0E6FFD0
:101AF00084C0E6FFB7EC01F0E552E552200EE66E39
:101B000099EC00F0E5520B0E0001835D02E1836B5E
:101B100002D00B0E83277E510AE059EC05F000013C
:101B2000010EA36F0001835102E190C08FF000D03D
:101B300083C0E6FF84C0E6FFB7EC01F0E552E55252
:101B4000F3EC06F0F1D60001030E846F836B000105
:101B5000A36B59EC05F0010EE66E0EEC00F0E552B9
:101B6000E7EF01F083C0E6FF84C0E6FFB7EC01F0C9
:101B7000E552E552D50EE66E1F0EE66EF4EC00F06F
:101B8000E552E55200017F5107E127EC06F070ECC9
:101B900006F094EC04F0F6D759EF05F0E7EC01F00D
:101BA0000001846B83C0E6FF84C0E6FFB7EC01F060
:101BB000E552E55200017F5148E1C3EC04F021EC0D
:101BC00005F094EC04F065EC04F00001805116E09F
:101BD00059EC05F083C0E6FF84C0E6FFB7EC01F0E6
:101BE000E552E552200EE66E99EC00F0E552000158
:101BF000845103E1030E846F01D08407825116E003
:101C000059EC05F083C0E6FF84C0E6FFB7EC01F0B5
:101C1000E552E552200EE66E99EC00F0E552030E17
:101C20000001845D02E1846B01D0842B7E5102E0CF
:101C300074EC08F083C0E6FF84C0E6FFB7EC01F067
:101C4000E552E552F3EC06F0B5D759EC05F000018A
:101C5000010E846F1200E66AE66AB7EC01F0E55205
:101C6000E552C00EE66E1F0EE66EF4EC00F0E55293
:101C7000E552E66A010EE66EB7EC01F0E552E55278
:101C8000AB0EE66E1F0EE66EF4EC00F0E552E55288
:101C9000E66A020EE66EB7EC01F0E552E552960EEA
:101CA000E66E1F0EE66EF4EC00F0E552E552000120
:101CB0007F5103E194EC04F0FAD759EC05F00001F0
:101CC000020E846F1200E66AE66AB7EC01F0E55294
:101CD000E552810EE66E1F0EE66EF4EC00F0E55262
:101CE000E552E66A010EE66EB7EC01F0E552E55208
:101CF0006C0EE66E1F0EE66EF4EC00F0E552E55257
:101D0000E66A020EE66EB7EC01F0E552E552570EB8
:101D1000E66E1F0EE66EF4EC00F0E552E552E66A60
:101D2000030EE66EB7EC01F0E552E552420EE66EA8
:101D30001F0EE66EF4EC00F0E552E55200017F5113
:101D400003E194EC04F0FAD759EC05F00001030E1E
:101D5000846F120065EC04F000017E511CE059EC28
:101D600005F0010EE66E0EEC00F0E5520001845124
:101D7000030A0DE0010A09E0030A05E0010A01E097
:101D800008D0F0DE06D00ADF04D065DF02D09BDF8A
:101D900000D01BEC02F059EF05F083C0E6FF84C0D1
:101DA000E6FFB7EC01F0E552E552C3EC04F021EC9C
:101DB00005F00001805114E083C0E6FF84C0E6FF17
:101DC000B7EC01F0E552E552200EE66E99EC00F01A
:101DD000E5520001845103E1030E846F01D08407B2
:101DE000825114E083C0E6FF84C0E6FFB7EC01F047
:101DF000E552E552200EE66E99EC00F0E552030E36
:101E00000001845D02E1846B01D0842B83C0E6FF76
:101E100084C0E6FFB7EC01F0E552E552F3EC06F0C2
:101E200059EF05F050EC05F000017F5123E10D0E54
:101E3000E66E010EE66EB7EC01F0E552E55291C098
:101E4000E6FF92C0E6FF4CEC01F0E552E552090EC8
:101E5000E66E010EE66EB7EC01F0E552E55293C076
:101E6000E6FF94C0E6FF4CEC01F0E552E55250EC81
:101E700005F0DAD77F6B030E846F836B2BEF0EF0C8
:101E8000806A896A010E926E816A8A6A030E936E75
:101E9000826A8B6A946E836A8C6A0F0E956E846A6E
:101EA0008D6A966A810EC06E0E0EC16E010EC26EF4
:101EB000070EB46E91EC07F017EC06F003EC06F099
:101EC000800EE66E080EE66E12EC12F0E552E55258
:101ED000090EC86E69EC00F01BEC02F057EC08F03C
:101EE00083880001A151E8B08184E8A08194A151C8
:101EF00002E0000E01D0010EE8B08186E8A08196D4
:101F00004CDF28DF500EBE6E00019F51A01117E17B
:101F1000040E9F6FA06BA15102E0000E01D0010ED4
:101F2000A16FA151E8B08184E8A08194A15102E0A1
:101F3000000E01D0010EE8B08186E8A08196E0D7BE
:021F400012008D
:0E1F42002020204C696D70657A613A20444978
:101F5000415249412020002020203435307833334D
:101F6000307837383020636D2020200020204D65E8
:101F700064696461732064612043616978613A2017
:101F80000020446573656E766F6C7665646F723A97
:101F9000204A4D464A004C494D50455A415320462F
:101FA00045495441533A30302020004D4F544F5250
:101FB00020434F4D503A204F46462D3030252000CB
:101FC0004D4F544F522054414D423A204F46462DDA
:101FD00030302520002D2D2D2D2D2D4341542D4207
:101FE0004F582D2D2D2D2D2D002D534142002D53B9
:101FF0004558002D515549002D515541002D54454E
:1020000052002D534547002D444F4D0020202020E5
:1020100020202020202020202020202020202020C0
:10202000002020202020202053414241444F2020E6
:102030002020202020002020202053455854412DCE
:1020400046454952412020202020002020202051B8
:1020500055494E54412D46454952412020202000EB
:10206000202020205155415254412D46454952418E
:1020700020202020002020202054455243412D467E
:102080004549524120202020200020202053454750
:10209000554E44412D4645495241202020200020E4
:1020A0002020202020444F4D494E474F2020202003
:1020B000202020004F4646004F4E0020204E4F5615
:1020C0004120444154413A2020202020202020005B
:1020D000444520305B444F4D5D204120365B5341E9
:1020E000425D2020002020534547554E444F2E3A54
:1020F0002020202020202020200020204D494E5547
:10210000544F2E2E3A202020202020202020002056
:1021100020484F52412E2E2E2E3A202020202020C3
:1021200020202000202056454C204D4F544F522057
:10213000434F4D503A30302500202056454C204D1D
:102140004F544F522054414D423A30302500202008
:10215000434F4E4649524D4120202043414E434576
:102160004C410020205574696C697A61646F3A2093
:1021700020202020202020002020436170616369FE
:10218000646164653A2020202020202000535052B2
:1021900041595320202020202020202020202020B2
:1021A00020004D4F544F5220434F4D504F525441F9
:1021B000202020202020004D4F544F522054414DCC
:1021C000424F522020202020202020002020534F4A
:1021D0004252452020202020202020202020202086
:1021E0000020204D4F4E49544F52414D454E544FC3
:1021F0002020202020002020434F4E4649475552A2
:1022000041434F45532020202020002020484F4D9F
:1022100045202020202020202020202020202000B9
:10222000204553434F4C4841202D204245204841F2
:1022300050505920002020205041524142454E53D9
:102240002050454C4120202020002042454D205662
:10225000494E444F205553554152494F2020002D9F
:102260002D2D2D2D2D2D4341542D424F582D2D2DEB
:102270002D2D2D00202044415441202020202020BD
:102280002020202020202020002020484F524120C4
:10229000444F2052454C4F47494F202020002020DA
:1022A00056454C4F434944414445204D4F544F52AD
:1022B000455300202053505241592050554946491A
:0822C0004341444F522020006D
:0822C8000E0EF66E000EF76E1B
:1022D000000EF86E00010900F550B76F0900F550C7
:1022E000B86F03E1B76701D03DD00900F550B26F78
:1022F0000900F550B36F0900F550B46F09000900EB
:10230000F550E96E0900F550EA6E09000900090070
:10231000F550B56F0900F550B66F09000900F6CF0A
:10232000B9F0F7CFBAF0F8CFBBF0B2C0F6FFB3C048
:10233000F7FFB4C0F8FF0001B55302E1B65307E060
:102340000900F550EE6EB507F8E2B607F9D7B9C047
:10235000F6FFBAC0F7FFBBC0F8FF0001B707000ED9
:06236000B85BBFD71200BC
:0A236600D9CFE6FFDACFE6FFE1CFA2
:10237000D9FFE2CFDAFFFD0EDB50C96EC6AE02D048
:10238000FF0E24D00F0EC61408080FE00F0EC6145F
:102390000B080BE0C6889EA6FED7C750040B03E1CE
:1023A000C750010B10E0000E11D00F0EC614080824
:1023B00004E00F0EC6140B0809E1C7B0FED798EC75
:1023C00012F0C5AC02D0FE0E01D0000EE552E5CFF2
:0823D000DAFFE7CFD9FF12008C
:0823D800006A0EAEF5EF11F0F2
:1023E0000D6C0E1EE86A0E22001E09AEFDEF11F004
:1023F000086C091EE86A0922001E2DEC12F009BEC5
:102400000DEF12F000AE000C086C091EE86A0922FC
:10241000046C051EE86A0522000C00BE04EF12F0F1
:042420000188FF0C24
:0C242400D9CFE6FFDACFE6FFE1CFD9FF09
:10243000E2CFDAFF3F0EC716C66AC56AFD0EDB5053
:10244000C612FC0EDB50C71293829380C68AE552F7
:0A245000E5CFDAFFE7CFD9FF120055
:06245A00056A046A100E81
:10246000E76ED89008360936043605360D50045C00
:102470000E50055805E30D50045E0E50055A082A0B
:06248000E72EF0D7120068
:0A248600FF0EE350146E480E01D063
:102490004C0EE76EE72EFED7E76AE72EFED7142E26
:0624A000F7D70000120056
:0A24A600000EF36E00EE00F0080EC9
:1024B00001D81200EA6002D0EE6AFCD7F350E9605E
:0624C0001200EE6AFCD7D9
:0A24C60013EE00F023EE00F0F86AB8
:1024D000019C64EC11F003EC00F040EC0FF0FBD732
:0224E0001200E8
:0E24E200FF0EE350146E1B0E00D001D0200E32
:0E24F000E76EE72EFED7142EFAD700D01200AA
:0224FE00056A6D
:10250000080EE76ED890093605360E50055C02E3DA
:0A251000056E092AE72EF7D7120026
:06251A00FF0EE350E84E45
:102520001200000000D000D000D0E82EFAD7120030
:0E2530001F0EC514FDE1C750040BFAE11200A6
:02253E0001306A
:10254000306830306D696E30307365630030303024
:102550000030303000B8B40000000000000000007F
:102560000000000100000026003B001700000000F2
:10257000000000FF02AA020002DB0266020A00005D
:020000040030CA
:010001000CF2
:010002001EDF
:010003001EDE
:0100050003F7
:010006008178
:00000001FF
