:020000040000FA
:0600000034EF0FF01200C6
:020006001200E6
:060008006FEF0AF0120088
:02000E000100EF
:0C001000E01E0000600000003300000053
:04001C00D9CFE6FF53
:10002000E1CFD9FFE65269EC0FF0C580C5B0FED72D
:1000300069EC0FF04E0EE66EAAEC0EF0E552FE0EE5
:10004000DB50F00BDF6E0C0EDF10DF6E69EC0FF093
:10005000DFCFE6FFAAEC0EF0E552010EE66E5EEC95
:100060000FF0E552F80EDF14DF6E69EC0FF0DFCF12
:10007000E6FFAAEC0EF0E552FE0EDB38F00BF00BBB
:10008000DF6E0C0EDF10DF6E69EC0FF0DFCFE6FFE6
:10009000AAEC0EF0E552010EE66E5EEC0FF0E552B2
:1000A000F80EDF14DF6E69EC0FF0DFCFE6FFAAEC8D
:1000B0000EF0E55269EC0FF0C584C5B4FED7050E0D
:1000C000E66E14EC0FF0E552E552E552E7CFD9FFAA
:1000D0001200140EE66E14EC0FF0E552300EE66ED0
:1000E0009DDFE552050EE66E14EC0FF0E552300E82
:1000F000E66E94DFE552020EE66E42EC0FF0E5523A
:10010000300EE66E8BDFE552020EE66E87DFE552BB
:10011000280EE66E83DFE552060EE66E7FDFE552BF
:100120000C0EE66E7BDFE552010EE66E77DFE552E0
:100130001200D9CFE6FFE1CFD9FFE65269EC0FF00C
:10014000C580C5B0FED769EC0FF04E0EE66EAAEC86
:100150000EF0E552FE0EDB50F00BDF6E0D0EDF10E1
:10016000DF6E69EC0FF0DFCFE6FFAAEC0EF0E55290
:100170000A0EE66E5EEC0FF0E552F90EDF14DF6E4C
:1001800069EC0FF0DFCFE6FFAAEC0EF0E552FE0EB1
:10019000DB38F00BF00BDF6E0D0EDF10DF6E69EC5D
:1001A0000FF0DFCFE6FFAAEC0EF0E5520A0EE66E86
:1001B0005EEC0FF0E552F90EDF14DF6E69EC0FF024
:1001C000DFCFE6FFAAEC0EF0E55269EC0FF0C58434
:1001D000C5B4FED7050EE66E14EC0FF0E552E552FD
:1001E000E552E7CFD9FF1200D9CFE6FFE1CFD9FF23
:1001F000FD0EDBCFF6FFFE0EDBCFF7FF0800F5505C
:1002000011E0FD0EDBCFF6FFFE0EDBCFF7FF08009F
:10021000F550E66E8EDFE552FD0EDB2AFE0E01E3A1
:10022000DB2AE6D7E552E7CFD9FF1200D9CFE6FFA8
:10023000E1CFD9FF030EE126FD0EDBCFDEFFDBCFE2
:10024000DDFF020EDB6AD9CFE9FFDACFEAFF0A0E43
:100250000D6E0E6AEECF08F0EDCF09F084EC0EF0D3
:1002600008C0EEFF09C0EDFF020EDB2AD9CFE9FF7F
:10027000DACFEAFFEE50ED10E6E1020EDB50106E31
:10028000030EE15C03E200D0E16AE552E16E10503A
:10029000E552E7CFD9FF1200D9CFE6FFE1CFD9FF72
:1002A000040EE126DE6ADD6AFD0EDBCF08F0FE0EED
:1002B000DBCF09F0020E08C0DBFF030E09C0DBFF35
:1002C000040EE66EABDEE552FD0EDBCFE6FFFE0E62
:1002D000DBCFE6FFABDFE552E552DE6EDD6ADECF57
:1002E00010F0DDCF11F0113404E210500008000EC0
:1002F00011542FE2020EDBCF10F0030EDBCF11F012
:100300000A0E0D6E0E6A10C008F011C009F0FEEC66
:100310000EF004C010F005C011F0300E1024E66E8F
:1003200008DFE552D950020FE96EDACFEAFF0A0E74
:100330000D6E0E6AEECF08F0EDCF09F0FEEC0EF078
:1003400008C0EEFF09C0EDFFDF06010E01E2DB068B
:10035000C6D7060EE66E62DEE552040EE15C02E2EE
:10036000E16AE552E16EE552E7CFD9FF1200D9CF3D
:10037000E6FFE1CFD9FFE652DF6AFE0EDB50030A4B
:1003800016E0010A0FE0030A08E0010A01E014D0B8
:10039000FD0EDB50800FDF6E0FD0FD0EDB50C00F67
:1003A000DF6E0AD0FD0EDB50940FDF6E05D0FD0E20
:1003B000DB50D40FDF6E00D0DF5004E0DFCFE6FF6C
:1003C0002DDEE552E552E552E7CFD9FF1200010ECE
:1003D0000001605D3BE3010EE66E20DEE552E66A59
:1003E000E66AC5DFE552E552210EE66E1C0EE66EAA
:1003F000FBDEE552E552E66A010EE66EB8DFE55235
:10040000E5520C0EE66E1C0EE66EEEDEE552E5528F
:10041000E66A020EE66EABDFE552E552F70EE66ED7
:100420001B0EE66EE1DEE552E552E66A030EE66E6D
:100430009EDFE552E552E20EE66E1B0EE66ED4DE5E
:10044000E552E5520001605101E0FCD7010EE66E75
:10045000E5DDE552E66AE66A8ADFE552E552CD0E51
:10046000E66E1B0EE66EC0DEE552E552E66A010E50
:10047000E66E7DDFE552E552B80EE66E1B0EE66EC7
:10048000B3DEE552E552E66A020EE66E70DFE55233
:10049000E552A30EE66E1B0EE66EA6DEE552E552B1
:1004A000E66A030EE66E63DFE552E5528E0EE66EF7
:1004B0001B0EE66E99DEE552E5521200010EE66E65
:1004C000ADDDE552E66AE66A52DFE552E552790EA5
:1004D000E66E1B0EE66E88DEE552E552E66A010E18
:1004E000E66E45DFE552E552640EE66E1B0EE66EE3
:1004F0007BDEE552E552E66A020EE66E38DFE55233
:10050000E5524F0EE66E1B0EE66E6EDEE552E552CC
:100510001200010EE66E82DDE552E66AE66A27DF2A
:10052000E552E5523A0EE66E1B0EE66E5DDEE552D2
:10053000E552E66A010EE66E1ADFE552E552250E37
:10054000E66E1B0EE66E50DEE552E552E66A020EDE
:10055000E66E0DDFE552E552100EE66E1B0EE66EFE
:1005600043DEE552E5521200010EE66E57DDE5521C
:10057000E66AE66AFCDEE552E552FB0EE66E1A0E0E
:10058000E66E32DEE552E552E66A010EE66EEFDE19
:10059000E552E552E60EE66E1A0EE66E25DEE552EF
:1005A000E552E66A020EE66EE2DEE552E552100E14
:1005B000E66E1B0EE66E18DEE552E5521200010EE5
:1005C000E66E2CDDE552E66AE66AD1DEE552E552DA
:1005D000D10EE66E1A0EE66E07DEE552E552E66AC9
:1005E000010EE66EC4DEE552E552BC0EE66E1A0E52
:1005F000E66EFADDE552E552E66A020EE66EB7DE19
:10060000E552E552A70EE66E1A0EE66EEDDDE552F6
:10061000E552E66A030EE66EAADEE552E552100EDA
:10062000E66E1B0EE66EE0DDE552E5521200400E6E
:10063000E66EF4DCE552040EE66E7BDDE5521B0E41
:10064000E66E77DDE552110EE66E73DDE552110EB2
:10065000E66E6FDDE552110EE66E6BDDE552110EB2
:10066000E66E67DDE5521F0EE66E63DDE5521F0E96
:10067000E66E5FDDE5521200400EE66ECFDCE5521D
:10068000040EE66E56DDE5520E0EE66E52DDE552C4
:10069000E66A4FDDE552E66A4CDDE552010EE66E94
:1006A00048DDE552130EE66E44DDE5521E0EE66EA1
:1006B00040DDE552E66A3DDDE5521200400EE66E91
:1006C000ADDCE552040EE66E34DDE5520E0EE66E4C
:1006D00030DDE552E66A2DDDE552E66A2ADDE552B7
:1006E000100EE66E26DDE552190EE66E22DDE552AD
:1006F0000F0EE66E1EDDE552E66A1BDDE5521200C6
:10070000BBDFDCDF17EF03F0C1EC08F0000166513E
:100710001AE0B5EC09F0010EE66E80DCE55200014E
:100720006C51030A0DE0010A09E0030A05E0010A21
:1007300001E008D00AD806D049D804D0A9D802D000
:10074000D9D800D044DEB5EF09F06BC0E6FF6CC02D
:10075000E6FF0DDEE552E5528C0EE66E1A0EE66EF1
:1007600043DDE552E5520001675107E1EFEC0AF085
:1007700032EC0BF0F0EC08F0F6D7B5EF09F0E66AD2
:10078000E66AF5DDE552E552770EE66E1A0EE66E84
:100790002BDDE552E552E66A010EE66EE8DDE55234
:1007A000E552620EE66E1A0EE66E1EDDE552E55269
:1007B000E66A020EE66EDBDDE552E5524D0EE66EB0
:1007C0001A0EE66E11DDE552E5521200D8DF000187
:1007D0006C6B6BC0E6FF6CC0E6FFC9DDE552E5520D
:1007E000000167514FE11FEC09F07DEC09F0F0ECDE
:1007F00008F0C1EC08F00001685114E0B5EC09F014
:100800006BC0E6FF6CC0E6FFB2DDE552E552200E9C
:10081000E66E8FDCE55200016C5103E1020E6C6F55
:1008200001D06C076A5114E0B5EC09F06BC0E6FF2B
:100830006CC0E6FF9CDDE552E552200EE66E79DCE9
:10084000E552020E00016C5D02E16C6B01D06C2B75
:10085000665101E07EDA130EE66E030EE66E87DD6A
:10086000E552E55200016C51E66EE66A15DDE5528F
:10087000E5526BC0E6FF6CC0E6FF79DDE552E5525C
:10088000D0DAAED7B5EC09F00001010E6C6F1200A2
:10089000E66AE66A6CDDE552E552380EE66E1A0E3F
:1008A000E66EA2DCE552E552E66A010EE66E5FDD19
:1008B000E552E552230EE66E1A0EE66E95DCE55221
:1008C000E552E66A020EE66E52DDE552E5520E0E84
:1008D000E66E1A0EE66E88DCE552E55200016751BD
:1008E00003E1F0EC08F0FAD7B5EC09F00001020ED4
:1008F0006C6F1200E66AE66A3ADDE552E552F90EDF
:10090000E66E190EE66E70DCE552E552E66A010EFF
:10091000E66E2DDDE552E552E40EE66E190EE66E4A
:1009200063DCE552E552E66A020EE66E20DDE55232
:10093000E552CF0EE66E190EE66E56DCE552E55234
:10094000E66A030EE66E13DDE552E552BA0EE66E78
:10095000190EE66E49DCE552E5520001675103E1EC
:10096000F0EC08F0FAD7B5EC09F00001030E6C6F5B
:100970001200CFDD00016C6B6B6B6BC0E6FF6CC0CF
:10098000E6FFF5DCE552E55200019E5101E089D019
:100990001FEC09F07DEC09F04EEC09F0F0EC08F0EA
:1009A000F0DB0001685115E0B5EC09F06BC0E6FF23
:1009B0006CC0E6FFDCDCE552E552200EE66E99ECF9
:1009C00000F0E55200016C5103E1020E6C6F01D0A2
:1009D0006C076A5115E0B5EC09F06BC0E6FF6CC01E
:1009E000E6FFC5DCE552E552200EE66E99EC00F01C
:1009F000E552020E00016C5D02E16C6B01D06C2BC4
:100A00006C51010837E2675116E0B5EC09F06BC094
:100A1000E6FF6CC0E6FFABDCE552E552200EE66E69
:100A200099EC00F0E55200016B5103E10B0E6B6F86
:100A300002D00B0E6B5F695116E0B5EC09F06BC08C
:100A4000E6FF6CC0E6FF93DCE552E552200EE66E51
:100A500099EC00F0E5520B0E00016B5D02E16B6B4F
:100A600002D00B0E6B27665105E0B5EC09F00001D2
:100A7000010E9E6F130EE66E030EE66E78DCE552F5
:100A8000E55200016C51E66EE66A06DCE552E5527D
:100A90006BC0E6FF6CC0E6FF6ADCE552E552C1D9E7
:100AA00073D700016C6B6B6B00019E6BB5EC09F0AA
:100AB000010EE66E0EEC00F0E552BFEF03F054DDE0
:100AC00000016C6B6B6B6BC0E6FF6CC0E6FF4FDC2C
:100AD000E552E55200019E5101E088D0B0DB7DEC8B
:100AE00009F0DCDB7DDB4DDB0001685115E0B5EC86
:100AF00009F06BC0E6FF6CC0E6FF39DCE552E55259
:100B0000200EE66E99EC00F0E55200016C5103E115
:100B1000020E6C6F01D06C076A5115E0B5EC09F05C
:100B20006BC0E6FF6CC0E6FF22DCE552E552200E0A
:100B3000E66E99EC00F0E552020E00016C5D02E1F8
:100B40006C6B01D06C2B6C51010836E2675116E0DA
:100B5000B5EC09F06BC0E6FF6CC0E6FF08DCE552BF
:100B6000E552200EE66E99EC00F0E55200016B5163
:100B700003E10B0E6B6F02D00B0E6B5F695116E039
:100B8000F4DB6BC0E6FF6CC0E6FFB7EC01F0E552AA
:100B9000E552200EE66E99EC00F0E5520B0E0001D6
:100BA0006B5D02E16B6B02D00B0E6B27665104E0AC
:100BB000DCDB0001010E9E6F130EE66E030EE66E87
:100BC000B7EC01F0E552E55200016C51E66EE66AC1
:100BD0004CEC01F0E552E5526BC0E6FF6CC0E6FF5D
:100BE000B7EC01F0E552E5521CD974D70001010EB3
:100BF0006C6F6B6B00019E6BB8DB010EE66E0EEC4A
:100C000000F0E552BFEF03F0DADC00016C6B6B6BB8
:100C10006BC0E6FF6CC0E6FFB7EC01F0E552E552B1
:100C200000019E5101E087D00ADB67DB37DBD8DAB1
:100C3000A8DA0001685115E098DB6BC0E6FF6CC0D4
:100C4000E6FFB7EC01F0E552E552200EE66E99ECB6
:100C500000F0E55200016C5103E1030E6C6F01D00E
:100C60006C076A5115E081DB6BC0E6FF6CC0E6FFE4
:100C7000B7EC01F0E552E552200EE66E99EC00F07B
:100C8000E552030E00016C5D02E16C6B01D06C2B30
:100C9000030E6C5D36E1675116E067DB6BC0E6FF63
:100CA0006CC0E6FFB7EC01F0E552E552200EE66EAF
:100CB00099EC00F0E55200016B5103E10B0E6B6FF4
:100CC00002D00B0E6B5F695116E04FDB6BC0E6FF85
:100CD0006CC0E6FFB7EC01F0E552E552200EE66E7F
:100CE00099EC00F0E5520B0E00016B5D02E16B6BBD
:100CF00002D00B0E6B27665104E037DB0001010EBA
:100D00009E6F130EE66E030EE66EB7EC01F0E55231
:100D1000E55200016C51E66EE66A4CEC01F0E552DA
:100D2000E5526BC0E6FF6CC0E6FFB7EC01F0E552A0
:100D3000E55277D875D70001020E6C6F6B6B00011E
:100D40009E6B13DB010EE66E0EEC00F0E552BFEF7A
:100D500003F0010EE66E0EEC00F0E55200016C515E
:100D6000020A09E0030A05E0010A01E006D001DEFB
:100D700004D0A5DE02D048DF00D0B5EF09F06BC08B
:100D8000E6FF6CC0E6FFB7EC01F0E552E55257DA3A
:100D9000B4DA0001685114E06BC0E6FF6CC0E6FFF6
:100DA000B7EC01F0E552E552200EE66E99EC00F04A
:100DB000E55200016C5103E1030E6C6F01D06C072A
:100DC0006A5114E06BC0E6FF6CC0E6FFB7EC01F0BF
:100DD000E552E552200EE66E99EC00F0E552030E66
:100DE00000016C5D02E16C6B01D06C2B130EE66EA2
:100DF000030EE66EB7EC01F0E552E55200016C51CE
:100E0000E66EE66A4CEC01F0E552E5526BC0E6FF97
:100E10006CC0E6FFB7EC01F0E552E55202D8B5EF41
:100E200009F000016D5106E03E0EE66E99EC00F00F
:100E3000E55205D0200EE66E99EC00F0E552120066
:100E400000016C5103E1010E6E6F16D06C5106E18A
:100E5000080E6B5D03E1020E6E6F0ED06C0505E1AE
:100E60006B5103E1030E6E6F07D06C0505E1080EB0
:100E70006B5D02E1040E6E6F120000016C0503E170
:100E8000010E6E6F0BD0020E6C5D03E1020E6E6FF1
:100E900005D0030E6C5D02E1030E6E6F12000001BF
:100EA0006C0503E1010E6E6F0BD0020E6C5D03E169
:100EB000020E6E6F05D0030E6C5D02E1030E6E6FC5
:100EC00012004ADA000167516EE1676B100EE66EA0
:100ED000E66AB7EC01F0E552E55283A009D0B60E00
:100EE000E66E190EE66EF4EC00F0E552E55208D01D
:100EF000A00EE66E1A0EE66EF4EC00F0E552E55236
:100F0000100EE66E010EE66EB7EC01F0E552E5520A
:100F100083A209D0B60EE66E190EE66EF4EC00F070
:100F2000E552E55208D0A00EE66E1A0EE66EF4EC1D
:100F300000F0E552E552100EE66E020EE66EB7ECDA
:100F400001F0E552E55283A409D0B60EE66E190E03
:100F5000E66EF4EC00F0E552E55208D0A00EE66E25
:100F60001A0EE66EF4EC00F0E552E552100EE66E55
:100F7000030EE66EB7EC01F0E552E55283A609D008
:100F8000B60EE66E190EE66EF4EC00F0E552E55290
:100F900008D0A00EE66E1A0EE66EF4EC00F0E552F4
:100FA000E552DAD98FD7676B020E6C6F6B6B65DF1A
:100FB00048EF04F0D1D90001675102E1CDD9FBD748
:100FC000676B010E6C6F6B6B58DF48EF04F0C4D990
:100FD0000001675122E10D0EE66E010EE66EB7ECE0
:100FE00001F0E552E55271C0E6FF72C0E6FF4CEC3D
:100FF00001F0E552E552090EE66E010EE66EB7EC21
:1010000001F0E552E55273C0E6FF74C0E6FF4CEC18
:1010100001F0E552E552A0D9DBD7676B030E6C6F88
:101020006B6B2BDF48EF04F0000166511CE0666B30
:10103000817C010EE66E0EEC00F0E55200016E516F
:10104000030A0DE0010A07E0030A01E00CD0B4EC4A
:1010500002F0B0DF08D05EEC02F033DF04D089ECA0
:1010600002F0B5DF00D00001675108E0676B010EA8
:101070006C6F6B6BE5DEE7EC01F081DE1200D9CF1F
:10108000E6FFE1CFD9FFFE0EDB500F0BF36EF34608
:10109000F346C30EC214F310C26E010EE66E42ECAC
:1010A0000FF0E552C282C2B2FED7C3CFF3FFC4CF66
:1010B000F4FF00D0E552E7CFD9FF1200D9CFE6FF09
:1010C000E1CFD9FF020EE126DF6A050EDF5C4FE2B9
:1010D000010EDB6AEA6ADF34FE0BEA36E96E750E52
:1010E000E926000EEA22EECF10F0EFCF11F0050E48
:1010F000105E000E115A000110509F5D1150A05952
:101100002BE3EA6ADF34FE0BEA36E96E750EE92658
:10111000000EEA22EECF12F0EFCF13F0050E1226EA
:10112000000E13229F51125CA051135815E3DE529A
:10113000010EDD6EDB5010E0DF50EA6A610FE96EF0
:10114000000EEA22EF5008E1DF50EA6A660FE96E0E
:10115000000EEA22010EEF6EDF50EA6A610FE96EBF
:10116000000EEA22010EDBCFEFFFDF2AAED7020E20
:10117000E15C02E2E16AE552E16EE552E7CFD9FFB8
:101180001200E66A7CDFE552F3CF9FF0F4CFA0F0C7
:1011900000019D6B75C010F076C011F0050E105E59
:1011A000000E115A10509F5D1150A05916E3050E04
:1011B0000001136A7525126E7651132200019F51AA
:1011C000125CA051135809E3010E9D6F9D5105E07B
:1011D0000001615102E1010E666F9DC061F01200D5
:1011E000E66A4DDFE552F3CF9FF0F4CFA0F00001A7
:1011F0009D6B77C010F078C011F0050E105E000EE8
:10120000115A10509F5D1150A05916E3050E0001B0
:10121000136A7725126E7851132200019F51125CD8
:10122000A051135809E3010E9D6F9D5105E0000187
:10123000625102E1010E676F9DC062F01200E66A22
:101240001EDFE552F3CF9FF0F4CFA0F000019D6BBD
:1012500079C010F07AC011F0050E105E000E115A20
:1012600010509F5D1150A05916E3050E0001136A3E
:101270007925126E7A51132200019F51125CA05100
:10128000135809E3010E9D6F9D5105E00001635164
:1012900002E1010E686F9DC063F01200E66AEFDEA6
:1012A000E552F3CF9FF0F4CFA0F000019D6B7BC01F
:1012B00010F07CC011F0050E105E000E115A105097
:1012C0009F5D1150A05916E3050E0001136A7B259E
:1012D000126E7C51132200019F51125CA0511358D1
:1012E00009E3010E9D6F9D5105E00001645102E18B
:1012F000010E696F9DC064F01200E66AC0DEE5521F
:10130000F3CF9FF0F4CFA0F000019D6B7DC010F0F3
:101310007EC011F0050E105E000E115A10509F5D38
:101320001150A05916E3050E0001136A7D25126EB7
:101330007E51132200019F51125CA051135809E302
:10134000010E9D6F9D5105E00001655102E1010E06
:101350006A6F9DC065F01200E66A91DEE552F3CF38
:101360009FF0F4CFA0F05EEF08F0D9CFE6FFE1CF19
:10137000D9FFE652DF6A050EDF5C09E2DF50EA6A58
:10138000660FE96E000EEA22EF6ADF2AF4D7E55213
:10139000E552E7CFD9FF1200D9CFE6FFE1CFD9FF61
:1013A000040EE126FD0EDBCFE6FFFE0EDBCFE6FFEF
:1013B00016EC01F0E552E552DE6EDD6A020EDB6AE4
:1013C000030EDB6ADECF10F0DDCF11F01006000E49
:1013D000115A020E10C0DBFF030E11C0DBFF020E1C
:1013E000DBCF10F0030EDBCF11F00001800E1114E3
:1013F00040E1FD0EDBCF12F0FE0EDBCF13F00A0E44
:101400000D6E0E6A12C008F013C009F0FEEC0EF06B
:1014100004C012F005C013F0300E1226000E132285
:10142000020EDBCF10F0030EDBCF11F0FB0EDB5012
:101430001024E96EFC0EDB501120EA6E12C0EFFFA3
:10144000D950FD0FE96EFF0EDA20EA6E0A0E0D6E1E
:101450000E6AEECF08F0EDCF09F0FEEC0EF008C0FA
:10146000EEFF09C0EDFF020EDB06030E01E2DB0614
:10147000B6D7FB0EDBCF10F0FC0EDBCF11F0DE5049
:101480001024E96EDD501120EA6EEF6A040EE15C73
:1014900002E2E16AE552E16EE552E7CFD9FF1200C0
:1014A000D9CFE6FFE1CFD9FFD950FD0FE96EFF0E8E
:1014B000DA20EA6E000ED880EE54000EED540BE2F6
:1014C0000A0EE66E42EC0FF0E552FD0EDB06FE0E54
:1014D00001E2DB06E9D7E552E7CFD9FF1200DACF08
:1014E000E4FFE2CFDAFFE9CFE4FFEACFE4FFF6CF93
:1014F000E4FFF7CFE4FFF5CFE4FFF3CFE4FFF4CF51
:10150000E4FFFACFE4FF00EE00F0100EE80403E37E
:10151000EECFE4FFFBD700EE10F0040EE80403E387
:10152000EECFE4FFFBD7E6529EA021D00001605130
:10153000000801E260077F2B6D5102E0000E01D030
:10154000010E6D6F3C0E7F5D11E17F6B802B3C0EB9
:10155000805D0CE1806B812B180E815D07E1816B52
:10156000060E825D02E1826B01D0822B33D8E552F8
:1015700000EE13F0040EE80403E3E5CFEDFFFBD724
:1015800000EE0FF0100EE80403E3E5CFEDFFFBD70C
:10159000E5CFFAFFE5CFF4FFE5CFF3FFE5CFF5FFA9
:1015A000E5CFF7FFE5CFF6FFE5CFEAFFE5CFE9FFAF
:1015B000E5CFDAFF1100D09EF28EF28C9D801200F2
:1015C000CD8ECD8CCD9ACD98CD86CD94CD82CD804B
:1015D000EAEF0AF09E90C00ECF6ECE6A120081C074
:1015E00009F00A0E0E6E6AEC0EF00550300F000185
:1015F000846F0A0E106E10C00EF081C009F06AEC04
:101600000EF00950300F0001836F80C009F00A0E00
:101610000E6E6AEC0EF00550300F0001876F0A0E57
:10162000106E10C00EF080C009F06AEC0EF0095088
:10163000300F0001866F7FC009F00A0E0E6E6AEC53
:101640000EF00550300F00018C6F0A0E106E10C0A6
:101650000EF07FC009F06AEC0EF00950300F000167
:101660008B6F1200D9CFE6FFE1CFD9FFE652DF6AD8
:10167000040EE66E010EE66EB7EC01F0E552E5529F
:10168000DF6A0E0EDF5C0DE2DF50EA6A830FE96E5F
:10169000000EEA22EF50E66E99EC00F0E552DF2AE8
:1016A000F0D7E66A020EE66EB7EC01F0E552E552BD
:1016B00000018251060A4BE0030A40E0010A35E0CE
:1016C000070A2AE0010A1FE0030A14E0010A09E000
:1016D0000E0EE66E190EE66EF4EC00F0E552E552E1
:1016E0003FD0A10EE66E190EE66EF4EC00F0E55266
:1016F000E55236D08C0EE66E190EE66EF4EC00F074
:10170000E552E5522DD0770EE66E190EE66EF4EC3A
:1017100000F0E552E55224D0620EE66E190EE66E38
:10172000F4EC00F0E552E5521BD04D0EE66E190EBA
:10173000E66EF4EC00F0E552E55212D0380EE66E9B
:10174000190EE66EF4EC00F0E552E55209D0230ED6
:10175000E66E190EE66EF4EC00F0E552E55200D0AC
:10176000E552E552E7CFD9FF120000016C6B0C0E79
:101770006B6F0001675101E091D061DDBEDD30DDAE
:10178000020E00016B25E66EE66AB7EC01F0E55249
:10179000E55281C010F0116A10BE116810C0E6FF5A
:1017A00011C0E6FF4CEC01F0E552E552020E0001DB
:1017B0006B25E66E010EE66EB7EC01F0E552E552E0
:1017C00080C010F0116A10BE116810C0E6FF11C091
:1017D000E6FF4CEC01F0E552E552020E00016B25EC
:1017E000E66E020EE66EB7EC01F0E552E5527FC000
:1017F00010F0116A10BE116810C0E6FF11C0E6FFBC
:101800004CEC01F0E552E5520001685115E0686BBF
:101810006BC0E6FF6CC0E6FFB7EC01F0E552E552A5
:10182000200EE66E99EC00F0E55200016C5103E1E8
:10183000020E6C6F01D06C076A5115E06A6B6BC0C9
:10184000E6FF6CC0E6FFB7EC01F0E552E552200E72
:10185000E66E99EC00F0E552020E00016C5D02E1CB
:101860006C6B01D06C2B130EE66E030EE66EB7ECBC
:1018700001F0E552E55200016E51E66EE66A4CEC6D
:1018800001F0E552E5526BC0E6FF6CC0E6FFB7EC35
:1018900001F0E552E55211EC07F06BD766DD00016F
:1018A000010E6C6F6B6B1200806A896A010E926E7A
:1018B000816A8A6A030E936E826A8B6A946E836A67
:1018C0008C6A0F0E956E846A8D6A966A810EC06E60
:1018D0000E0EC16E010EC26E070EB46E71DE6BDEAF
:1018E000800EE66E080EE66EE3EC0EF0E552E55271
:1018F000090EC86E69EC00F0E7EC01F020EC07F08F
:0E1900008388BFEC06F084EC03F0FBD71200E6
:02190E00202097
:1019100020202020202020202020202020202020C7
:101920002020002020202020202053414241444FED
:101930002020202020202000202020205345585403
:10194000412D4645495241202020202000202020C2
:10195000205155494E54412D4645495241202020A1
:101960002000202020205155415254412D46454908
:101970005241202020200020202020544552434165
:101980002D46454952412020202020002020205370
:101990004547554E44412D4645495241202020207F
:1019A00000202020202020444F4D494E474F20202A
:1019B0002020202020004F4E20002020204C696D48
:1019C00070657A613A204449415249412020002003
:1019D0002020343530783333307837383020636D19
:1019E0002020200020204D656469646173206461BB
:1019F0002043616978613A200020446573656E7602
:101A00006F6C7665646F723A204A4D464A004C49C5
:101A10004D50455A4153204645495441533A303080
:101A20002020004D4F544F5220434F4D503A204FED
:101A300046462D30302520004D4F544F5220544102
:101A40004D423A204F46462D303025200020204878
:101A50006F726120646F2052656C6F67696F202020
:101A60002000202056656C6F636964616465204DB9
:101A70006F746F726573002020537072617920500B
:101A800075726966696361646F7220002D2D2D2D5A
:101A90002D2D4341542D424F582D2D2D2D2D2D00F0
:101AA0004F4646004F4E002020534547554E444F69
:101AB0002E3A2020202020202020200020204D49C8
:101AC0004E55544F2E2E3A2020202020202020201A
:101AD000002020484F52412E2E2E2E3A202020202A
:101AE00020202020200020204D4F544F5220434FD3
:101AF0004D504F525441202020200020204D4F5463
:101B00004F522054414D424F52202020202020008F
:101B10002020434F4E4649524D4120202043414E04
:101B200043454C410020205574696C697A61646FAB
:101B30003A202020202020202000202043617061B6
:101B40006369646164653A202020202020200053CE
:101B50005052415953202020202020202020202096
:101B6000202020004D4F544F5220434F4D504F5294
:101B70005441202020202020004D4F544F5220540B
:101B8000414D424F522020202020202020002020A4
:101B9000534F42524520202020202020202020206A
:101BA00020200020204D4F4E49544F52414D454E6C
:101BB000544F2020202020002020434F4E464947EC
:101BC000555241434F4553202020202000202048DB
:101BD0004F4D452020202020202020202020202084
:101BE0002000204553434F4C4841202D20424520A2
:101BF0004841505059200020202050415241424538
:101C00004E532050454C4120202020002042454D7D
:101C10002056494E444F205553554152494F20209C
:101C2000002D2D2D2D2D2D2D4341542D424F582D5E
:061C30002D2D2D2D2D00CD
:0A1C36000E0EF66E000EF76E000EA3
:101C4000F86E00010900F550986F0900F550996F82
:101C500003E1986701D03DD00900F550936F09006A
:101C6000F550946F0900F550956F09000900F55083
:101C7000E96E0900F550EA6E090009000900F55007
:101C8000966F0900F550976F09000900F6CF9AF09A
:101C9000F7CF9BF0F8CF9CF093C0F6FF94C0F7FF0E
:101CA00095C0F8FF0001965302E1975307E0090041
:101CB000F550EE6E9607F8E29707F9D79AC0F6FF4F
:101CC0009BC0F7FF9CC0F8FF00019807000E995BCE
:041CD000BFD7120068
:0C1CD400006A0EAE70EF0EF00E6C001EE9
:101CE00009AE75EF0EF0096C001E50EC0FF009BE46
:101CF0007FEF0EF000AE000C096C056C000C00BE0E
:101D00007CEF0EF00188FF0C006A0EAE8DEF0EF036
:101D10000D6C0E1EE86A0E22001E09AE95EF0EF045
:101D2000086C091EE86A0922001EFEEC0EF009BECE
:101D3000A5EF0EF000AE000C086C091EE86A09223F
:101D4000046C051EE86A0522000C00BE9CEF0EF034
:041D50000188FF0CFB
:0C1D5400D9CFE6FFDACFE6FFE1CFD9FFE0
:101D6000E2CFDAFFFD0EDB50C96EC6AE02D0FF0E29
:101D700024D00F0EC61408080FE00F0EC6140B086F
:101D80000BE0C6889EA6FED7C750040B03E1C750E0
:101D9000010B10E0000E11D00F0EC614080804E06D
:101DA0000F0EC6140B0809E1C7B0FED769EC0FF09F
:101DB000C5AC02D0FE0E01D0000EE552E5CFDAFF31
:061DC000E7CFD9FF12007D
:0A1DC600D9CFE6FFDACFE6FFE1CF48
:101DD000D9FFE2CFDAFF3F0EC716C66AC56AFD0E0D
:101DE000DB50C612FC0EDB50C71293829380C68A6A
:0C1DF000E552E5CFDAFFE7CFD9FF120083
:041DFC00056A046A06
:101E0000100EE76ED89008360936043605360D50A8
:101E1000045C0E50055805E30D50045E0E50055A43
:081E2000082AE72EF0D712009A
:081E2800FF0EE350146E480E9A
:101E300001D04C0EE76EE72EFED7E76AE72EFED7FD
:081E4000142EF7D70000120078
:081E4800000EF36E00EE00F045
:101E5000080E01D81200EA6002D0EE6AFCD7F350F7
:081E6000E9601200EE6AFCD7F4
:081E680013EE00F023EE00F080
:101E7000F86A019C1BEC0EF003EC00F054EC0CF043
:041E8000FBD712007A
:0C1E8400FF0EE350146E1B0E00D001D0C6
:101E9000200EE76EE72EFED7142EFAD700D01200E0
:101EA000056A080EE76ED890093605360E50055CB7
:0C1EB00002E3056E092AE72EF7D71200A6
:041EBC00FF0EE350E2
:101EC000E84E1200000000D000D000D0E82EFAD773
:021ED0001200FE
:0E1ED2001F0EC514FDE1C750040BFAE112000B
:101EE000050000000000000000000000000100A448
:101EF000A0F4011200FF02AA020002DB0266022621
:101F00003B170030306830306D696E303073656378
:031F1000000000CE
:020000040030CA
:010001000CF2
:010002001EDF
:010003001EDE
:0100050003F7
:010006008178
:00000001FF
