:020000040000FA
:06000000F6EF13F0120000
:020006001200E6
:0600080032EF06F01200C9
:06001800ABEF06F0120040
:02001E000100DF
:0C002000642800006000000042000000A6
:04002C00D9CFE6FF43
:10003000E1CFD9FFE6522BEC14F0C580C5B0FED756
:100040002BEC14F04E0EE66E46EC13F0E552FE0E6D
:10005000DB50F00BDF6E0C0EDF10DF6E2BEC14F0BC
:10006000DFCFE6FF46EC13F0E552010EE66E20EC22
:1000700014F0E552F80EDF14DF6E2BEC14F0DFCF36
:10008000E6FF46EC13F0E552FE0EDB38F00BF00B0A
:10009000DF6E0C0EDF10DF6E2BEC14F0DFCFE6FF0F
:1000A00046EC13F0E552010EE66E20EC14F0E5523A
:1000B000F80EDF14DF6E2BEC14F0DFCFE6FF46EC1A
:1000C00013F0E5522BEC14F0C584C5B4FED7050E31
:1000D000E66ED6EC13F0E552E552E552E7CFD9FFD4
:1000E0001200140EE66ED6EC13F0E552300EE66EFA
:1000F0009DDFE552050EE66ED6EC13F0E552300EAC
:10010000E66E94DFE552020EE66E04EC14F0E55262
:10011000300EE66E8BDFE552020EE66E87DFE552AB
:10012000280EE66E83DFE552060EE66E7FDFE552AF
:100130000C0EE66E7BDFE552010EE66E77DFE552D0
:100140001200D9CFE6FFE1CFD9FFE6522BEC14F035
:10015000C580C5B0FED72BEC14F04E0EE66E46EC13
:1001600013F0E552FE0EDB50F00BDF6E0D0EDF10CC
:10017000DF6E2BEC14F0DFCFE6FF46EC13F0E55218
:100180000A0EE66E20EC14F0E552F90EDF14DF6E75
:100190002BEC14F0DFCFE6FF46EC13F0E552FE0E39
:1001A000DB38F00BF00BDF6E0D0EDF10DF6E2BEC8B
:1001B00014F0DFCFE6FF46EC13F0E5520A0EE66ED0
:1001C00020EC14F0E552F90EDF14DF6E2BEC14F086
:1001D000DFCFE6FF46EC13F0E5522BEC14F0C584BC
:1001E000C5B4FED7050EE66ED6EC13F0E552E55227
:1001F000E552E7CFD9FF1200D9CFE6FFE1CFD9FF13
:10020000FD0EDBCFF6FFFE0EDBCFF7FF0800F5504B
:1002100011E0FD0EDBCFF6FFFE0EDBCFF7FF08008F
:10022000F550E66E8EDFE552FD0EDB2AFE0E01E391
:10023000DB2AE6D7E552E7CFD9FF1200D9CFE6FF98
:10024000E1CFD9FF030EE126FD0EDBCFDEFFDBCFD2
:10025000DDFF020EDB6AD9CFE9FFDACFEAFF0A0E33
:100260000D6E0E6AEECF08F0EDCF09F07FEC13F0C3
:1002700008C0EEFF09C0EDFF020EDB2AD9CFE9FF6F
:10028000DACFEAFFEE50ED10E6E1020EDB50106E21
:10029000030EE15C03E200D0E16AE552E16E10502A
:1002A000E552E7CFD9FF1200D9CFE6FFE1CFD9FF62
:1002B000040EE126DE6ADD6AFD0EDBCF08F0FE0EDD
:1002C000DBCF09F0020E08C0DBFF030E09C0DBFF25
:1002D000040EE66EABDEE552FD0EDBCFE6FFFE0E52
:1002E000DBCFE6FFABDFE552E552DE6EDD6ADECF47
:1002F00010F0DDCF11F0113404E210500008000EB0
:1003000011542FE2020EDBCF10F0030EDBCF11F001
:100310000A0E0D6E0E6A10C008F011C009F0C0EC94
:1003200013F004C010F005C011F0300E1024E66E7A
:1003300008DFE552D950020FE96EDACFEAFF0A0E64
:100340000D6E0E6AEECF08F0EDCF09F0C0EC13F0A1
:1003500008C0EEFF09C0EDFFDF06010E01E2DB067B
:10036000C6D7060EE66E62DEE552040EE15C02E2DE
:10037000E16AE552E16EE552E7CFD9FF1200D9CF2D
:10038000E6FFE1CFD9FFE652DF6AFE0EDB50030A3B
:1003900016E0010A0FE0030A08E0010A01E014D0A8
:1003A000FD0EDB50800FDF6E0FD0FD0EDB50C00F57
:1003B000DF6E0AD0FD0EDB50940FDF6E05D0FD0E10
:1003C000DB50D40FDF6E00D0DF5004E0DFCFE6FF5C
:1003D0002DDEE552E552E552E7CFD9FF1200E66A7D
:1003E000E66ACDDFE552E552D90EE66E250EE66EE1
:1003F00003DFE552E552E66A010EE66EC0DFE55224
:10040000E552C40EE66E250EE66EF6DEE552E552C6
:10041000E66A020EE66EB3DFE552E552AF0EE66E17
:10042000250EE66EE9DEE552E552E66A030EE66E5B
:10043000A6DFE552E5529A0EE66E250EE66EDCDE8C
:10044000E552E5521200010E0001605D3BE3010E32
:10045000E66EECDDE552E66AE66A91DFE552E552CA
:10046000850EE66E250EE66EC7DEE552E552E66ABB
:10047000010EE66E84DFE552E552700EE66E250E43
:10048000E66EBADEE552E552E66A020EE66E77DF08
:10049000E552E5525B0EE66E250EE66EADDEE552E8
:1004A000E552E66A030EE66E6ADFE552E552460E55
:1004B000E66E250EE66EA0DEE552E55200016051C3
:1004C00001E0FCD7010EE66EB1DDE552E66AE66AB0
:1004D00056DFE552E552310EE66E250EE66E8CDEF5
:1004E000E552E552E66A010EE66E49DFE552E55255
:1004F0001C0EE66E250EE66E7FDEE552E552E66ADC
:10050000020EE66E3CDFE552E552070EE66E250E62
:10051000E66E72DEE552E552E66A030EE66E2FDF06
:10052000E552E552F20EE66E240EE66E65DEE55209
:10053000E5521200010EE66E79DDE552E66AE66AE2
:100540001EDFE552E552DD0EE66E240EE66E54DE49
:10055000E552E552E66A010EE66E11DFE552E5521C
:10056000C80EE66E240EE66E47DEE552E552E66AF8
:10057000020EE66E04DFE552E552B30EE66E240E7F
:10058000E66E3ADEE552E5521200010EE66E4EDDF1
:10059000E552E66AE66AF3DEE552E5529E0EE66E45
:1005A000240EE66E29DEE552E552E66A010EE66E9D
:1005B000E6DEE552E552890EE66E240EE66E1CDE9E
:1005C000E552E552E66A020EE66ED9DEE552E552E4
:1005D000740EE66E240EE66E0FDEE552E552120052
:1005E000010EE66E23DDE552E66AE66AC8DEE552F4
:1005F000E5525F0EE66E240EE66EFEDDE552E55234
:10060000E66A010EE66EBBDEE552E5524A0EE66E84
:10061000240EE66EF1DDE552E552E66A020EE66E64
:10062000AEDEE552E552740EE66E240EE66EE4DDB3
:10063000E552E5521200010EE66EF8DCE552E66A7C
:10064000E66A9DDEE552E552350EE66E240EE66E54
:10065000D3DDE552E552E66A010EE66E90DEE55224
:10066000E552200EE66E240EE66EC6DDE552E5523A
:10067000E66A020EE66E83DEE552E5520B0EE66E8A
:10068000240EE66EB9DDE552E552E66A030EE66E2B
:1006900076DEE552E552740EE66E240EE66EACDDB3
:1006A000E552E5521200010EE66EC0DCE552E66A44
:1006B000E66A65DEE552E552F60EE66E230EE66E5C
:1006C0009BDDE552E552E66A010EE66E58DEE55224
:1006D000E552E10EE66E230EE66E8EDDE552E55242
:1006E000E66A020EE66E4BDEE552E552740EE66EE9
:1006F000240EE66E81DDE552E5521200400EE66EF4
:1007000095DCE552040EE66E1CDDE5521B0EE66E2E
:1007100018DDE552110EE66E14DDE552110EE66E9F
:1007200010DDE552110EE66E0CDDE552110EE66E9F
:1007300008DDE5521F0EE66E04DDE5521F0EE66E83
:1007400000DDE5521200400EE66E70DCE552040E4C
:10075000E66EF7DCE5520E0EE66EF3DCE552E66A75
:10076000F0DCE552E66AEDDCE552010EE66EE9DC0E
:10077000E552130EE66EE5DCE5521E0EE66EE1DC98
:10078000E552E66ADEDCE5521200400EE66E4EDC13
:10079000E552040EE66ED5DCE5520E0EE66ED1DCB7
:1007A000E552E66ACEDCE552E66ACBDCE552100E95
:1007B000E66EC7DCE552190EE66EC3DCE5520F0E9D
:1007C000E66EBFDCE552E66ABCDCE5521200BBDF38
:1007D000DCDF7EEF03F0D9CFE6FFE1CFD9FFFE0EDD
:1007E000DB500F0BF36EF346F346C30EC214F31047
:1007F000C26E010EE66E04EC14F0E552C282C2B283
:10080000FED7C3CFF3FFC4CFF4FF00D0E552E7CF4C
:10081000D9FF1200D9CFE6FFE1CFD9FF020EE126C2
:10082000DF6A050EDF5C4FE2010EDB6AEA6ADF3445
:10083000FE0BEA36E96E950EE926000EEA22EECFAF
:1008400010F0EFCF11F0050E105E000E115A0001EE
:100850001050A45D1150A5592BE3EA6ADF34FE0B5A
:10086000EA36E96E950EE926000EEA22EECF12F086
:10087000EFCF13F0050E1226000E1322A451125CC6
:10088000A551135815E3DE52010EDD6EDB5010E06A
:10089000DF50EA6A790FE96E000EEA22EF5008E1B4
:1008A000DF50EA6A7E0FE96E000EEA22010EEF6E5B
:1008B000DF50EA6A790FE96E000EEA22010EDBCF03
:1008C000EFFFDF2AAED7020EE15C02E2E16AE552F9
:1008D000E16EE552E7CFD9FF1200E66A7CDFE55210
:1008E000F3CFA4F0F4CFA5F00001A26B95C010F0F7
:1008F00096C011F0050E105E000E115A1050A45D46
:100900001150A55916E3050E0001136A9525126EC4
:10091000965113220001A451125CA551135809E30A
:10092000010EA26FA25105E00001795102E1010E12
:100930007E6FA2C079F01200E66A4DDFE552F3CF78
:10094000A4F0F4CFA5F00001A26B97C010F098C0FE
:1009500011F0050E105E000E115A1050A45D1150DA
:10096000A55916E3050E0001136A9725126E9851DA
:1009700013220001A451125CA551135809E3010E82
:10098000A26FA25105E000017A5102E1010E7F6FD2
:10099000A2C07AF01200E66A1EDFE552F3CFA4F09F
:1009A000F4CFA5F00001A26B99C010F09AC011F02D
:1009B000050E105E000E115A1050A45D1150A5597D
:1009C00016E3050E0001136A9925126E9A5113223F
:1009D0000001A451125CA551135809E3010EA26F46
:1009E000A25105E000017B5102E1010E806FA2C01F
:1009F0007BF01200E66AEFDEE552F3CFA4F0F4CF0D
:100A0000A5F00001A26B9BC010F09CC011F0050E78
:100A1000105E000E115A1050A45D1150A55916E336
:100A2000050E0001136A9B25126E9C5113220001D2
:100A3000A451125CA551135809E3010EA26FA251F3
:100A400005E000017C5102E1010E816FA2C07CF043
:100A50001200E66AC0DEE552F3CFA4F0F4CFA5F0B1
:100A60000001A26B9DC010F09EC011F0050E105E3B
:100A7000000E115A1050A45D1150A55916E3050E31
:100A80000001136A9D25126E9E5113220001A4518C
:100A9000125CA551135809E3010EA26FA25105E0A3
:100AA00000017D5102E1010E826FA2C07DF01200B3
:100AB000E66A91DEE552F3CFA4F0F4CFA5F00AEF99
:100AC00004F0D9CFE6FFE1CFD9FFE652DF6A050E89
:100AD000DF5C09E2DF50EA6A7E0FE96E000EEA226F
:100AE000EF6ADF2AF4D7E552E552E7CFD9FF1200CB
:100AF000D9CFE6FFE1CFD9FFFE0EDB50E8B081840D
:100B0000E8A08194FD0EDB50E8B08186E8A08196D4
:100B1000E552E7CFD9FF1200817481761200D9CF58
:100B2000E6FFE1CFD9FFFE0EDB50E8B08188E8A0F8
:100B30008198FD0EDB50E8B0818AE8A0819AE552E9
:100B4000E7CFD9FF12008178817A120036D8106E73
:100B5000010EE76E1018E8AE02D0E73402D0E7507D
:100B6000105C0FE22AD8010807E0E66A010EE66E83
:100B7000BFDFE552E552F6D7E66AE66AB9DFE5522D
:100B8000E55236D8106E010EE76E1018E8AE02D0AE
:100B9000E73402D0E750105C0FE22AD8010807E0E2
:100BA000E66A010EE66EBBDFE552E552F6D7E66A6D
:100BB000E66AB5DFE552E55212008350010B06E00C
:100BC0008350020B03E1010E12D011D08350010BB0
:100BD00006E18350020B03E1FF0E09D008D08350D9
:100BE000010B05E18350020B02E0000E00D0120061
:100BF0008350040B06E08350080B03E1010E12D072
:100C000011D08350040B06E18350080B03E1FF0E63
:100C100009D008D08350040B05E18350080B02E093
:100C2000000E00D01200D9CFE6FFE1CFD9FFD95096
:100C3000FD0FE96EFF0EDA20EA6E000ED880EE544A
:100C4000000EED540BE20A0EE66E04EC14F0E552D1
:100C5000FD0EDB06FE0E01E2DB06E9D7E552E7CF2B
:100C6000D9FF1200DACFE4FFE2CFDAFFE9CFE4FFE9
:100C7000EACFE4FFF6CFE4FFF7CFE4FFF5CFE4FFE0
:100C8000F3CFE4FFF4CFE4FFFACFE4FF00EE00F08F
:100C9000100EE80403E3EECFE4FFFBD700EE10F004
:100CA000040EE80403E3EECFE4FFFBD7E652F2A420
:100CB0002ED00001882B855102E0000E01D0010EDC
:100CC000856F875102E0837A01D0839A020E885D96
:100CD0001DE1886B6051000801E260079F07000E6C
:100CE000A05B892B3C0E895D11E1896B8B2B3C0E3F
:100CF0008B5D0CE18B6B8D2B180E8D5D07E18D6B81
:100D0000060E8F5D02E18F6B01D08F2BFCD8E55270
:100D100000EE13F0040EE80403E3E5CFEDFFFBD78C
:100D200000EE0FF0100EE80403E3E5CFEDFFFBD774
:100D3000E5CFFAFFE5CFF4FFE5CFF3FFE5CFF5FF11
:100D4000E5CFF7FFE5CFF6FFE5CFEAFFE5CFE9FF17
:100D5000E5CFDAFF1100D8CFE4FFE0CFE4FFE46E87
:100D6000DACFE4FFE2CFDAFFE9CFE4FFEACFE4FF36
:100D7000F6CFE4FFF7CFE4FFF5CFE4FFF3CFE4FFD6
:100D8000F4CFE4FFFACFE4FF00EE00F0100EE80429
:100D900003E3EECFE4FFFBD700EE10F0040EE8040F
:100DA00003E3EECFE4FFFBD7E652D9CFE6FFE1CF76
:100DB000D9FFE652F2A056D00001010E876FC6DEC1
:100DC00089C0DFFFDF500001895D146E040E145CE2
:100DD00001E2F8D70DDF000907E0010EE66EE66AD2
:100DE0009EDEE552E552F6D7E66AE66A98DEE552FF
:100DF000E552E3DE000907E0010EE66EE66A78DE02
:100E0000E552E552F6D7E66AE66A72DEE552E55249
:100E100089C0DFFFDF500001895D146E040E145C91
:100E200001E2F8D7E5DE010807E0E66A010EE66EAA
:100E300076DEE552E552F6D7E66AE66A70DEE552FE
:100E4000E552BBDE010807E0E66A010EE66E50DE01
:100E5000E552E552F6D7E66AE66A4ADEE552E55221
:100E60000001876B815000E0F290E552E552E7CF38
:100E7000D9FFE55200EE13F0040EE80403E3E5CFDA
:100E8000EDFFFBD700EE0FF0100EE80403E3E5CF13
:100E9000EDFFFBD7E5CFFAFFE5CFF4FFE5CFF3FF9A
:100EA000E5CFF5FFE5CFF7FFE5CFF6FFE5CFEAFFAA
:100EB000E5CFE9FFE5CFDAFFE550E5CFE0FFE5CF8D
:100EC000D8FF1000D08EF28EF28CF184F190F28A6D
:100ED000F2861200CD8ECD8CCD9ACD98CD86CD9454
:100EE000CD92CD8074EF07F09E90C00ECF6ECE6A8B
:100EF0001200D58ED59CD59AD598D596D594D58205
:100F0000D58083EF07F0F294850ED76EEE0ED66E85
:100F100012000A0E106E10C00EF08DC009F012EC17
:100F200014F00550300F0001626F0A0E106E10C0F1
:100F30000EF08DC009F012EC14F00950300F0001D2
:100F4000616F0A0E106E10C00EF08BC009F012EC2B
:100F500014F00550300F0001656F0A0E106E10C0BE
:100F60000EF08BC009F012EC14F00950300F0001A4
:100F7000646F0A0E106E10C00EF089C009F012ECFA
:100F800014F00550300F00016A6F0A0E106E10C089
:100F90000EF089C009F012EC14F00950300F000176
:100FA000696F1200D9CFE6FFE1CFD9FFE652DF6AC1
:100FB000040EE66E010EE66EBFEC01F0E552E5525E
:100FC000DF6A0E0EDF5C0DE2DF50EA6A610FE96E48
:100FD000000EEA22EF50E66EA1EC00F0E552DF2AA7
:100FE000F0D7E66A020EE66EBFEC01F0E552E5527C
:100FF00000018F51060A4BE0030A40E0010A35E088
:10100000070A2AE0010A1FE0030A14E0010A09E0C6
:10101000320EE66E230EE66EFCEC00F0E552E55271
:101020003FD0C50EE66E230EE66EFCEC00F0E552F6
:10103000E55236D0B00EE66E230EE66EFCEC00F004
:10104000E552E5522DD09B0EE66E230EE66EFCECCB
:1010500000F0E552E55224D0860EE66E230EE66ED1
:10106000FCEC00F0E552E5521BD0710EE66E230E4B
:10107000E66EFCEC00F0E552E55212D05C0EE66E36
:10108000230EE66EFCEC00F0E552E55209D0470E67
:10109000E66E230EE66EFCEC00F0E552E55200D061
:1010A000E552E552E7CFD9FF12000001855106E075
:1010B0003E0EE66EA1EC00F0E55205D0200EE66E85
:1010C000A1EC00F0E55212000001846B0C0E836F5E
:1010D00000017F5101E081D05EDCBBDC2DDC020E23
:1010E00000018325E66EE66ABFEC01F0E552E552A9
:1010F00000018D51E66EE66A54EC01F0E552E552CE
:10110000020E00018325E66E010EE66EBFEC01F0D3
:10111000E552E55200018B51E66EE66A54EC01F0AF
:10112000E552E552020E00018325E66E020EE66EE0
:10113000BFEC01F0E552E55200018951E66EE66A26
:1011400054EC01F0E552E5520001805115E0806B4E
:1011500083C0E6FF84C0E6FFBFEC01F0E552E55234
:10116000200EE66EA1EC00F0E5520001845103E18F
:10117000020E846F01D08407825115E0826B83C018
:10118000E6FF84C0E6FFBFEC01F0E552E552200E19
:10119000E66EA1EC00F0E552020E0001845D02E172
:1011A000846B01D0842B130EE66E030EE66EBFEC4B
:1011B00001F0E552E55200018651E66EE66A54EC14
:1011C00001F0E552E55283C0E6FF84C0E6FFBFECC4
:1011D00001F0E552E55269DF7BD773DC0001010EB7
:1011E000846F836B1200CA9CCA9ACA98CA96CA8432
:1011F000CA92CA909E92640ECB6EBD9ABD98BD866F
:10120000BD84BD92BD90BE6ABA9ABA98BA86BA84B5
:10121000BA92BA90BB6A1200A6C010F0A7C011F033
:101220000A0E0D6E0E6A10C008F011C009F0C0EC75
:1012300013F004C010F005C011F0300E10240001AE
:10124000716FA6C010F0A7C011F00A0E0D6E0E6AE5
:1012500010C008F011C009F0C0EC13F008C010F085
:1012600009C011F00A0E0D6E0E6A10C008F011C010
:1012700009F0C0EC13F004C010F005C011F0300EFE
:1012800010240001706FA6C010F0A7C011F00A0E64
:101290000D6E0E6A10C008F011C009F0C0EC13F01A
:1012A00008C010F009C011F00A0E0D6E0E6A10C0D1
:1012B00008F011C009F0C0EC13F008C010F009C02C
:1012C00011F0300E102400016F6FA8C010F0A9C0FB
:1012D00011F00A0E0D6E0E6A10C008F011C009F070
:1012E000C0EC13F004C010F005C011F0300E102453
:1012F0000001756FA8C010F0A9C011F00A0E0D6EA4
:101300000E6A10C008F011C009F0C0EC13F008C05C
:1013100010F009C011F00A0E0D6E0E6A10C008F030
:1013200011C009F0C0EC13F004C010F005C011F0BA
:10133000300E10240001746FA8C010F0A9C011F085
:101340000A0E0D6E0E6A10C008F011C009F0C0EC54
:1013500013F008C010F009C011F00A0E0D6E0E6AED
:1013600010C008F011C009F0C0EC13F008C010F074
:1013700009C011F0300E10240001736F120000013B
:10138000845103E1010E866F16D0845106E1080EE8
:10139000835D03E1020E866F0ED0840505E1835163
:1013A00003E1030E866F07D0840505E1080E835D17
:1013B00002E1040E866F1200010EE66E16EC00F0DC
:1013C000E55200018451030A0DE0010A09E0030A15
:1013D00005E0010A01E009D00AD807D05ED905D09E
:1013E000ADDA03D01AEC0EF000D061EF05F0D9CFE2
:1013F000E6FFE1CFD9FF020EE126C5EC02F00001C5
:10140000846B836B83C0E6FF84C0E6FFBFEC01F012
:10141000E552E55291C0A6F092C0A7F093C0A8F0A3
:1014200094C0A9F00001A35101E01FD1CBEC04F05E
:1014300029EC05F0FAEC04F09CEC04F06DEC04F0FF
:10144000EBDEDE6ADD6ADECF10F0DDCF11F0D89082
:10145000115004E6030E105C000E115838E2DECF86
:1014600010F0DDCF11F00F0E1024E66EE66ABFEC2F
:1014700001F0E552E552DECFE9FFDDCFEAFF6F0E66
:10148000E926000EEA22EF50E66EA1EC00F0E552EC
:10149000DECF10F0DDCF11F00F0E1024E66E010E3E
:1014A000E66EBFEC01F0E552E552DECFE9FFDDCF9D
:1014B000EAFF730EE926000EEA22EF50E66EA1EC79
:1014C00000F0E552DF2A010E01E3DB2ABCD7000160
:1014D000805116E061EC05F083C0E6FF84C0E6FFB2
:1014E000BFEC01F0E552E552200EE66EA1EC00F0F3
:1014F000E5520001845103E1020E846F01D084079C
:10150000825116E061EC05F083C0E6FF84C0E6FF7F
:10151000BFEC01F0E552E552200EE66EA1EC00F0C2
:10152000E552020E0001845D02E1846B01D0842B40
:101530008451020A4BE0030A26E0010A01E08BD045
:101540007F510CE061EC05F00001A651A71103E109
:10155000A66BA76B03D0A607000EA75B0001815105
:1015600011E061EC05F0E70E0001A61902E1030E9F
:10157000A71905E1E70EA66F030EA76F03D0A62BF0
:10158000000EA72368D07F510CE061EC05F000014C
:10159000A851A91103E1A86BA96B03D0A807000EFD
:1015A000A95B0001815111E061EC05F0E70E00013B
:1015B000A81902E1030EA91905E1E70EA86F030EB1
:1015C000A96F03D0A82B000EA92345D07F5117E0A7
:1015D00061EC05F083C0E6FF84C0E6FFBFEC01F0DC
:1015E000E552E552200EE66EA1EC00F0E552000156
:1015F000835103E10B0E836F02D00B0E835F815189
:1016000017E061EC05F083C0E6FF84C0E6FFBFECA5
:1016100001F0E552E552200EE66EA1EC00F0E55235
:101620000B0E0001835D02E1836B02D00B0E83275A
:101630007E5110E061EC05F00001010EA36F000186
:10164000835108E1A6C091F0A7C092F0A8C093F022
:10165000A9C094F000D083C0E6FF84C0E6FFBFECD1
:1016600001F0E552E55221DDDDD60001846B836B8C
:101670000001A36B61EC05F0010EE66E16EC00F0C4
:10168000E552EFEC01F0020EE15C02E2E16AE552A4
:10169000E16EE552E7CFD9FF1200F0EC02F0000155
:1016A000846B836B83C0E6FF84C0E6FFBFEC01F070
:1016B000E552E552AAC0ACF0ABC0ADF0AEC0B0F0A0
:1016C000AFC0B1F00001A35101E029D1CBEC04F08F
:1016D00029EC05F0FAEC04F09CEC04F06DEC04F05D
:1016E000120EE66EE66ABFEC01F0E552E552ACC0C0
:1016F000E6FFADC0E6FF54EC01F0E552E552120EF4
:10170000E66E010EE66EBFEC01F0E552E552B0C0A8
:10171000E6FFB1C0E6FF54EC01F0E552E5520001EE
:10172000805116E061EC05F083C0E6FF84C0E6FF5F
:10173000BFEC01F0E552E552200EE66EA1EC00F0A0
:10174000E5520001845103E1020E846F01D0840749
:10175000825116E061EC05F083C0E6FF84C0E6FF2D
:10176000BFEC01F0E552E552200EE66EA1EC00F070
:10177000E552020E0001845D02E1846B01D0842BEE
:101780008451020A01E17BD0030A3EE0010A01E034
:10179000BBD07F511AE061EC05F083C0E6FF84C046
:1017A000E6FFBFEC01F0E552E552200EE66EA1EC3B
:1017B00000F0E5520001AC51AD1104E1630EAC6FD5
:1017C000AD6B03D0AC07000EAD5B000181511BE097
:1017D00061EC05F083C0E6FF84C0E6FFBFEC01F0DA
:1017E000E552E552200EE66EA1EC00F0E552000154
:1017F000630EAC1901E1AD5103E1AC6BAD6B03D0ED
:10180000AC2B000EAD2380D07F511AE061EC05F0C7
:1018100083C0E6FF84C0E6FFBFEC01F0E552E5526D
:10182000200EE66EA1EC00F0E5520001B051B111BE
:1018300004E1630EB06FB16B03D0B007000EB15B73
:10184000000181511BE061EC05F083C0E6FF84C01C
:10185000E6FFBFEC01F0E552E552200EE66EA1EC8A
:1018600000F0E5520001630EB01901E1B15103E14E
:10187000B06BB16B03D0B02B000EB12345D07F51BC
:1018800017E061EC05F083C0E6FF84C0E6FFBFEC23
:1018900001F0E552E552200EE66EA1EC00F0E552B3
:1018A0000001835103E10B0E836F02D00B0E835FA7
:1018B000815117E061EC05F083C0E6FF84C0E6FFCC
:1018C000BFEC01F0E552E552200EE66EA1EC00F00F
:1018D000E5520B0E0001835D02E1836B02D00B0E1B
:1018E00083277E5110E061EC05F00001010EA36F2B
:1018F0000001835108E1B0C0AEF0B1C0AFF0ACC0A0
:10190000AAF0ADC0ABF000D083C0E6FF84C0E6FF14
:10191000BFEC01F0E552E55255EC08F0D3D60001DA
:10192000010E846F836B0001A36B61EC05F0010E67
:10193000E66E16EC00F0E552EFEF01F01BEC03F061
:101940000001846B836B83C0E6FF84C0E6FFBFECBD
:1019500001F0E552E55289C08AF08BC08CF08DC051
:101960008EF00001A35101E056D1CBEC04F029EC3C
:1019700005F0FAEC04F09CEC04F06DEC04F00E0EB3
:10198000E66EE66ABFEC01F0E552E55200018E51C9
:10199000E66EE66A54EC01F0E552E5520E0EE66E94
:1019A000010EE66EBFEC01F0E552E55200018C51EC
:1019B000E66EE66A54EC01F0E552E5520E0EE66E74
:1019C000020EE66EBFEC01F0E552E55200018A51CD
:1019D000E66EE66A54EC01F0E552E55200018051F2
:1019E00016E061EC05F083C0E6FF84C0E6FFBFECC3
:1019F00001F0E552E552200EE66EA1EC00F0E55252
:101A00000001845103E1030E846F01D084078251E9
:101A100016E061EC05F083C0E6FF84C0E6FFBFEC92
:101A200001F0E552E552200EE66EA1EC00F0E55221
:101A3000030E0001845D02E1846B01D0842B84518C
:101A4000030A01E19AD0010A67E0030A34E0010ABF
:101A500001E0D6D07F5116E061EC05F083C0E6FFCF
:101A600084C0E6FFBFEC01F0E552E552200EE66EC1
:101A7000A1EC00F0E55200018E5103E1180E8E6FCB
:101A800001D08E07815116E061EC05F083C0E6FFBE
:101A900084C0E6FFBFEC01F0E552E552200EE66E91
:101AA000A1EC00F0E552180E00018E5D02E18E6B94
:101AB00001D08E2BA5D07F5116E061EC05F083C0DC
:101AC000E6FF84C0E6FFBFEC01F0E552E552200ED0
:101AD000E66EA1EC00F0E55200018C5103E13C0EF2
:101AE0008C6F01D08C07815116E061EC05F083C04A
:101AF000E6FF84C0E6FFBFEC01F0E552E552200EA0
:101B0000E66EA1EC00F0E5523C0E00018C5D02E1B6
:101B10008C6B01D08C2B74D07F5116E061EC05F0FA
:101B200083C0E6FF84C0E6FFBFEC01F0E552E5525A
:101B3000200EE66EA1EC00F0E55200018A5103E1AF
:101B40003C0E8A6F01D08A07815116E061EC05F0E6
:101B500083C0E6FF84C0E6FFBFEC01F0E552E5522A
:101B6000200EE66EA1EC00F0E5523C0E00018A5D0D
:101B700002E18A6B01D08A2B43D07F5117E061ECE0
:101B800005F083C0E6FF84C0E6FFBFEC01F0E5523C
:101B9000E552200EE66EA1EC00F0E5520001835103
:101BA00003E10B0E836F02D00B0E835F815117E0B0
:101BB00061EC05F083C0E6FF84C0E6FFBFEC01F0F6
:101BC000E552E552200EE66EA1EC00F0E5520B0E58
:101BD0000001835D02E1836B02D00B0E83277E51EF
:101BE0000EE061EC05F00001010EA36F00018351CE
:101BF00006E18EC08DF08CC08BF08AC089F000D0D9
:101C000083C0E6FF84C0E6FFBFEC01F0E552E55279
:101C100055EC08F0A6D60001020E846F836B00011C
:101C2000A36B61EC05F0010EE66E16EC00F0E552D8
:101C3000EFEF01F053EC03F00001010E846F836BB2
:101C400083C0E6FF84C0E6FFBFEC01F0E552E55239
:101C50008FC090F00001A35101E00BD1CBEC04F058
:101C600029EC05F0FAEC04F09CEC04F06DEC04F0C7
:101C70000D0EE66E010EE66EBFEC01F0E552E55288
:101C800000019051E66EE66A54EC01F0E552E5522F
:101C90000E0EE66E010EE66EBFEC01F0E552E55267
:101CA00000019051060A43E0030A38E0010A2DE0E2
:101CB000070A22E0010A17E0030A0CE0010A01E02A
:101CC0003FD02D0EE66E230EE66EFCEC00F0E552E2
:101CD000E55236D0280EE66E230EE66EFCEC00F0E0
:101CE000E552E5522DD0230EE66E230EE66EFCEC97
:101CF00000F0E552E55224D01E0EE66E230EE66E8D
:101D0000FCEC00F0E552E5521BD0190EE66E230EF6
:101D1000E66EFCEC00F0E552E55212D0140EE66ED1
:101D2000230EE66EFCEC00F0E552E55209D00F0EF2
:101D3000E66E230EE66EFCEC00F0E552E55200D0B4
:101D40000001805116E061EC05F083C0E6FF84C01D
:101D5000E6FFBFEC01F0E552E552200EE66EA1EC85
:101D600000F0E5520001840503E1020E846F01D00A
:101D70008407825117E061EC05F083C0E6FF84C060
:101D8000E6FFBFEC01F0E552E552200EE66EA1EC55
:101D900000F0E552020E0001845D03E1010E846F44
:101DA00001D0842B8451020A1AE0030A01E056D0C4
:101DB0007F5109E061EC05F00001905103E1060E4E
:101DC000906F01D09007815109E061EC05F0060E9B
:101DD0000001905D02E1906B01D0902B3FD07F51CC
:101DE00017E061EC05F083C0E6FF84C0E6FFBFECBE
:101DF00001F0E552E552200EE66EA1EC00F0E5524E
:101E00000001835103E10B0E836F02D00B0E835F41
:101E1000815117E061EC05F083C0E6FF84C0E6FF66
:101E2000BFEC01F0E552E552200EE66EA1EC00F0A9
:101E3000E5520B0E0001835D02E1836B02D00B0EB5
:101E400083277E510AE061EC05F00001010EA36FCB
:101E50000001835102E190C08FF000D083C0E6FF03
:101E600084C0E6FFBFEC01F0E552E55255EC08F006
:101E7000F1D60001030E846F836B0001A36B61EC4C
:101E800005F0010EE66E16EC00F0E552EFEF01F002
:101E900083C0E6FF84C0E6FFBFEC01F0E552E552E7
:101EA000FB0EE66E220EE66EFCEC00F0E552E5520B
:101EB00000017F5107E189EC07F0D2EC07F09CECC0
:101EC00004F0F6D761EF05F0EFEC01F00001846B50
:101ED00083C0E6FF84C0E6FFBFEC01F0E552E552A7
:101EE00000017F5148E1CBEC04F029EC05F09CECBB
:101EF00004F06DEC04F00001805116E061EC05F097
:101F000083C0E6FF84C0E6FFBFEC01F0E552E55276
:101F1000200EE66EA1EC00F0E5520001845103E1D1
:101F2000030E846F01D08407825116E061EC05F046
:101F300083C0E6FF84C0E6FFBFEC01F0E552E55246
:101F4000200EE66EA1EC00F0E552030E0001845D68
:101F500002E1846B01D0842B7E5102E0DCEC09F0BD
:101F600083C0E6FF84C0E6FFBFEC01F0E552E55216
:101F700055EC08F0B5D761EC05F00001010E846F57
:101F80001200E66AE66ABFEC01F0E552E552E60EA1
:101F9000E66E220EE66EFCEC00F0E552E552E66AD3
:101FA000010EE66EBFEC01F0E552E552D10EE66E91
:101FB000220EE66EFCEC00F0E552E552E66A020EF7
:101FC000E66EBFEC01F0E552E552BC0EE66E220E65
:101FD000E66EFCEC00F0E552E55200017F5128E18D
:101FE0009CEC04F0110EE66EE66ABFEC01F0E552DF
:101FF000E552AAC0E6FFABC0E6FF54EC01F0E552A3
:10200000E552110EE66E010EE66EBFEC01F0E552F0
:10201000E552AEC0E6FFAFC0E6FF54EC01F0E5527A
:10202000E552E66AE66ABFEC01F0E552E552D5D723
:1020300061EC05F00001020E846F1200E66AE66AA8
:10204000BFEC01F0E552E552A70EE66E220EE66EF9
:10205000FCEC00F0E552E552E66A010EE66EBFECDC
:1020600001F0E552E552920EE66E220EE66EFCECB1
:1020700000F0E552E552E66A020EE66EBFEC01F0B2
:10208000E552E5527D0EE66E220EE66EFCEC00F0A7
:10209000E552E552E66A030EE66EBFEC01F0E5524A
:1020A000E552680EE66E220EE66EFCEC00F0E5529C
:1020B000E55200017F5103E19CEC04F0FAD761EC9A
:1020C00005F00001030E846F12006DEC04F00001B6
:1020D0007E511CE061EC05F0010EE66E16EC00F09E
:1020E000E55200018451030A0DE0010A09E0030AE8
:1020F00005E0010A01E008D0CBDE06D0E5DE04D021
:1021000040DF02D09BDF00D023EC02F061EF05F04E
:1021100083C0E6FF84C0E6FFBFEC01F0E552E55264
:10212000CBEC04F029EC05F00001805114E083C0F1
:10213000E6FF84C0E6FFBFEC01F0E552E552200E59
:10214000E66EA1EC00F0E5520001845103E1030EBC
:10215000846F01D08407825114E083C0E6FF84C0FD
:10216000E6FFBFEC01F0E552E552200EE66EA1EC71
:1021700000F0E552030E0001845D02E1846B01D0A2
:10218000842B83C0E6FF84C0E6FFBFEC01F0E5527C
:10219000E55255EC08F061EF05F058EC05F0000150
:1021A0007F5123E10D0EE66E010EE66EBFEC01F0ED
:1021B000E552E55291C0E6FF92C0E6FF54EC01F013
:1021C000E552E552090EE66E010EE66EBFEC01F037
:1021D000E552E55293C0E6FF94C0E6FF54EC01F0EF
:1021E000E552E55258EC05F0DAD77F6B030E846FA9
:1021F000836BC1EF0FF0806A896A010E926E816A6B
:102200008A6A830E936E826A8B6A946A836A8C6A86
:102210000F0E956E846A8D6A966A810EC06E0E0EE0
:10222000C16E010EC26E070EB46EF3EC08F079ECCD
:1022300007F062EC07F0800EE66E080EE66EA5EC85
:1022400013F0E552E552090EC86E71EC00F023EC74
:1022500002F0BFEC09F083885BDF37DF500EBE6E03
:08226000320EBB6EF9D712002B
:082268002020204C696D706517
:102270007A613A20444941524941202000202020DF
:10228000343530783333307837383020636D202060
:10229000200020204D6564696461732064612043DF
:1022A000616978613A200020446573656E766F6CD1
:1022B0007665646F723A204A4D464A004C494D504B
:1022C000455A4153204645495441533A3030202025
:1022D000004D4F544F5220434F4D503A204F4646E9
:1022E0002D30302520004D4F544F522054414D4247
:1022F0003A204F46462D30302520002D2D2D2D2DF6
:102300002D4341542D424F582D2D2D2D2D2D002D77
:10231000534142002D534558002D515549002D5130
:102320005541002D544552002D534547002D444F33
:102330004D00202020202020202020202020202090
:102340002020202020200020202020202020534159
:102350004241444F20202020202020002020202007
:1023600053455854412D46454952412020202020B4
:1023700000202020205155494E54412D46454952B8
:10238000412020202000202020205155415254413E
:102390002D46454952412020202000202020205455
:1023A000455243412D4645495241202020202000DE
:1023B000202020534547554E44412D464549524122
:1023C0002020202000202020202020444F4D494E56
:1023D000474F20202020202020004F4646004F4E0F
:1023E0000020204E4F564120444154413A202020A5
:1023F000202020202000444520305B444F4D5D20AC
:102400004120365B5341425D202000202053454748
:10241000554E444F2E3A20202020202020202000FE
:1024200020204D494E55544F2E2E3A20202020205A
:1024300020202020002020484F52412E2E2E2E3AC0
:1024400020202020202020202000202056454C2025
:102450004D4F544F5220434F4D503A3030250020BD
:102460002056454C204D4F544F522054414D423A36
:10247000303025002020434F4E4649524D41202008
:102480002043414E43454C410020205574696C69FE
:102490007A61646F3A202020202020202000202014
:1024A000436170616369646164653A202020202083
:1024B000202000535052415953202020202020201A
:1024C00020202020202020004D4F544F5220434FE9
:1024D0004D504F525441202020202020004D4F5479
:1024E0004F522054414D424F522020202020202086
:1024F00020002020534F4252452020202020202021
:102500002020202020200020204D4F4E49544F52A3
:10251000414D454E544F2020202020002020434F85
:102520004E464947555241434F45532020202020D5
:10253000002020484F4D4520202020202020202012
:10254000202020202000204553434F4C4841202D7F
:102550002042452048415050592000202020504121
:10256000524142454E532050454C412020202000EE
:102570002042454D2056494E444F20555355415217
:10258000494F2020002D2D2D2D2D2D2D4341542D33
:10259000424F582D2D2D2D2D2D00202044415441EA
:1025A000202020202020202020202020202000204B
:1025B00020484F524120444F2052454C4F47494FED
:1025C00020202000202056454C4F4349444144459B
:1025D000204D4F544F5245530020205350524159E3
:0E25E0002050554946494341444F52202000A7
:0225EE001E0EBF
:1025F000F66E000EF76E000EF86E00010900F55041
:10260000B76F0900F550B86F03E1B76701D03DD04F
:102610000900F550B26F0900F550B36F0900F5508D
:10262000B46F09000900F550E96E0900F550EA6E33
:10263000090009000900F550B56F0900F550B66FA3
:1026400009000900F6CFB9F0F7CFBAF0F8CFBBF028
:10265000B2C0F6FFB3C0F7FFB4C0F8FF0001B55336
:1026600002E1B65307E00900F550EE6EB507F8E257
:10267000B607F9D7B9C0F6FFBAC0F7FFBBC0F8FF7D
:0C2680000001B707000EB85BBFD71200C6
:04268C00D9CFE6FFBD
:10269000DACFE6FFE1CFD9FFE2CFDAFFFD0EDB5064
:1026A000C96EC6AE02D0FF0E24D00F0EC6140808A5
:1026B0000FE00F0EC6140B080BE0C6889EA6FED7CF
:1026C000C750040B03E1C750010B10E0000E11D0FE
:1026D0000F0EC614080804E00F0EC6140B0809E11B
:1026E000C7B0FED72BEC14F0C5AC02D0FE0E01D063
:0E26F000000EE552E5CFDAFFE7CFD9FF12006A
:0226FE00006A70
:102700000EAE88EF13F00D6C0E1EE86A0E22001E4E
:1027100009AE90EF13F0086C091EE86A0922001E4A
:10272000C0EC13F009BEA0EF13F000AE000C086C73
:10273000091EE86A0922046C051EE86A0522000CDD
:0A27400000BE97EF13F00188FF0CB4
:06274A00D9CFE6FFDACF53
:10275000E6FFE1CFD9FFE2CFDAFF3F0EC716C66A28
:10276000C56AFD0EDB50C612FC0EDB50C712938209
:102770009380C68AE552E5CFDAFFE7CFD9FF120092
:10278000056A046A100EE76ED890083609360436DA
:1027900005360D50045C0E50055805E30D50045EDF
:0C27A0000E50055A082AE72EF0D7120050
:0427AC00FF0EE350E9
:1027B000156E480E01D04C0EE76EE72EFED7E76A85
:0C27C000E72EFED7152EF7D70000120000
:0427CC00000EF36E9A
:1027D00000EE00F0080E01D81200EA6002D0EE6AA6
:0C27E000FCD7F350E9601200EE6AFCD751
:0427EC0013EE00F0F8
:1027F00023EE00F0F86A019CF7EC12F003EC00F015
:08280000FBEC10F0FBD7120005
:08280800FF0EE350156E1B0EDC
:1028100000D001D0200EE76EE72EFED7152EFAD796
:0428200000D01200D2
:0C282400056A080EE76ED89009360536EC
:102830000E50055C02E3056E092AE72EF7D7120059
:10284000FF0EE350E84E1200000000D000D000D090
:06285000E82EFAD7120089
:0A2856001F0EC514FDE1C750040B6E
:04286000FAE1120087
:0C2864000130306830306D696E30307328
:102870006563003030300030303000DEDA000000B8
:102880000000000000000000000100000026003BE6
:10289000001700000000000000FF02AA020002DB97
:0628A0000266020A0000BE
:020000040030CA
:010001000CF2
:010002001EDF
:010003001EDE
:0100050003F7
:010006008178
:00000001FF
