:020000040000FA
:0600000033EF15F01200C1
:020006001200E6
:0600080013EF07F01200E7
:060018008EEF07F012005C
:02001E000100DF
:0C002000DE2A0000600000005500000017
:04002C00D9CFE6FF43
:10003000E1CFD9FFE65268EC15F0C580C5B0FED718
:1000400068EC15F04E0EE66E83EC14F0E552FE0EF1
:10005000DB50F00BDF6E0C0EDF10DF6E68EC15F07E
:10006000DFCFE6FF83EC14F0E552010EE66E5DECA7
:1000700015F0E552F80EDF14DF6E68EC15F0DFCFF7
:10008000E6FF83EC14F0E552FE0EDB38F00BF00BCC
:10009000DF6E0C0EDF10DF6E68EC15F0DFCFE6FFD1
:1000A00083EC14F0E552010EE66E5DEC15F0E552BE
:1000B000F80EDF14DF6E68EC15F0DFCFE6FF83EC9F
:1000C00014F0E55268EC15F0C584C5B4FED7050EF2
:1000D000E66E13EC15F0E552E552E552E7CFD9FF95
:1000E0001200140EE66E13EC15F0E552300EE66EBB
:1000F0009DDFE552050EE66E13EC15F0E552300E6D
:10010000E66E94DFE552020EE66E41EC15F0E55224
:10011000300EE66E8BDFE552020EE66E87DFE552AB
:10012000280EE66E83DFE552060EE66E7FDFE552AF
:100130000C0EE66E7BDFE552010EE66E77DFE552D0
:100140001200D9CFE6FFE1CFD9FFE65268EC15F0F7
:10015000C580C5B0FED768EC15F04E0EE66E83EC98
:1001600014F0E552FE0EDB50F00BDF6E0D0EDF10CB
:10017000DF6E68EC15F0DFCFE6FF83EC14F0E5529C
:100180000A0EE66E5DEC15F0E552F90EDF14DF6E37
:1001900068EC15F0DFCFE6FF83EC14F0E552FE0EBD
:1001A000DB38F00BF00BDF6E0D0EDF10DF6E68EC4E
:1001B00015F0DFCFE6FF83EC14F0E5520A0EE66E91
:1001C0005DEC15F0E552F90EDF14DF6E68EC15F00A
:1001D000DFCFE6FF83EC14F0E55268EC15F0C58440
:1001E000C5B4FED7050EE66E13EC15F0E552E552E8
:1001F000E552E7CFD9FF1200D9CFE6FFE1CFD9FF13
:10020000FD0EDBCFF6FFFE0EDBCFF7FF0800F5504B
:1002100011E0FD0EDBCFF6FFFE0EDBCFF7FF08008F
:10022000F550E66E8EDFE552FD0EDB2AFE0E01E391
:10023000DB2AE6D7E552E7CFD9FF1200D9CFE6FF98
:10024000E1CFD9FF030EE126FD0EDBCFDEFFDBCFD2
:10025000DDFF020EDB6AD9CFE9FFDACFEAFF0A0E33
:100260000D6E0E6AEECF08F0EDCF09F0BCEC14F085
:1002700008C0EEFF09C0EDFF020EDB2AD9CFE9FF6F
:10028000DACFEAFFEE50ED10E6E1020EDB50106E21
:10029000030EE15C03E200D0E16AE552E16E10502A
:1002A000E552E7CFD9FF1200D9CFE6FFE1CFD9FF62
:1002B000040EE126DE6ADD6AFD0EDBCF08F0FE0EDD
:1002C000DBCF09F0020E08C0DBFF030E09C0DBFF25
:1002D000040EE66EABDEE552FD0EDBCFE6FFFE0E52
:1002E000DBCFE6FFABDFE552E552DE6EDD6ADECF47
:1002F00010F0DDCF11F0113404E210500008000EB0
:1003000011542FE2020EDBCF10F0030EDBCF11F001
:100310000A0E0D6E0E6A10C008F011C009F0FDEC57
:1003200014F004C010F005C011F0300E1024E66E79
:1003300008DFE552D950020FE96EDACFEAFF0A0E64
:100340000D6E0E6AEECF08F0EDCF09F0FDEC14F063
:1003500008C0EEFF09C0EDFFDF06010E01E2DB067B
:10036000C6D7060EE66E62DEE552040EE15C02E2DE
:10037000E16AE552E16EE552E7CFD9FF1200D9CF2D
:10038000E6FFE1CFD9FFE652DF6AFE0EDB50030A3B
:1003900016E0010A0FE0030A08E0010A01E014D0A8
:1003A000FD0EDB50800FDF6E0FD0FD0EDB50C00F57
:1003B000DF6E0AD0FD0EDB50940FDF6E05D0FD0E10
:1003C000DB50D40FDF6E00D0DF5004E0DFCFE6FF5C
:1003D0002DDEE552E552E552E7CFD9FF1200E66A7D
:1003E000E66ACDDFE552E552530EE66E280EE66E64
:1003F00003DFE552E552E66A010EE66EC0DFE55224
:10040000E5523E0EE66E280EE66EF6DEE552E55249
:10041000E66A020EE66EB3DFE552E552290EE66E9D
:10042000280EE66EE9DEE552E552E66A030EE66E58
:10043000A6DFE552E552140EE66E280EE66EDCDE0F
:10044000E552E5521200010E0001605D3BE3010E32
:10045000E66EECDDE552E66AE66A91DFE552E552CA
:10046000FF0EE66E270EE66EC7DEE552E552E66A3F
:10047000010EE66E84DFE552E552EA0EE66E270EC7
:10048000E66EBADEE552E552E66A020EE66E77DF08
:10049000E552E552D50EE66E270EE66EADDEE5526C
:1004A000E552E66A030EE66E6ADFE552E552C00EDB
:1004B000E66E270EE66EA0DEE552E55200016051C1
:1004C00001E0FCD7010EE66EB1DDE552E66AE66AB0
:1004D00056DFE552E552AB0EE66E270EE66E8CDE79
:1004E000E552E552E66A010EE66E49DFE552E55255
:1004F000960EE66E270EE66E7FDEE552E552E66A60
:10050000020EE66E3CDFE552E552810EE66E270EE6
:10051000E66E72DEE552E552E66A030EE66E2FDF06
:10052000E552E5526C0EE66E270EE66E65DEE5528C
:10053000E5521200010EE66E79DDE552E66AE66AE2
:100540001EDFE552E552570EE66E270EE66E54DECC
:10055000E552E552E66A010EE66E11DFE552E5521C
:10056000420EE66E270EE66E47DEE552E552E66A7B
:10057000020EE66E04DFE552E5522D0EE66E270E02
:10058000E66E3ADEE552E5521200010EE66E4EDDF1
:10059000E552E66AE66AF3DEE552E552180EE66ECB
:1005A000270EE66E29DEE552E552E66A010EE66E9A
:1005B000E6DEE552E552030EE66E270EE66E1CDE21
:1005C000E552E552E66A020EE66ED9DEE552E552E4
:1005D000EE0EE66E260EE66E0FDEE552E5521200D6
:1005E000010EE66E23DDE552E66AE66AC8DEE552F4
:1005F000E552D90EE66E260EE66EFEDDE552E552B8
:10060000E66A010EE66EBBDEE552E552C40EE66E0A
:10061000260EE66EF1DDE552E552E66A020EE66E62
:10062000AEDEE552E552EE0EE66E260EE66EE4DD37
:10063000E552E5521200010EE66EF8DCE552E66A7C
:10064000E66A9DDEE552E552AF0EE66E260EE66ED8
:10065000D3DDE552E552E66A010EE66E90DEE55224
:10066000E5529A0EE66E260EE66EC6DDE552E552BE
:10067000E66A020EE66E83DEE552E552850EE66E10
:10068000260EE66EB9DDE552E552E66A030EE66E29
:1006900076DEE552E552EE0EE66E260EE66EACDD37
:1006A000E552E5521200010EE66EC0DCE552E66A44
:1006B000E66A65DEE552E552700EE66E260EE66EDF
:1006C0009BDDE552E552E66A010EE66E58DEE55224
:1006D000E5525B0EE66E260EE66E8EDDE552E552C5
:1006E000E66A020EE66E4BDEE552E552EE0EE66E6F
:1006F000260EE66E81DDE552E5521200400EE66EF2
:1007000095DCE552040EE66E1CDDE5521B0EE66E2E
:1007100018DDE552110EE66E14DDE552110EE66E9F
:1007200010DDE552110EE66E0CDDE552110EE66E9F
:1007300008DDE5521F0EE66E04DDE5521F0EE66E83
:1007400000DDE5521200400EE66E70DCE552040E4C
:10075000E66EF7DCE5520E0EE66EF3DCE552E66A75
:10076000F0DCE552E66AEDDCE552010EE66EE9DC0E
:10077000E552130EE66EE5DCE5521E0EE66EE1DC98
:10078000E552E66ADEDCE5521200400EE66E4EDC13
:10079000E552040EE66ED5DCE5520E0EE66ED1DCB7
:1007A000E552E66ACEDCE552E66ACBDCE552100E95
:1007B000E66EC7DCE552190EE66EC3DCE5520F0E9D
:1007C000E66EBFDCE552E66ABCDCE5521200BBDF38
:1007D000DCDF7EEF03F0D9CFE6FFE1CFD9FFFE0EDD
:1007E000DB500F0BF36EF346F346C30EC214F31047
:1007F000C26E010EE66E41EC15F0E552C282C2B245
:10080000FED7C3CFF3FFC4CFF4FF00D0E552E7CF4C
:10081000D9FF1200D9CFE6FFE1CFD9FF020EE126C2
:10082000DF6A050EDF5C4FE2010EDB6AEA6ADF3445
:10083000FE0BEA36E96EA80EE926000EEA22EECF9C
:1008400010F0EFCF11F0050E105E000E115A0001EE
:100850001050B95D1150BA592BE3EA6ADF34FE0B30
:10086000EA36E96EA80EE926000EEA22EECF12F073
:10087000EFCF13F0050E1226000E1322B951125CB1
:10088000BA51135815E3DE52010EDD6EDB5010E055
:10089000DF50EA6A7F0FE96E000EEA22EF5008E1AE
:1008A000DF50EA6A840FE96E000EEA22010EEF6E55
:1008B000DF50EA6A7F0FE96E000EEA22010EDBCFFD
:1008C000EFFFDF2AAED7020EE15C02E2E16AE552F9
:1008D000E16EE552E7CFD9FF1200E66A7CDFE55210
:1008E000F3CFB9F0F4CFBAF00001B56BA8C010F0A7
:1008F000A9C011F0050E105E000E115A1050B95D1E
:100900001150BA5916E3050E0001136AA825126E9C
:10091000A95113220001B951125CBA51135809E3CD
:10092000010EB56FB55105E000017F5102E1010EE6
:10093000846FB5C07FF01200E66A4DDFE552F3CF59
:10094000B9F0F4CFBAF00001B56BAAC010F0ABC09B
:1009500011F0050E105E000E115A1050B95D1150C5
:10096000BA5916E3050E0001136AAA25126EAB519F
:1009700013220001B951125CBA51135809E3010E58
:10098000B56FB55105E00001805102E1010E856FA0
:10099000B5C080F01200E66A1EDFE552F3CFB9F071
:1009A000F4CFBAF00001B56BACC010F0ADC011F0DF
:1009B000050E105E000E115A1050B95D1150BA5953
:1009C00016E3050E0001136AAC25126EAD51132219
:1009D0000001B951125CBA51135809E3010EB56F09
:1009E000B55105E00001815102E1010E866FB5C0ED
:1009F00081F01200E66AEFDEE552F3CFB9F0F4CFF2
:100A0000BAF00001B56BAEC010F0AFC011F0050E2A
:100A1000105E000E115A1050B95D1150BA5916E30C
:100A2000050E0001136AAE25126EAF5113220001AC
:100A3000B951125CBA51135809E3010EB56FB551A3
:100A400005E00001825102E1010E876FB5C082F01E
:100A50001200E66AC0DEE552F3CFB9F0F4CFBAF087
:100A60000001B56BB0C010F0B1C011F0050E105E02
:100A7000000E115A1050B95D1150BA5916E3050E07
:100A80000001136AB025126EB15113220001B95151
:100A9000125CBA51135809E3010EB56FB55105E068
:100AA0000001835102E1010E886FB5C083F012008E
:100AB000E66A91DEE552F3CFB9F0F4CFBAF00AEF6F
:100AC00004F0D9CFE6FFE1CFD9FFE652DF6A050E89
:100AD000DF5C09E2DF50EA6A840FE96E000EEA2269
:100AE000EF6ADF2AF4D7E552E552E7CFD9FF1200CB
:100AF000D9CFE6FFE1CFD9FFFE0EDB50E8B081840D
:100B0000E8A08194FD0EDB50E8B08186E8A08196D4
:100B1000E552E7CFD9FF1200817481761200D9CF58
:100B2000E6FFE1CFD9FFFE0EDB50E8B08188E8A0F8
:100B30008198FD0EDB50E8B0818AE8A0819AE552E9
:100B4000E7CFD9FF12008178817A12003AD8106E6F
:100B5000010EE76E1018E8AE02D0E73402D0E7507D
:100B6000105C11E22ED8010808E0E66A010EE66E7C
:100B7000BFDFE552E552EED8F5D7E66AE66AB8DFA0
:100B8000E552E552E7D838D8106E010EE76E10181E
:100B9000E8AE02D0E73402D0E750105C11E22CD866
:100BA000010808E0E66A010EE66EB9DFE552E5529B
:100BB000D1D8F5D7E66AE66AB2DFE552E552CAD87F
:100BC00012008350010B06E08350020B03E1010E7B
:100BD00012D011D08350010B06E18350020B03E1C8
:100BE000FF0E09D008D08350010B05E18350020BA2
:100BF00002E0000E00D012008350040B06E0835088
:100C0000080B03E1010E12D011D08350040B06E152
:100C10008350080B03E1FF0E09D008D08350040B6A
:100C200005E18350080B02E0000E00D01200D9CF7E
:100C3000E6FFE1CFD9FFE652A4C0BEFFA6C0BBFFCE
:100C400085DF8FC0DFFFDF5000018F5D106E040E67
:100C5000105C01E2F8D7D0DF000908E0010EE66E73
:100C6000E66A5DDFE552E55275D8F5D7E66AE66AD1
:100C700056DFE552E5526ED8A4DF000908E0010E08
:100C8000E66EE66A35DFE552E55264D8F5D7E66AE6
:100C9000E66A2EDFE552E5525DD882808FC0DFFF25
:100CA000DF5000018F5D106E040E105C01E2F8D77A
:100CB00082904CDF4FD800019C2B000E9D23A02B6F
:100CC000A123A22BA323E552E552E7CFD9FF1200BF
:100CD000010EE66E80DDE552F3CF98F0F4CF99F087
:100CE00000019A519C5D7B6F9B519D597C6FD88010
:100CF0007C5104E7FF0E7B5DFF0E7C5907E2F40E8A
:100D0000985D010E995902E2829C0CD0800E7C15F0
:100D100006E0BC0ED8809855020E995502E2828CEE
:100D200001D0827C12008150040B05E18150080B38
:100D300002E1000E02D0010E00D012008150100B13
:100D400006E18150200B03E1000E03D002D0010E1A
:100D500000D012000001970546E1E5DF000910E030
:100D60000C0EE66EE66ABFEC01F0E552E552570E56
:100D7000E66E260EE66EFCEC00F0E552E5520FD072
:100D80000C0EE66EE66ABFEC01F0E552E552530E3A
:100D9000E66E260EE66EFCEC00F0E552E552CEDF84
:100DA000000911E00C0EE66E010EE66EBFEC01F0DC
:100DB000E552E552570EE66E260EE66EFCEC00F0AC
:100DC000E552E55210D00C0EE66E010EE66EBFEC59
:100DD00001F0E552E552530EE66E260EE66EFCEC8F
:100DE00000F0E552E5521200D9CFE6FFE1CFD9FF7E
:100DF000D950FD0FE96EFF0EDA20EA6E000ED880A2
:100E0000EE54000EED540BE20A0EE66E41EC15F0C6
:100E1000E552FD0EDB06FE0E01E2DB06E9D7E552E8
:100E2000E7CFD9FF1200DACFE4FFE2CFDAFFE9CF54
:100E3000E4FFEACFE4FFF6CFE4FFF7CFE4FFF5CF1E
:100E4000E4FFF3CFE4FFF4CFE4FFFACFE4FF00EEDA
:100E500000F0100EE80403E3EECFE4FFFBD700EE52
:100E600010F0040EE80403E3EECFE4FFFBD7E652F4
:100E7000F2A430D000018E2B8B5102E0000E01D085
:100E8000010E8B6F25DF00018D5102E0827A01D0C7
:100E9000829A020E8E5D1DE18E6B6051000801E2A8
:100EA0006007B207000EB35B8F2B3C0E8F5D11E124
:100EB0008F6B912B3C0E915D0CE1916B932B180E77
:100EC000935D07E1936B060E955D02E1956B01D092
:100ED000952BA3D8E55200EE13F0040EE80403E3CB
:100EE000E5CFEDFFFBD700EE0FF0100EE80403E3B3
:100EF000E5CFEDFFFBD7E5CFFAFFE5CFF4FFE5CF78
:100F0000F3FFE5CFF5FFE5CFF7FFE5CFF6FFE5CF40
:100F1000EAFFE5CFE9FFE5CFDAFF1100D8CFE4FF24
:100F2000E0CFE4FFE46EDACFE4FFE2CFDAFFE9CF0F
:100F3000E4FFEACFE4FFF6CFE4FFF7CFE4FFF5CF1D
:100F4000E4FFF3CFE4FFF4CFE4FFFACFE4FF00EED9
:100F500000F0100EE80403E3EECFE4FFFBD700EE51
:100F600010F0040EE80403E3EECFE4FFFBD7E652F3
:100F7000F2A006D00001010E8D6F59DE00018D6BCD
:100F8000815000E0F290E55200EE13F0040EE80408
:100F900003E3E5CFEDFFFBD700EE0FF0100EE80402
:100FA00003E3E5CFEDFFFBD7E5CFFAFFE5CFF4FF95
:100FB000E5CFF3FFE5CFF5FFE5CFF7FFE5CFF6FF90
:100FC000E5CFEAFFE5CFE9FFE5CFDAFFE550E5CF72
:100FD000E0FFE5CFD8FF1000D08EF28EF28CF184C6
:100FE000F190F28AF2861200CD8ECD8CCD9ACD98FA
:100FF000CD86CD94CD92CD80FEEF07F09E90C00EB1
:10100000CF6ECE6A1200D58ED59CD59AD598D5963E
:10101000D594D582D5800DEF08F0F294850ED76E69
:10102000EE0ED66E12000A0E106E10C00EF093C0B7
:1010300009F04FEC15F00550300F0001626F0A0EF9
:10104000106E10C00EF093C009F04FEC15F009506F
:10105000300F0001616F0A0E106E10C00EF091C0CB
:1010600009F04FEC15F00550300F0001656F0A0EC6
:10107000106E10C00EF091C009F04FEC15F0095041
:10108000300F0001646F0A0E106E10C00EF08FC09A
:1010900009F04FEC15F00550300F00016A6F0A0E91
:1010A000106E10C00EF08FC009F04FEC15F0095013
:1010B000300F0001696F1200D9CFE6FFE1CFD9FFF1
:1010C000E652DF6A040EE66E010EE66EBFEC01F03A
:1010D000E552E552DF6A0E0EDF5C0DE2DF50EA6A90
:1010E000610FE96E000EEA22EF50E66EA1EC00F00F
:1010F000E552DF2AF0D7E66A020EE66EBFEC01F099
:10110000E552E55200019551060A4BE0030A40E022
:10111000010A35E0070A2AE0010A1FE0030A14E089
:10112000010A09E0AB0EE66E250EE66EFCEC00F05F
:10113000E552E5523FD03E0EE66E260EE66EFCEC22
:1011400000F0E552E55236D0290EE66E260EE66E28
:10115000FCEC00F0E552E5522DD0140EE66E260EA2
:10116000E66EFCEC00F0E552E55224D0FF0EE66E90
:10117000250EE66EFCEC00F0E552E5521BD0EA0EBF
:10118000E66E250EE66EFCEC00F0E552E55212D05C
:10119000D50EE66E250EE66EFCEC00F0E552E5524B
:1011A00009D0C00EE66E250EE66EFCEC00F0E552AE
:1011B000E55200D0E552E552E7CFD9FF1200000119
:1011C0008B5106E03E0EE66EA1EC00F0E55205D034
:1011D000200EE66EA1EC00F0E552120000018A6BD1
:1011E0000C0E896F0001855101E083D0CBEC04F037
:1011F00030DC9CEC04F0020E00018925E66EE66A04
:10120000BFEC01F0E552E55200019351E66EE66A4B
:1012100054EC01F0E552E552020E00018925E66E1C
:10122000010EE66EBFEC01F0E552E552000191516E
:10123000E66EE66A54EC01F0E552E552020E00015A
:101240008925E66E020EE66EBFEC01F0E552E5522E
:1012500000018F51E66EE66A54EC01F0E552E5526A
:101260000001865115E0866B89C0E6FF8AC0E6FF63
:10127000BFEC01F0E552E552200EE66EA1EC00F065
:10128000E55200018A5103E1020E8A6F01D08A07FC
:10129000885115E0886B89C0E6FF8AC0E6FFBFEC85
:1012A00001F0E552E552200EE66EA1EC00F0E552A9
:1012B000020E00018A5D02E18A6B01D08A2B130EB7
:1012C000E66E030EE66EBFEC01F0E552E55200015A
:1012D0008C51E66EE66A54EC01F0E552E55289C0A5
:1012E000E6FF8AC0E6FFBFEC01F0E552E55267DF9A
:1012F00079D761EC05F00001010E8A6F896B12004D
:10130000CA9CCA9ACA98CA96CA84CA92CA909E921D
:10131000640ECB6EBD9ABD98BD86BD84BD92BD9056
:10132000BE6ABA9ABA98BA86BA84BA92BA90BB6AB6
:1013300012009EC010F09FC011F00A0E0D6E0E6AD2
:1013400010C008F011C009F0FDEC14F004C010F05A
:1013500005C011F0300E10240001716F9EC010F016
:101360009FC011F00A0E0D6E0E6A10C008F011C079
:1013700009F0FDEC14F008C010F009C011F00A0EDD
:101380000D6E0E6A10C008F011C009F0FDEC14F0EB
:1013900004C010F005C011F0300E10240001706F71
:1013A0009EC010F09FC011F00A0E0D6E0E6A10C0A4
:1013B00008F011C009F0FDEC14F008C010F009C0ED
:1013C00011F00A0E0D6E0E6A10C008F011C009F07F
:1013D000FDEC14F008C010F009C011F0300E10241C
:1013E00000016F6FA0C010F0A1C011F00A0E0D6EC9
:1013F0000E6A10C008F011C009F0FDEC14F004C032
:1014000010F005C011F0300E10240001756FA0C05F
:1014100010F0A1C011F00A0E0D6E0E6A10C008F097
:1014200011C009F0FDEC14F008C010F009C011F073
:101430000A0E0D6E0E6A10C008F011C009F0FDEC26
:1014400014F004C010F005C011F0300E102400019B
:10145000746FA0C010F0A1C011F00A0E0D6E0E6ADC
:1014600010C008F011C009F0FDEC14F008C010F035
:1014700009C011F00A0E0D6E0E6A10C008F011C0FE
:1014800009F0FDEC14F008C010F009C011F0300EA6
:1014900010240001736F1200A2C010F0A3C011F05D
:1014A0000A0E0D6E0E6A10C008F011C009F0FDECB6
:1014B00014F004C010F005C011F0300E102400012B
:1014C000796FA2C010F0A3C011F00A0E0D6E0E6A63
:1014D00010C008F011C009F0FDEC14F008C010F0C5
:1014E00009C011F00A0E0D6E0E6A10C008F011C08E
:1014F00009F0FDEC14F004C010F005C011F0300E3E
:1015000010240001786FA2C010F0A3C011F00A0EE1
:101510000D6E0E6A10C008F011C009F0FDEC14F059
:1015200008C010F009C011F00A0E0D6E0E6A10C04E
:1015300008F011C009F0FDEC14F008C010F009C06B
:1015400011F0300E10240001776F120000018A5153
:1015500003E1010E8C6F16D08A5106E1080E895DF9
:1015600003E1020E8C6F0ED08A0505E1895103E17B
:10157000030E8C6F07D08A0505E1080E895D02E134
:10158000040E8C6F1200010EE66E16EC00F0E552B0
:1015900000018A51030A0DE0010A09E0030A05E08F
:1015A000010A01E009D00AD807D038D905D087DA76
:1015B00003D0DBEC0EF000D061EF05F0C5EC02F0DB
:1015C00000018A6B896B89C0E6FF8AC0E6FFBFEC29
:1015D00001F0E552E5529AC09EF09BC09FF09CC07E
:1015E000A0F09DC0A1F00001B65101E009D1CBEC03
:1015F00004F029EC05F0FAEC04F09CEC04F06DEC3E
:1016000004F097DE0001B86B030EB85D2DE20F0EFB
:10161000B825E66EE66ABFEC01F0E552E55200013E
:10162000B851EA6A6F0FE96E000EEA22EF50E66EDB
:10163000A1EC00F0E5520F0E0001B825E66E010E98
:10164000E66EBFEC01F0E552E5520001B851EA6ADE
:10165000730FE96E000EEA22EF50E66EA1EC00F087
:10166000E5520001B82BD0D70001865116E061EC9D
:1016700005F089C0E6FF8AC0E6FFBFEC01F0E55245
:10168000E552200EE66EA1EC00F0E55200018A5111
:1016900003E1020E8A6F01D08A07885116E061ECDF
:1016A00005F089C0E6FF8AC0E6FFBFEC01F0E55215
:1016B000E552200EE66EA1EC00F0E552020E0001AC
:1016C0008A5D02E18A6B01D08A2B8A51020A49E0C5
:1016D000030A25E0010A01E089D085510CE061ECA4
:1016E00005F000019E519F1103E19E6B9F6B03D09B
:1016F0009E07000E9F5B875111E061EC05F0E70E3D
:1017000000019E1902E1030E9F1905E1E70E9E6F8D
:10171000030E9F6F03D09E2B000E9F2367D0855131
:101720000CE061EC05F00001A051A11103E1A06BF8
:10173000A16B03D0A007000EA15B875111E061EC03
:1017400005F0E70E0001A01902E1030EA11905E161
:10175000E70EA06F030EA16F03D0A02B000EA123F4
:1017600045D0855117E061EC05F089C0E6FF8AC0DD
:10177000E6FFBFEC01F0E552E552200EE66EA1EC6B
:1017800000F0E5520001895103E10B0E896F02D090
:101790000B0E895F875117E061EC05F089C0E6FF09
:1017A0008AC0E6FFBFEC01F0E552E552200EE66E7E
:1017B000A1EC00F0E5520B0E0001895D02E1896B9E
:1017C00002D00B0E8927845110E061EC05F0000176
:1017D000010EB66F0001895108E19EC09AF09FC0CA
:1017E0009BF0A0C09CF0A1C09DF000D089C0E6FF96
:1017F0008AC0E6FFBFEC01F0E552E552E0DCF3D62B
:1018000000018A6B896B0001B66B61EC05F0010E7B
:10181000E66E16EC00F0E552EFEF01F0F0EC02F0AE
:1018200000018A6B896B89C0E6FF8AC0E6FFBFECC6
:1018300001F0E552E552A4C0BBF0A5C0BCF0A6C0C3
:10184000BDF0A7C0BEF00001B65101E029D1CBEC3C
:1018500004F029EC05F0FAEC04F09CEC04F06DECDB
:1018600004F0120EE66EE66ABFEC01F0E552E552B6
:10187000BBC0E6FFBCC0E6FF54EC01F0E552E55208
:10188000120EE66E010EE66EBFEC01F0E552E55277
:10189000BDC0E6FFBEC0E6FF54EC01F0E552E552E4
:1018A0000001865116E061EC05F089C0E6FF8AC0B0
:1018B000E6FFBFEC01F0E552E552200EE66EA1EC2A
:1018C00000F0E55200018A5103E1020E8A6F01D057
:1018D0008A07885116E061EC05F089C0E6FF8AC0EE
:1018E000E6FFBFEC01F0E552E552200EE66EA1ECFA
:1018F00000F0E552020E00018A5D02E18A6B01D020
:101900008A2B8A51020A01E17BD0030A3EE0010AD8
:1019100001E0BBD085511AE061EC05F089C0E6FF1B
:101920008AC0E6FFBFEC01F0E552E552200EE66EFC
:10193000A1EC00F0E5520001BB51BC1104E1630EC3
:10194000BB6FBC6B03D0BB07000EBC5B00018751B3
:101950001BE061EC05F089C0E6FF8AC0E6FFBFEC42
:1019600001F0E552E552200EE66EA1EC00F0E552E2
:101970000001630EBB1901E1BC5103E1BB6BBC6B01
:1019800003D0BB2B000EBC2380D085511AE061EC44
:1019900005F089C0E6FF8AC0E6FFBFEC01F0E55222
:1019A000E552200EE66EA1EC00F0E5520001BD51BB
:1019B000BE1104E1630EBD6FBE6B03D0BD07000E08
:1019C000BE5B000187511BE061EC05F089C0E6FFBA
:1019D0008AC0E6FFBFEC01F0E552E552200EE66E4C
:1019E000A1EC00F0E5520001630EBD1901E1BE510A
:1019F00003E1BD6BBE6B03D0BD2B000EBE2345D0F3
:101A0000855117E061EC05F089C0E6FF8AC0E6FF6A
:101A1000BFEC01F0E552E552200EE66EA1EC00F0BD
:101A2000E5520001895103E10B0E896F02D00B0EC4
:101A3000895F875117E061EC05F089C0E6FF8AC035
:101A4000E6FFBFEC01F0E552E552200EE66EA1EC98
:101A500000F0E5520B0E0001895D02E1896B02D0B6
:101A60000B0E8927845110E061EC05F00001010E96
:101A7000B66F0001895108E1BDC0A6F0BEC0A7F055
:101A8000BBC0A4F0BCC0A5F000D089C0E6FF8AC0EE
:101A9000E6FFBFEC01F0E552E552DFEC08F0D3D6EB
:101AA0000001010E8A6F896B0001B66B61EC05F0D5
:101AB000010EE66E16EC00F0E552EFEF01F01BECC4
:101AC00003F000018A6B896B89C0E6FF8AC0E6FFDC
:101AD000BFEC01F0E552E5528FC090F091C092F05A
:101AE00093C094F00001B65101E056D1CBEC04F064
:101AF00029EC05F0FAEC04F09CEC04F06DEC04F039
:101B00000E0EE66EE66ABFEC01F0E552E55200010A
:101B10009451E66EE66A54EC01F0E552E5520E0E81
:101B2000E66E010EE66EBFEC01F0E552E5520001F3
:101B30009251E66EE66A54EC01F0E552E5520E0E63
:101B4000E66E020EE66EBFEC01F0E552E5520001D2
:101B50009051E66EE66A54EC01F0E552E552000160
:101B6000865116E061EC05F089C0E6FF8AC0E6FF09
:101B7000BFEC01F0E552E552200EE66EA1EC00F05C
:101B8000E55200018A5103E1030E8A6F01D08A07F2
:101B9000885116E061EC05F089C0E6FF8AC0E6FFD7
:101BA000BFEC01F0E552E552200EE66EA1EC00F02C
:101BB000E552030E00018A5D02E18A6B01D08A2B97
:101BC0008A51030A01E19AD0010A67E0030A34E06E
:101BD000010A01E0D6D0855116E061EC05F089C01C
:101BE000E6FF8AC0E6FFBFEC01F0E552E552200EA9
:101BF000E66EA1EC00F0E5520001945103E1180EED
:101C0000946F01D09407875116E061EC05F089C00C
:101C1000E6FF8AC0E6FFBFEC01F0E552E552200E78
:101C2000E66EA1EC00F0E552180E0001945D02E1B1
:101C3000946B01D0942BA5D0855116E061EC05F092
:101C400089C0E6FF8AC0E6FFBFEC01F0E552E5522D
:101C5000200EE66EA1EC00F0E5520001925103E186
:101C60003C0E926F01D09207875116E061EC05F0AF
:101C700089C0E6FF8AC0E6FFBFEC01F0E552E552FD
:101C8000200EE66EA1EC00F0E5523C0E0001925DE4
:101C900002E1926B01D0922B74D0855116E061EC79
:101CA00005F089C0E6FF8AC0E6FFBFEC01F0E5520F
:101CB000E552200EE66EA1EC00F0E55200019051D5
:101CC00003E13C0E906F01D09007875116E061EC64
:101CD00005F089C0E6FF8AC0E6FFBFEC01F0E552DF
:101CE000E552200EE66EA1EC00F0E5523C0E00013C
:101CF000905D02E1906B01D0902B43D0855117E0AD
:101D000061EC05F089C0E6FF8AC0E6FFBFEC01F098
:101D1000E552E552200EE66EA1EC00F0E55200011E
:101D2000895103E10B0E896F02D00B0E895F875139
:101D300017E061EC05F089C0E6FF8AC0E6FFBFEC62
:101D400001F0E552E552200EE66EA1EC00F0E552FE
:101D50000B0E0001895D02E1896B02D00B0E892711
:101D600084510EE061EC05F00001010EB66F000138
:101D7000895106E194C093F092C091F090C08FF029
:101D800000D089C0E6FF8AC0E6FFBFEC01F0E55253
:101D9000E552DFEC08F0A6D60001020E8A6F896BCF
:101DA0000001B66B61EC05F0010EE66E16EC00F07A
:101DB000E552EFEF01F053EC03F00001010E8A6FE2
:101DC000896B89C0E6FF8AC0E6FFBFEC01F0E552EF
:101DD000E55295C096F00001B65101E00BD1CBEC75
:101DE00004F029EC05F0FAEC04F09CEC04F06DEC46
:101DF00004F00D0EE66E010EE66EBFEC01F0E5524A
:101E0000E55200019651E66EE66A54EC01F0E552A7
:101E1000E5520E0EE66E010EE66EBFEC01F0E552E5
:101E2000E55200019651060A43E0030A38E0010A30
:101E30002DE0070A22E0010A17E0030A0CE0010A7C
:101E400001E03FD0A60EE66E250EE66EFCEC00F03B
:101E5000E552E55236D0A10EE66E250EE66EFCEC9C
:101E600000F0E552E5522DD09C0EE66E250EE66E92
:101E7000FCEC00F0E552E55224D0970EE66E250EFC
:101E8000E66EFCEC00F0E552E5521BD0920EE66ED9
:101E9000250EE66EFCEC00F0E552E55212D08D0EF8
:101EA000E66E250EE66EFCEC00F0E552E55209D038
:101EB000880EE66E250EE66EFCEC00F0E552E5526B
:101EC00000D00001865116E061EC05F089C0E6FF04
:101ED0008AC0E6FFBFEC01F0E552E552200EE66E47
:101EE000A1EC00F0E55200018A0503E1020E8A6FC1
:101EF00001D08A07885117E061EC05F089C0E6FF40
:101F00008AC0E6FFBFEC01F0E552E552200EE66E16
:101F1000A1EC00F0E552020E00018A5D03E1010E22
:101F20008A6F01D08A2B8A51020A1AE0030A01E063
:101F300056D0855109E061EC05F00001965103E1AE
:101F4000060E966F01D09607875109E061EC05F007
:101F5000060E0001965D02E1966B01D0962B3FD0F4
:101F6000855117E061EC05F089C0E6FF8AC0E6FF05
:101F7000BFEC01F0E552E552200EE66EA1EC00F058
:101F8000E5520001895103E10B0E896F02D00B0E5F
:101F9000895F875117E061EC05F089C0E6FF8AC0D0
:101FA000E6FFBFEC01F0E552E552200EE66EA1EC33
:101FB00000F0E5520B0E0001895D02E1896B02D051
:101FC0000B0E892784510AE061EC05F00001010E37
:101FD000B66F0001895102E196C095F000D089C02A
:101FE000E6FF8AC0E6FFBFEC01F0E552E552DFEC08
:101FF00008F0F1D60001030E8A6F896B0001B66B01
:1020000061EC05F0010EE66E16EC00F0E552EFEF24
:1020100001F089C0E6FF8AC0E6FFBFEC01F0E5529F
:10202000E552740EE66E250EE66EFCEC00F0E5520D
:10203000E5520001855107E113EC08F05CEC08F073
:102040009CEC04F0F6D761EF05F0EFEC01F0000135
:102050008A6B89C0E6FF8AC0E6FFBFEC01F0E5525B
:10206000E5520001855148E1CBEC04F029EC05F084
:102070009CEC04F06DEC04F00001865116E061EC7C
:1020800005F089C0E6FF8AC0E6FFBFEC01F0E5522B
:10209000E552200EE66EA1EC00F0E55200018A51F7
:1020A00003E1030E8A6F01D08A07885116E061ECC4
:1020B00005F089C0E6FF8AC0E6FFBFEC01F0E552FB
:1020C000E552200EE66EA1EC00F0E552030E000191
:1020D0008A5D02E18A6B01D08A2B845102E0C3EC55
:1020E0000AF089C0E6FF8AC0E6FFBFEC01F0E552C6
:1020F000E552DFEC08F0B5D761EC05F00001010E08
:102100008A6F12000001010E976FE66AE66ABFEC63
:1021100001F0E552E5525F0EE66E250EE66EFCEC30
:1021200000F0E552E552E66A010EE66EBFEC01F002
:10213000E552E5524A0EE66E250EE66EFCEC00F026
:10214000E552E552E66A020EE66EBFEC01F0E5529A
:10215000E552350EE66E250EE66EFCEC00F0E5521B
:10216000E552E66A030EE66EBFEC01F0E552E55279
:10217000200EE66E250EE66EFCEC00F0E552E55210
:102180009AC09EF09BC09FF09CC0A0F09DC0A1F0A3
:1021900099EC09F04CEC0AF00001855101E07DD08A
:1021A0009CEC04F0110EE66EE66ABFEC01F0E5521D
:1021B000E552A4C0E6FFA5C0E6FF54EC01F0E552ED
:1021C000E552110EE66E010EE66EBFEC01F0E5522F
:1021D000E552A6C0E6FFA7C0E6FF54EC01F0E552C9
:1021E000E552E66AE66ABFEC01F0E552E5529AC0B4
:1021F0009EF09BC09FF09CC0A0F09DC0A1F099EC08
:1022000009F04CEC0AF00001B76B030EB75D44E235
:10221000100EB725E66E020EE66EBFEC01F0E55239
:10222000E5520001B751EA6A770FE96E000EEA2223
:10223000EF50E66EA1EC00F0E5520B0E0001B72561
:10224000E66E030EE66EBFEC01F0E552E5520001CA
:10225000B751EA6A730FE96E000EEA22EF50E66E9C
:10226000A1EC00F0E5520F0E0001B725E66E030E5B
:10227000E66EBFEC01F0E552E5520001B751EA6AA3
:102280006F0FE96E000EEA22EF50E66EA1EC00F04F
:10229000E5520001B72BB9D77FD761EC05F00001FB
:1022A000976B020E8A6F1200E66AE66ABFEC01F0D5
:1022B000E552E5520B0EE66E250EE66EFCEC00F0E4
:1022C000E552E552E66A010EE66EBFEC01F0E5521A
:1022D000E552F60EE66E240EE66EFCEC00F0E552DA
:1022E000E552E66A020EE66EBFEC01F0E552E552F9
:1022F000E10EE66E240EE66EFCEC00F0E552E552CF
:10230000E66A030EE66EBFEC01F0E552E552CC0E34
:10231000E66E240EE66EFCEC00F0E552E55200019C
:10232000855103E19CEC04F0FAD761EC05F0000163
:10233000030E8A6F12006DEC04F0000184511CE062
:1023400061EC05F0010EE66E16EC00F0E5520001BE
:102350008A51030A0DE0010A09E0030A05E0010AB7
:1023600001E008D056DE06D070DE04D0CBDE02D00D
:102370009BDF00D023EC02F061EF05F089C0E6FF9F
:102380008AC0E6FFBFEC01F0E552E552CBEC04F069
:1023900029EC05F00001865114E089C0E6FF8AC0EF
:1023A000E6FFBFEC01F0E552E552200EE66EA1EC2F
:1023B00000F0E55200018A5103E1030E8A6F01D05B
:1023C0008A07885114E089C0E6FF8AC0E6FFBFECA7
:1023D00001F0E552E552200EE66EA1EC00F0E55268
:1023E000030E00018A5D02E18A6B01D08A2B89C04D
:1023F000E6FF8AC0E6FFBFEC01F0E552E552DFECF4
:1024000008F061EF05F058EC05F00001855123E17B
:102410000D0EE66E010EE66EBFEC01F0E552E552E0
:102420009AC0E6FF9BC0E6FF54EC01F0E552E5528E
:10243000090EE66E010EE66EBFEC01F0E552E552C4
:102440009CC0E6FF9DC0E6FF54EC01F0E552E5526A
:1024500058EC05F0DAD7856B030E8A6F896B82EF33
:1024600010F0806A896A030E926E816A8A6A830E0E
:10247000936E826A8B6A946A836A8C6A0F0E956E79
:10248000846A8D6A966A810EC06E0D0EC16E010E51
:10249000C26E070EB46E80EC09F003EC08F0ECECB1
:1024A00007F0800EE66E080EE66EE2EC14F0E552E0
:1024B000E552090EC86E71EC00F023EC02F0A6ECB8
:0C24C0000AF082985BDF37DFFDD71200C6
:0424CC002020204C60
:1024D000696D70657A613A2053454D414E414C20FB
:1024E000002020283435307833333078373830299D
:1024F000636D2020200020204D6564696461732095
:1025000064612043616978613A2000204465736505
:102510006E766F6C7665646F723A204A4D464A005B
:102520005350524159532E2E2E3A203030302F30F6
:1025300030302020004C494D50455A4153204645EB
:10254000495441533A30303020004D4F544F5220BF
:10255000434F4D503A204F46462D30302520004DF8
:102560004F544F522054414D423A204F46462D3051
:10257000302520002D2D2D2D2D2D4341542D424F42
:10258000582D2D2D2D2D2D002D534142002D53451D
:1025900058002D515549002D515541002D5445529B
:1025A000002D534547002D444F4D00202020202072
:1025B000202020202020202020202020202020003B
:1025C0002020202020202053414241444F20202021
:1025D00020202020002020202053455854412D4603
:1025E0004549524120202020200020202020515504
:1025F000494E54412D46454952412020202000207B
:102600002020205155415254412D464549524120E8
:10261000202020002020202054455243412D4645B3
:10262000495241202020202000202020534547559A
:102630004E44412D46454952412020202000202073
:1026400020202020444F4D494E474F20202020205D
:102650002020004F4646004F4E200020204E4F566F
:102660004120444154413A202020202020202000B5
:10267000444520305B444F4D5D204120365B534143
:10268000425D2020002020534547554E444F2E3AAE
:102690002020202020202020200020204D494E55A1
:1026A000544F2E2E3A2020202020202020200020B1
:1026B00020484F52412E2E2E2E3A2020202020201E
:1026C00020202000202056454C204D4F544F5220B2
:1026D000434F4D503A30302500202056454C204D78
:1026E0004F544F522054414D423A30302500202063
:1026F000434F4E4649524D4120202043414E4345D1
:102700004C410020205574696C697A61646F2E2EEB
:102710003A2020202020200020204361706163693E
:10272000646164652E3A20202020202000535052FE
:10273000415953202020202020202020202020200C
:1027400020004D4F544F5220434F4D504F52544153
:10275000202020202020004D4F544F522054414D26
:10276000424F522020202020202020002020534FA4
:1027700042524520202020202020202020202020E0
:102780000020204D4F4E49544F52414D454E544F1D
:102790002020202020002020434F4E4649475552FC
:1027A00041434F45532020202020002020484F4DFA
:1027B0004520202020202020202020202020200014
:1027C000204553434F4C4841202D2042452048414D
:1027D00050505920002020205041524142454E5334
:1027E0002050454C4120202020002042454D2056BD
:1027F000494E444F205553554152494F2020002DFA
:102800002D2D2D2D2D2D4341542D424F582D2D2D45
:102810002D2D2D0020204441544120202020202017
:102820002020202020202020002020484F5241201E
:10283000444F2052454C4F47494F20202000202034
:1028400056454C4F434944414445204D4F544F5207
:102850004553002020535052415920505549464974
:082860004341444F52202000C7
:082868001E0EF66E000EF76E65
:10287000000EF86E00010900F550C46F0900F55014
:10288000C56F03E1C46701D03DD00900F550BF6FAB
:102890000900F550C06F0900F550C16F090009002B
:1028A000F550E96E0900F550EA6E090009000900CB
:1028B000F550C26F0900F550C36F09000900F6CF4B
:1028C000C6F0F7CFC7F0F8CFC8F0BFC0F6FFC0C062
:1028D000F7FFC1C0F8FF0001C25302E1C35307E094
:1028E0000900F550EE6EC207F8E2C307F9D7C6C07B
:1028F000F6FFC7C0F7FFC8C0F8FF0001C407000E0D
:06290000C55BBFD7120009
:0A290600D9CFE6FFDACFE6FFE1CFFC
:10291000D9FFE2CFDAFFFD0EDB50C96EC6AE02D0A2
:10292000FF0E24D00F0EC61408080FE00F0EC614B9
:102930000B080BE0C6889EA6FED7C750040B03E128
:10294000C750010B10E0000E11D00F0EC61408087E
:1029500004E00F0EC6140B0809E1C7B0FED768ECFF
:1029600015F0C5AC02D0FE0E01D0000EE552E5CF49
:08297000DAFFE7CFD9FF1200E6
:08297800006A0EAEC5EF14F079
:102980000D6C0E1EE86A0E22001E09AECDEF14F08B
:10299000086C091EE86A0922001EFDEC14F009BE4D
:1029A000DDEF14F000AE000C086C091EE86A092285
:1029B000046C051EE86A0522000C00BED4EF14F07A
:0429C0000188FF0C7F
:0C29C400D9CFE6FFDACFE6FFE1CFD9FF64
:1029D000E2CFDAFF3F0EC716C66AC56AFD0EDB50AE
:1029E000C612FC0EDB50C71293829380C68AE55252
:0A29F000E5CFDAFFE7CFD9FF1200B0
:0629FA00056A046A100EDC
:102A0000E76ED89008360936043605360D50045C5A
:102A10000E50055805E30D50045E0E50055A082A65
:062A2000E72EF0D71200C2
:0A2A2600FF0EE350146E480E01D0BD
:102A30004C0EE76EE72EFED7E76AE72EFED7142E80
:062A4000F7D700001200B0
:0A2A4600000EF36E00EE00F0080E23
:102A500001D81200EA6002D0EE6AFCD7F350E960B8
:062A60001200EE6AFCD733
:0A2A660013EE00F023EE00F0F86A12
:102A7000019C34EC14F003EC00F031EC12F0FBD7C5
:022A8000120042
:0E2A8200FF0EE350146E1B0E00D001D0200E8C
:0E2A9000E76EE72EFED7142EFAD700D0120004
:022A9E00056AC7
:102AA000080EE76ED890093605360E50055C02E335
:0A2AB000056E092AE72EF7D7120081
:062ABA00FF0EE350E84EA0
:102AC0001200000000D000D000D0E82EFAD712008B
:0E2AD0001F0EC514FDE1C750040BFAE1120001
:022ADE000130C5
:102AE000306830306D696E3030736563003030307F
:102AF000003030300030303000000057530000000C
:102B00000000000000000000000100000026003B63
:102B1000001700000000000003000000000000009B
:102B2000000050003200FF02AA020002DB0266022F
:032B30000A000098
:020000040030CA
:010001000CF2
:010002001EDF
:010003001EDE
:0100050003F7
:010006008178
:00000001FF
