:020000040000FA
:06000000ABEF12F012004C
:020006001200E6
:0600080095EF0DF012005F
:02000E000100EF
:0C001000CE250000600000004100000050
:04001C00D9CFE6FF53
:10002000E1CFD9FFE652E0EC12F0C580C5B0FED7B3
:10003000E0EC12F04E0EE66EFBEC11F0E552FE0E17
:10004000DB50F00BDF6E0C0EDF10DF6EE0EC12F019
:10005000DFCFE6FFFBEC11F0E552010EE66ED5ECCA
:1000600012F0E552F80EDF14DF6EE0EC12F0DFCF95
:10007000E6FFFBEC11F0E552FE0EDB38F00BF00B67
:10008000DF6E0C0EDF10DF6EE0EC12F0DFCFE6FF6C
:10009000FBEC11F0E552010EE66ED5EC12F0E552E4
:1000A000F80EDF14DF6EE0EC12F0DFCFE6FFFBECC2
:1000B00011F0E552E0EC12F0C584C5B4FED7050E90
:1000C000E66E8BEC12F0E552E552E552E7CFD9FF30
:1000D0001200140EE66E8BEC12F0E552300EE66E56
:1000E0009DDFE552050EE66E8BEC12F0E552300E08
:1000F000E66E94DFE552020EE66EB9EC12F0E552C0
:10010000300EE66E8BDFE552020EE66E87DFE552BB
:10011000280EE66E83DFE552060EE66E7FDFE552BF
:100120000C0EE66E7BDFE552010EE66E77DFE552E0
:100130001200D9CFE6FFE1CFD9FFE652E0EC12F092
:10014000C580C5B0FED7E0EC12F04E0EE66EFBECBB
:1001500011F0E552FE0EDB50F00BDF6E0D0EDF10DE
:10016000DF6EE0EC12F0DFCFE6FFFBEC11F0E552C2
:100170000A0EE66ED5EC12F0E552F90EDF14DF6ED2
:10018000E0EC12F0DFCFE6FFFBEC11F0E552FE0EE3
:10019000DB38F00BF00BDF6E0D0EDF10DF6EE0ECE6
:1001A00012F0DFCFE6FFFBEC11F0E5520A0EE66E2F
:1001B000D5EC12F0E552F90EDF14DF6EE0EC12F030
:1001C000DFCFE6FFFBEC11F0E552E0EC12F0C58466
:1001D000C5B4FED7050EE66E8BEC12F0E552E55283
:1001E000E552E7CFD9FF1200D9CFE6FFE1CFD9FF23
:1001F000FD0EDBCFF6FFFE0EDBCFF7FF0800F5505C
:1002000011E0FD0EDBCFF6FFFE0EDBCFF7FF08009F
:10021000F550E66E8EDFE552FD0EDB2AFE0E01E3A1
:10022000DB2AE6D7E552E7CFD9FF1200D9CFE6FFA8
:10023000E1CFD9FF030EE126FD0EDBCFDEFFDBCFE2
:10024000DDFF020EDB6AD9CFE9FFDACFEAFF0A0E43
:100250000D6E0E6AEECF08F0EDCF09F034EC12F01F
:1002600008C0EEFF09C0EDFF020EDB2AD9CFE9FF7F
:10027000DACFEAFFEE50ED10E6E1020EDB50106E31
:10028000030EE15C03E200D0E16AE552E16E10503A
:10029000E552E7CFD9FF1200D9CFE6FFE1CFD9FF72
:1002A000040EE126DE6ADD6AFD0EDBCF08F0FE0EED
:1002B000DBCF09F0020E08C0DBFF030E09C0DBFF35
:1002C000040EE66EABDEE552FD0EDBCFE6FFFE0E62
:1002D000DBCFE6FFABDFE552E552DE6EDD6ADECF57
:1002E00010F0DDCF11F0113404E210500008000EC0
:1002F00011542FE2020EDBCF10F0030EDBCF11F012
:100300000A0E0D6E0E6A10C008F011C009F075ECEF
:1003100012F004C010F005C011F0300E1024E66E8B
:1003200008DFE552D950020FE96EDACFEAFF0A0E74
:100330000D6E0E6AEECF08F0EDCF09F075EC12F0FD
:1003400008C0EEFF09C0EDFFDF06010E01E2DB068B
:10035000C6D7060EE66E62DEE552040EE15C02E2EE
:10036000E16AE552E16EE552E7CFD9FF1200D9CF3D
:10037000E6FFE1CFD9FFE652DF6AFE0EDB50030A4B
:1003800016E0010A0FE0030A08E0010A01E014D0B8
:10039000FD0EDB50800FDF6E0FD0FD0EDB50C00F67
:1003A000DF6E0AD0FD0EDB50940FDF6E05D0FD0E20
:1003B000DB50D40FDF6E00D0DF5004E0DFCFE6FF6C
:1003C0002DDEE552E552E552E7CFD9FF1200010ECE
:1003D0000001605D3BE3010EE66E20DEE552E66A59
:1003E000E66AC5DFE552E552430EE66E230EE66E81
:1003F000FBDEE552E552E66A010EE66EB8DFE55235
:10040000E5522E0EE66E230EE66EEEDEE552E55266
:10041000E66A020EE66EABDFE552E552190EE66EB5
:10042000230EE66EE1DEE552E552E66A030EE66E65
:100430009EDFE552E552040EE66E230EE66ED4DE34
:10044000E552E5520001605101E0FCD7010EE66E75
:10045000E5DDE552E66AE66A8ADFE552E552EF0E2F
:10046000E66E220EE66EC0DEE552E552E66A010E49
:10047000E66E7DDFE552E552DA0EE66E220EE66E9E
:10048000B3DEE552E552E66A020EE66E70DFE55233
:10049000E552C50EE66E220EE66EA6DEE552E55288
:1004A000E66A030EE66E63DFE552E552B00EE66ED5
:1004B000220EE66E99DEE552E5521200010EE66E5E
:1004C000ADDDE552E66AE66A52DFE552E5529B0E83
:1004D000E66E220EE66E88DEE552E552E66A010E11
:1004E000E66E45DFE552E552860EE66E220EE66EBA
:1004F0007BDEE552E552E66A020EE66E38DFE55233
:10050000E552710EE66E220EE66E6EDEE552E552A3
:100510001200010EE66E82DDE552E66AE66A27DF2A
:10052000E552E5525C0EE66E220EE66E5DDEE552A9
:10053000E552E66A010EE66E1ADFE552E552470E15
:10054000E66E220EE66E50DEE552E552E66A020ED7
:10055000E66E0DDFE552E552320EE66E220EE66ED5
:1005600043DEE552E5521200010EE66E57DDE5521C
:10057000E66AE66AFCDEE552E5521D0EE66E220EE4
:10058000E66E32DEE552E552E66A010EE66EEFDE19
:10059000E552E552080EE66E220EE66E25DEE552C5
:1005A000E552E66A020EE66EE2DEE552E552320EF2
:1005B000E66E220EE66E18DEE552E5521200010EDE
:1005C000E66E2CDDE552E66AE66AD1DEE552E552DA
:1005D000F30EE66E210EE66E07DEE552E552E66AA0
:1005E000010EE66EC4DEE552E552DE0EE66E210E29
:1005F000E66EFADDE552E552E66A020EE66EB7DE19
:10060000E552E552C90EE66E210EE66EEDDDE552CD
:10061000E552E66A030EE66EAADEE552E552320EB8
:10062000E66E220EE66EE0DDE552E5521200010EA6
:10063000E66EF4DCE552E66AE66A99DEE552E552DA
:10064000B40EE66E210EE66ECFDDE552E552E66AA7
:10065000010EE66E8CDEE552E5529F0EE66E210E2F
:10066000E66EC2DDE552E552E66A020EE66E7FDE18
:10067000E552E552320EE66E220EE66EB5DDE5522B
:10068000E5521200400EE66EC9DCE552040EE66E3D
:1006900050DDE5521B0EE66E4CDDE552110EE66EA6
:1006A00048DDE552110EE66E44DDE552110EE66EB0
:1006B00040DDE552110EE66E3CDDE5521F0EE66EA2
:1006C00038DDE5521F0EE66E34DDE5521200400EB5
:1006D000E66EA4DCE552040EE66E2BDDE5520E0E4E
:1006E000E66E27DDE552E66A24DDE552E66A21DDA5
:1006F000E552010EE66E1DDDE552130EE66E19DDC4
:10070000E5521E0EE66E15DDE552E66A12DDE55293
:100710001200400EE66E82DCE552040EE66E09DD44
:10072000E5520E0EE66E05DDE552E66A02DDE552A3
:10073000E66AFFDCE552100EE66EFBDCE552190EB0
:10074000E66EF7DCE5520F0EE66EF3DCE552E66A84
:10075000F0DCE5521200BBDFDCDF42EF03F0E7EC38
:100760000BF0000166511AE0DBEC0CF0010EE66EB6
:1007700055DCE55200016C51030A0DE0010A09E065
:10078000030A05E0010A01E008D00AD806D056D8CD
:1007900004D0AAD802D0DAD800D019DEDBEF0CF0F2
:1007A0006BC0E6FF6CC0E6FFE2DDE552E552840E69
:1007B000E66E210EE66E18DDE552E5520001675146
:1007C00007E118EC0EF061EC0EF016EC0CF0F6D729
:1007D000DBEF0CF0E66AE66ACADDE552E5526F0E21
:1007E000E66E210EE66E00DDE552E552E66A010E88
:1007F000E66EBDDDE552E5525A0EE66E210EE66E5E
:10080000F3DCE552E552E66A020EE66EB0DDE55233
:10081000E552450EE66E210EE66EE6DCE552E55247
:10082000E66A030EE66EA3DDE552E552300EE66E93
:10083000210EE66ED9DCE552E5521200CBDF000155
:100840006C6B6BC0E6FF6CC0E6FF91DDE552E552D4
:100850000001675143E145EC0CF0A3EC0CF016EC01
:100860000CF0E7EC0BF00001685114E0DBEC0CF04D
:100870006BC0E6FF6CC0E6FF7ADDE552E552200E64
:10088000E66E57DCE55200016C5103E1030E6C6F1C
:1008900001D06C076A5114E0DBEC0CF06BC0E6FF92
:1008A0006CC0E6FF64DDE552E552200EE66E41DCE9
:1008B000E552030E00016C5D02E16C6B01D06C2B04
:1008C000665102E004EC0AF06BC0E6FF6CC0E6FF84
:1008D0004EDDE552E55262EC0AF0BAD7DBEC0CF0E3
:1008E0000001010E6C6F1200E66AE66A40DDE55217
:1008F000E5521B0EE66E210EE66E76DCE552E55201
:10090000E66A010EE66E33DDE552E552060EE66E4E
:10091000210EE66E69DCE552E552E66A020EE66EED
:1009200026DDE552E552F10EE66E200EE66E5CDC49
:10093000E552E5520001675103E116EC0CF0FAD7DD
:10094000DBEC0CF00001020E6C6F1200E66AE66A46
:100950000EDDE552E552DC0EE66E200EE66E44DC5E
:10096000E552E552E66A010EE66E01DDE552E5521A
:10097000C70EE66E200EE66E37DCE552E552E66AFB
:10098000020EE66EF4DCE552E552B20EE66E200E83
:10099000E66E2ADCE552E552E66A030EE66EE7DC17
:1009A000E552E5529D0EE66E200EE66E1DDCE55228
:1009B000E5520001675103E116EC0CF0FAD7DBECCD
:1009C0000CF00001030E6C6F1200A3DD00016C6BD4
:1009D0006B6B6BC0E6FF6CC0E6FFC9DCE552E5520D
:1009E00071C0A5F072C0A6F073C0A7F074C0A8F0E3
:1009F0000001A25101E008D145EC0CF0A3EC0CF091
:100A000074EC0CF016EC0CF0E7EC0BF051EC09F088
:100A10000001A06B030EA05D2BE20F0EA025E66E79
:100A2000E66AA5DCE552E5520001A051EA6A950F9D
:100A3000E96E000EEA22EF50E66E99EC00F0E55206
:100A40000F0E0001A025E66E010EE66E90DCE55269
:100A5000E5520001A051EA6A990FE96E000EEA2200
:100A6000EF50E66E99EC00F0E5520001A02BD2D7D2
:100A7000685115E0DBEC0CF06BC0E6FF6CC0E6FFE4
:100A800076DCE552E552200EE66E99EC00F0E55278
:100A900000016C5103E1020E6C6F01D06C076A51CA
:100AA00015E0DBEC0CF06BC0E6FF6CC0E6FF5FDC32
:100AB000E552E552200EE66E99EC00F0E552020E8A
:100AC00000016C5D02E16C6B01D06C2B6C51020A71
:100AD0004BE0030A26E0010A01E08BD067510CE0ED
:100AE000DBEC0CF00001A551A61103E1A56BA66B90
:100AF00003D0A507000EA65B0001695111E0DBECF5
:100B00000CF0E70E0001A51902E1030EA61905E19C
:100B1000E70EA56F030EA66F03D0A52B000EA6232C
:100B200068D067510CE0DBEC0CF00001A751A81174
:100B300003E1A76BA86B03D0A707000EA85B000119
:100B4000695111E0DBEC0CF0E70E0001A71902E19E
:100B5000030EA81905E1E70EA76F030EA86F03D0D7
:100B6000A72B000EA82345D0675117E0DBEC0CF053
:100B70006BC0E6FF6CC0E6FFB7EC01F0E552E55252
:100B8000200EE66E99EC00F0E55200016B5103E196
:100B90000B0E6B6F02D00B0E6B5F695117E0DBEC35
:100BA0000CF06BC0E6FF6CC0E6FFB7EC01F0E5525D
:100BB000E552200EE66E99EC00F0E5520B0E0001B6
:100BC0006B5D02E16B6B02D00B0E6B27665110E080
:100BD000DBEC0CF00001010EA26F00016B5108E18B
:100BE000A5C071F0A6C072F0A7C073F0A8C074F0E1
:100BF00000D06BC0E6FF6CC0E6FFB7EC01F0E55239
:100C0000E55262EC0AF0F4D600016C6B6B6B0001EC
:100C1000A26BDBEC0CF0010EE66E0EEC00F0E55280
:100C2000EAEF03F0A1DC00016C6B6B6B6BC0E6FFBD
:100C30006CC0E6FFB7EC01F0E552E5520001A251AD
:100C400001E081D045EC0CF0A3EC0CF074EC0CF05E
:100C500016EC0CF0E7EC0BF00001685116E0DBEC51
:100C60000CF06BC0E6FF6CC0E6FFB7EC01F0E5529C
:100C7000E552200EE66E99EC00F0E55200016C5151
:100C800003E1020E6C6F01D06C076A5116E0DBECD9
:100C90000CF06BC0E6FF6CC0E6FFB7EC01F0E5526C
:100CA000E552200EE66E99EC00F0E552020E0001CE
:100CB0006C5D02E16C6B01D06C2B6C51010839E268
:100CC000675117E0DBEC0CF06BC0E6FF6CC0E6FF91
:100CD000B7EC01F0E552E552200EE66E99EC00F01B
:100CE000E55200016B5103E10B0E6B6F02D00B0E4E
:100CF0006B5F695117E0DBEC0CF06BC0E6FF6CC07A
:100D0000E6FFB7EC01F0E552E552200EE66E99ECF5
:100D100000F0E5520B0E00016B5D02E16B6B02D03F
:100D20000B0E6B27665105E0DBEC0CF00001010EA9
:100D3000A26F6BC0E6FF6CC0E6FFB7EC01F0E552B6
:100D4000E552C0DB7BD70001010E6C6F6B6B0001BD
:100D5000A26BDBEC0CF0010EE66E0EEC00F0E5523F
:100D6000EAEF03F02CDC00016C6B6B6B6BC0E6FFF1
:100D70006CC0E6FFB7EC01F0E552E5527FC083F0AE
:100D800080C084F081C085F00001A25101E055D1FE
:100D900045EC0CF0A3EC0CF074EC0CF016EC0CF041
:100DA000E7EC0BF00E0EE66EE66AB7EC01F0E552EA
:100DB000E55200018551E66EE66A4CEC01F0E55221
:100DC000E5520E0EE66E010EE66EB7EC01F0E5524E
:100DD000E55200018451E66EE66A4CEC01F0E55202
:100DE000E5520E0EE66E020EE66EB7EC01F0E5522D
:100DF000E55200018351E66EE66A4CEC01F0E552E3
:100E0000E5520001685116E0DBEC0CF06BC0E6FF28
:100E10006CC0E6FFB7EC01F0E552E552200EE66E3D
:100E200099EC00F0E55200016C5103E1030E6C6F88
:100E300001D06C076A5116E0DBEC0CF06BC0E6FFEA
:100E40006CC0E6FFB7EC01F0E552E552200EE66E0D
:100E500099EC00F0E552030E00016C5D02E16C6B51
:100E600001D06C2B6C51030A01E19AD0010A67E0B2
:100E7000030A34E0010A01E0D6D0675116E0DBEC4A
:100E80000CF06BC0E6FF6CC0E6FFB7EC01F0E5527A
:100E9000E552200EE66E99EC00F0E5520001855116
:100EA00003E1180E856F01D08507695116E0DBEC70
:100EB0000CF06BC0E6FF6CC0E6FFB7EC01F0E5524A
:100EC000E552200EE66E99EC00F0E552180E000196
:100ED000855D02E1856B01D0852BA5D0675116E0B9
:100EE000DBEC0CF06BC0E6FF6CC0E6FFB7EC01F08A
:100EF000E552E552200EE66E99EC00F0E552000155
:100F0000845103E13C0E846F01D08407695116E0DF
:100F1000DBEC0CF06BC0E6FF6CC0E6FFB7EC01F059
:100F2000E552E552200EE66E99EC00F0E5523C0EDB
:100F30000001845D02E1846B01D0842B74D0675181
:100F400016E0DBEC0CF06BC0E6FF6CC0E6FFB7EC24
:100F500001F0E552E552200EE66E99EC00F0E55204
:100F60000001835103E13C0E836F01D08307695177
:100F700016E0DBEC0CF06BC0E6FF6CC0E6FFB7ECF4
:100F800001F0E552E552200EE66E99EC00F0E552D4
:100F90003C0E0001835D02E1836B01D0832B43D0C3
:100FA000675117E0DBEC0CF06BC0E6FF6CC0E6FFAE
:100FB000B7EC01F0E552E552200EE66E99EC00F038
:100FC000E55200016B5103E10B0E6B6F02D00B0E6B
:100FD0006B5F695117E0DBEC0CF06BC0E6FF6CC097
:100FE000E6FFB7EC01F0E552E552200EE66E99EC13
:100FF00000F0E5520B0E00016B5D02E16B6B02D05D
:101000000B0E6B2766510EE0DBEC0CF00001010EBD
:10101000A26F00016B5106E185C081F084C080F0B1
:1010200083C07FF000D06BC0E6FF6CC0E6FFB7EC7A
:1010300001F0E552E55246DAA7D60001020E6C6FC8
:101040006B6B0001A26BDBEC0CF0010EE66E0EEC9C
:1010500000F0E552EAEF03F017EC03F00001010E97
:101060006C6F6B6B6BC0E6FF6CC0E6FFB7EC01F01A
:10107000E552E55282C086F00001A25101E003D1A1
:1010800045EC0CF0A3EC0CF074EC0CF0CFDB9FDB28
:101090000D0EE66E010EE66EB7EC01F0E552E5527C
:1010A00000018651E66EE66A4CEC01F0E552E5522D
:1010B0000E0EE66E010EE66EB7EC01F0E552E5525B
:1010C00000018651060A43E0030A38E0010A2DE0D8
:1010D000070A22E0010A17E0030A0CE0010A01E016
:1010E0003FD0980EE66E200EE66EF4EC00F0E5526E
:1010F000E55236D0930EE66E200EE66EF4EC00F06C
:10110000E552E5522DD08E0EE66E200EE66EF4EC22
:1011100000F0E552E55224D0890EE66E200EE66E10
:10112000F4EC00F0E552E5521BD0840EE66E200E82
:10113000E66EF4EC00F0E552E55212D07F0EE66E5A
:10114000200EE66EF4EC00F0E552E55209D07A0E7E
:10115000E66E200EE66EF4EC00F0E552E55200D0AB
:101160000001685116E0DBEC0CF06BC0E6FF6CC0D0
:10117000E6FFB7EC01F0E552E552200EE66E99EC81
:1011800000F0E55200016C0503E1020E6C6F01D026
:101190006C076A5117E0DBEC0CF06BC0E6FF6CC02B
:1011A000E6FFB7EC01F0E552E552200EE66E99EC51
:1011B00000F0E552020E00016C5D03E1010E6C6F60
:1011C00001D06C2B6C51020A18E0030A01E051D0E7
:1011D000675108E0F0DB0001865103E1060E866FDF
:1011E00001D08607695108E0E6DB060E0001865D46
:1011F00002E1866B01D0862B3CD0675116E0DBDB29
:101200006BC0E6FF6CC0E6FFB7EC01F0E552E552BB
:10121000200EE66E99EC00F0E55200016B5103E1FF
:101220000B0E6B6F02D00B0E6B5F695116E0C3DBC8
:101230006BC0E6FF6CC0E6FFB7EC01F0E552E5528B
:10124000200EE66E99EC00F0E5520B0E00016B5D8E
:1012500002E16B6B02D00B0E6B27665109E0ABDB32
:101260000001010EA26F00016B5102E186C082F005
:1012700000D06BC0E6FF6CC0E6FFB7EC01F0E552B2
:10128000E55220D9F9D60001030E6C6F6B6B00019B
:10129000A26B91DB010EE66E0EEC00F0E552EAEF78
:1012A00003F0A5C010F0A6C011F00A0E0D6E0E6A74
:1012B00010C008F011C009F075EC12F004C010F075
:1012C00005C011F0300E10240001976FA5C010F07A
:1012D000A6C011F00A0E0D6E0E6A10C008F011C003
:1012E00009F075EC12F008C010F009C011F00A0EF8
:1012F0000D6E0E6A10C008F011C009F075EC12F006
:1013000004C010F005C011F0300E10240001966FDB
:10131000A5C010F0A6C011F00A0E0D6E0E6A10C026
:1013200008F011C009F075EC12F008C010F009C007
:1013300011F00A0E0D6E0E6A10C008F011C009F00F
:1013400075EC12F008C010F009C011F0300E102436
:101350000001956FA7C010F0A8C011F00A0E0D6E25
:101360000E6A10C008F011C009F075EC12F004C04C
:1013700010F005C011F0300E102400019B6FA7C0C3
:1013800010F0A8C011F00A0E0D6E0E6A10C008F021
:1013900011C009F075EC12F008C010F009C011F08E
:1013A0000A0E0D6E0E6A10C008F011C009F075EC3F
:1013B00012F004C010F005C011F0300E102400012E
:1013C0009A6FA7C010F0A8C011F00A0E0D6E0E6A39
:1013D00010C008F011C009F075EC12F008C010F050
:1013E00009C011F00A0E0D6E0E6A10C008F011C08F
:1013F00009F075EC12F008C010F009C011F0300EC1
:1014000010240001996F1200010EE66E0EEC00F040
:10141000E55200016C51030A0FE0010A0BE0030AD8
:1014200006E0010A01E00AD0E5EC04F007D012EC76
:1014300006F004D097DC02D00FDE00D0DBEF0CF01A
:101440006BC0E6FF6CC0E6FFB7EC01F0E552E55279
:101450001CDA79DA0001685114E06BC0E6FF6CC059
:10146000E6FFB7EC01F0E552E552200EE66E99EC8E
:1014700000F0E55200016C5103E1030E6C6F01D0E6
:101480006C076A5114E06BC0E6FF6CC0E6FFB7EC76
:1014900001F0E552E552200EE66E99EC00F0E552BF
:1014A000030E00016C5D02E16C6B01D06C2B6BC014
:1014B000E6FF6CC0E6FFB7EC01F0E552E55202D85A
:1014C000DBEF0CF000016D5106E03E0EE66E99EC8C
:1014D00000F0E55205D0200EE66E99EC00F0E552E2
:1014E000120000016C5103E1010E6E6F16D06C51B9
:1014F00006E1080E6B5D03E1020E6E6F0ED06C0507
:1015000005E16B5103E1030E6E6F07D06C0505E139
:10151000080E6B5D02E1040E6E6F120000016C0597
:1015200003E1010E6E6F0BD0020E6C5D03E1020E43
:101530006E6F05D0030E6C5D02E1030E6E6F12003C
:1015400000016C0503E1010E6E6F0BD0020E6C5DA5
:1015500003E1020E6E6F05D0030E6C5D02E1030E17
:101560006E6F12001FDA000167516EE1676B100E9B
:10157000E66EE66AB7EC01F0E552E55283A009D0C9
:10158000760EE66E200EE66EF4EC00F0E552E552C3
:1015900008D0980EE66E210EE66EF4EC00F0E552EF
:1015A000E552100EE66E010EE66EB7EC01F0E55264
:1015B000E55283A209D0760EE66E200EE66EF4ECBC
:1015C00000F0E552E55208D0980EE66E210EE66E68
:1015D000F4EC00F0E552E552100EE66E020EE66EF7
:1015E000B7EC01F0E552E55283A409D0760EE66E21
:1015F000200EE66EF4EC00F0E552E55208D0980EAD
:10160000E66E210EE66EF4EC00F0E552E552100EA7
:10161000E66E030EE66EB7EC01F0E552E55283A6E6
:1016200009D0760EE66E200EE66EF4EC00F0E55280
:10163000E55208D0980EE66E210EE66EF4EC00F04E
:10164000E552E552AFD98FD7676B020E6C6F6B6BAB
:1016500065DF74EF04F0A6D90001675102E1A2D959
:10166000FBD7676B010E6C6F6B6B58DF74EF04F088
:1016700099D90001675122E10D0EE66E010EE66E6A
:10168000B7EC01F0E552E55271C0E6FF72C0E6FF2B
:101690004CEC01F0E552E552090EE66E010EE66EE5
:1016A000B7EC01F0E552E55273C0E6FF74C0E6FF07
:1016B0004CEC01F0E552E55275D9DBD7676B030EB0
:1016C0006C6F6B6B2BDF74EF04F0D9CFE6FFE1CFCB
:1016D000D9FFFE0EDB500F0BF36EF346F346C30E3D
:1016E000C214F310C26E010EE66EB9EC12F0E552B0
:1016F000C282C2B2FED7C3CFF3FFC4CFF4FF00D083
:10170000E552E7CFD9FF1200D9CFE6FFE1CFD9FFED
:10171000020EE126DF6A050EDF5C4FE2010EDB6A96
:10172000EA6ADF34FE0BEA36E96E750EE926000E32
:10173000EA22EECF10F0EFCF11F0050E105E000E92
:10174000115A00011050A35D1150A4592BE3EA6A0D
:10175000DF34FE0BEA36E96E750EE926000EEA224A
:10176000EECF12F0EFCF13F0050E1226000E13226B
:10177000A351125CA451135815E3DE52010EDD6E25
:10178000DB5010E0DF50EA6A610FE96E000EEA22DA
:10179000EF5008E1DF50EA6A660FE96E000EEA22B8
:1017A000010EEF6EDF50EA6A610FE96E000EEA2269
:1017B000010EDBCFEFFFDF2AAED7020EE15C02E2C3
:1017C000E16AE552E16EE552E7CFD9FF1200E66A21
:1017D0007CDFE552F3CFA3F0F4CFA4F00001A16BBE
:1017E00075C010F076C011F0050E105E000E115A93
:1017F0001050A35D1150A45916E3050E0001136AA1
:101800007525126E765113220001A351125CA4516A
:10181000135809E3010EA16FA15105E000016151C8
:1018200002E1010E666FA1C061F01200E66A4DDFB1
:10183000E552F3CFA3F0F4CFA4F00001A16B77C081
:1018400010F078C011F0050E105E000E115A105005
:10185000A35D1150A45916E3050E0001136A772504
:10186000126E785113220001A351125CA451135837
:1018700009E3010EA16FA15105E00001625102E1EF
:10188000010E676FA1C062F01200E66A1EDFE5522A
:10189000F3CFA3F0F4CFA4F00001A16B79C010F056
:1018A0007AC011F0050E105E000E115A1050A35DA3
:1018B0001150A45916E3050E0001136A7925126E22
:1018C0007A5113220001A351125CA451135809E369
:1018D000010EA16FA15105E00001635102E1010E6B
:1018E000686FA1C063F01200E66AEFDEE552F3CF45
:1018F000A3F0F4CFA4F00001A16B7BC010F07CC07A
:1019000011F0050E105E000E115A1050A35D11501B
:10191000A45916E3050E0001136A7B25126E7C5153
:1019200013220001A351125CA451135809E3010EC4
:10193000A16FA15105E00001645102E1010E696F40
:10194000A1C064F01200E66AC0DEE552F3CFA3F056
:10195000F4CFA4F00001A16B7DC010F07EC011F0A7
:10196000050E105E000E115A1050A35D1150A459BF
:1019700016E3050E0001136A7D25126E7E511322B7
:101980000001A351125CA451135809E3010EA16F89
:10199000A15105E00001655102E1010E6A6FA1C08D
:1019A00065F01200E66A91DEE552F3CFA3F0F4CFC2
:1019B000A4F084EF0BF0D9CFE6FFE1CFD9FFE652D8
:1019C000DF6A050EDF5C09E2DF50EA6A660FE96E46
:1019D000000EEA22EF6ADF2AF4D7E552E552E7CF9C
:1019E000D9FF1200D9CFE6FFE1CFD9FF040EE126DF
:1019F000FD0EDBCFE6FFFE0EDBCFE6FF16EC01F0BF
:101A0000E552E552DE6EDD6A020EDB6A030EDB6A2A
:101A1000DECF10F0DDCF11F01006000E115A020ECD
:101A200010C0DBFF030E11C0DBFF020EDBCF10F096
:101A3000030EDBCF11F00001800E111440E1FD0E0A
:101A4000DBCF12F0FE0EDBCF13F00A0E0D6E0E6A26
:101A500012C008F013C009F075EC12F004C012F0C7
:101A600005C013F0300E1226000E1322020EDBCF3B
:101A700010F0030EDBCF11F0FB0EDB501024E96EEB
:101A8000FC0EDB501120EA6E12C0EFFFD950FD0FA3
:101A9000E96EFF0EDA20EA6E0A0E0D6E0E6AEECFC8
:101AA00008F0EDCF09F075EC12F008C0EEFF09C0A8
:101AB000EDFF020EDB06030E01E2DB06B6D7FB0EDE
:101AC000DBCF10F0FC0EDBCF11F0DE501024E96EFE
:101AD000DD501120EA6EEF6A040EE15C02E2E16A79
:101AE000E552E16EE552E7CFD9FF1200D9CFE6FF0C
:101AF000E1CFD9FFD950FD0FE96EFF0EDA20EA6E73
:101B0000000ED880EE54000EED540BE20A0EE66E85
:101B1000B9EC12F0E552FD0EDB06FE0E01E2DB062B
:101B2000E9D7E552E7CFD9FF1200DACFE4FFE2CFE1
:101B3000DAFFE9CFE4FFEACFE4FFF6CFE4FFF7CF27
:101B4000E4FFF5CFE4FFF3CFE4FFF4CFE4FFFACFF7
:101B5000E4FF00EE00F0100EE80403E3EECFE4FF34
:101B6000FBD700EE10F0040EE80403E3EECFE4FF31
:101B7000FBD7E6529EA024D000016051000801E28C
:101B800060079D07000E9E5B7F2B6D5102E0000EEB
:101B900001D0010E6D6F3C0E7F5D11E17F6B802BDC
:101BA0003C0E805D0CE1806B812B180E815D07E19E
:101BB000816B060E825D02E1826B01D0822B33D8ED
:101BC000E55200EE13F0040EE80403E3E5CFEDFF69
:101BD000FBD700EE0FF0100EE80403E3E5CFEDFFB6
:101BE000FBD7E5CFFAFFE5CFF4FFE5CFF3FFE5CF75
:101BF000F5FFE5CFF7FFE5CFF6FFE5CFEAFFE5CF4D
:101C0000E9FFE5CFDAFF1100D09EF28EF28C9D80C5
:101C10001200CD8ECD8CCD9ACD98CD86CD94CD822F
:101C2000CD8013EF0EF09E90C00ECF6ECE6A1200E4
:101C30000A0E106E10C00EF081C009F0C7EC12F051
:101C40000550300F0001886F0A0E106E10C00EF0A4
:101C500081C009F0C7EC12F00950300F0001876F06
:101C60000A0E106E10C00EF080C009F0C7EC12F022
:101C70000550300F00018B6F0A0E106E10C00EF071
:101C800080C009F0C7EC12F00950300F00018A6FD4
:101C90000A0E106E10C00EF07FC009F0C7EC12F0F3
:101CA0000550300F0001906F0A0E106E10C00EF03C
:101CB0007FC009F0C7EC12F00950300F00018F6FA0
:101CC0001200D9CFE6FFE1CFD9FFE652DF6A040E5A
:101CD000E66E010EE66EB7EC01F0E552E552DF6A02
:101CE0000E0EDF5C0DE2DF50EA6A870FE96E000E30
:101CF000EA22EF50E66E99EC00F0E552DF2AF0D7C9
:101D0000E66A020EE66EB7EC01F0E552E55200011C
:101D10008251060A4BE0030A40E0010A35E0070A57
:101D20002AE0010A1FE0030A14E0010A09E0CE0ECE
:101D3000E66E1F0EE66EF4EC00F0E552E5523FD081
:101D4000610EE66E200EE66EF4EC00F0E552E55210
:101D500036D04C0EE66E200EE66EF4EC00F0E55246
:101D6000E5522DD0370EE66E200EE66EF4EC00F054
:101D7000E552E55224D0220EE66E200EE66EF4EC1B
:101D800000F0E552E5521BD00D0EE66E200EE66E19
:101D9000F4EC00F0E552E55212D0F80EE66E1F0E9C
:101DA000E66EF4EC00F0E552E55209D0E30EE66E83
:101DB0001F0EE66EF4EC00F0E552E55200D0E5525D
:101DC000E552E7CFD9FF120000016C6B0C0E6B6F70
:101DD0000001675101E082D058DDB5DD27DD020E3C
:101DE00000016B25E66EE66AB7EC01F0E552E552BC
:101DF00000018151E66EE66A4CEC01F0E552E552D5
:101E0000020E00016B25E66E010EE66EB7EC01F0E6
:101E1000E552E55200018051E66EE66A4CEC01F0B5
:101E2000E552E552020E00016B25E66E020EE66EEB
:101E3000B7EC01F0E552E55200017F51E66EE66A2B
:101E40004CEC01F0E552E5520001685115E0686B79
:101E50006BC0E6FF6CC0E6FFB7EC01F0E552E5525F
:101E6000200EE66E99EC00F0E55200016C5103E1A2
:101E7000020E6C6F01D06C076A5115E06A6B6BC083
:101E8000E6FF6CC0E6FFB7EC01F0E552E552200E2C
:101E9000E66E99EC00F0E552020E00016C5D02E185
:101EA0006C6B01D06C2B130EE66E030EE66EB7EC76
:101EB00001F0E552E55200016E51E66EE66A4CEC27
:101EC00001F0E552E5526BC0E6FF6CC0E6FFB7ECEF
:101ED00001F0E552E55262EC0AF07AD76CDD0001C0
:101EE000010E6C6F6B6B1200CA9CCA9ACA98CA9694
:101EF000CA84CA92CA909E92640ECB6EBD9ABD9857
:101F0000BD86BD84BD92BD901E0EBE6E1200806A5D
:101F1000896A010E926E816A8A6A030E936E826AE2
:101F20008B6A946E836A8C6A0F0E956E846A8D6AD2
:101F3000966A810EC06E0E0EC16E010EC26E070E45
:101F4000B46ED2DF66DE60DE800EE66E080EE66EF0
:101F50005AEC12F0E552E552090EC86E69EC00F039
:101F6000E7EC01F071EC0AF0838800019F51E8B0C2
:101F70008184E8A081949F5102E0000E01D0010EFF
:101F8000E8B08186E8A0819620EC0AF0AFEC03F07F
:101F9000500EBE6E00019D519E1117E1040E9D6F03
:101FA0009E6B9F5102E0000E01D0010E9F6F9F516A
:101FB000E8B08184E8A081949F5102E0000E01D036
:0E1FC000010EE8B08186E8A08196DED71200FF
:021FCE002020D1
:101FD0002020202020202020202020202020202001
:101FE0002020002020202020202053414241444F27
:101FF000202020202020200020202020534558543D
:10200000412D4645495241202020202000202020FB
:10201000205155494E54412D4645495241202020DA
:102020002000202020205155415254412D46454941
:10203000524120202020002020202054455243419E
:102040002D464549524120202020200020202053A9
:102050004547554E44412D464549524120202020B8
:1020600000202020202020444F4D494E474F202063
:102070002020202020004F4E20002D534142002DD3
:10208000534558002D515549002D515541002D54AF
:102090004552002D534547002D444F4D0020202030
:1020A0004C696D70657A613A20444941524941203A
:1020B00020002020203435307833333078373830E2
:1020C00020636D2020200020204D656469646173C9
:1020D0002064612043616978613A2000204465737F
:1020E000656E766F6C7665646F723A204A4D464A2B
:1020F000004C494D50455A4153204645495441539F
:102100003A30302020004D4F544F5220434F4D5015
:102110003A204F46462D30302520004D4F544F5227
:102120002054414D423A204F46462D303025200064
:102130002020444154412020202020202020202005
:1021400020202020002020484F524120444F205280
:10215000454C4F47494F20202000202056454C4FEA
:10216000434944414445204D4F544F52455300206C
:102170002053505241592050554946494341444FFC
:10218000522020002D2D2D2D2D2D4341542D424F19
:10219000582D2D2D2D2D2D004F4646004F4E002041
:1021A000204E4F564120444154413A2020202020C7
:1021B00020202000444520305B444F4D5D204120CD
:1021C000365B5341425D2020002020534547554E49
:1021D000444F2E3A202020202020202020002020A4
:1021E0004D494E55544F2E2E3A202020202020209D
:1021F0002020002020484F52412E2E2E2E3A202003
:10220000202020202020200020204D4F544F5220FD
:10221000434F4D504F525441202020200020204D4C
:102220004F544F522054414D424F522020202020E5
:1022300020002020434F4E4649524D41202020434C
:10224000414E43454C410020205574696C697A61C8
:10225000646F3A202020202020202000202043618D
:1022600070616369646164653A2020202020202029
:10227000005350524159532020202020202020205C
:102280002020202020004D4F544F5220434F4D50CE
:102290004F525441202020202020004D4F544F52B7
:1022A0002054414D424F5220202020202020200049
:1022B0002020534F42524520202020202020202043
:1022C000202020200020204D4F4E49544F52414D98
:1022D000454E544F2020202020002020434F4E46C2
:1022E0004947555241434F4553202020202000208C
:1022F00020484F4D45202020202020202020202035
:1023000020202000204553434F4C4841202D20429F
:102310004520484150505920002020205041524132
:1023200042454E532050454C412020202000204261
:10233000454D2056494E444F205553554152494F23
:102340002020002D2D2D2D2D2D2D4341542D424F7C
:08235000582D2D2D2D2D2D001F
:082358000E0EF66E000EF76E8A
:10236000000EF86E00010900F550B26F0900F5503B
:10237000B36F03E1B26701D03DD00900F550AD6FF6
:102380000900F550AE6F0900F550AF6F0900090064
:10239000F550E96E0900F550EA6E090009000900E0
:1023A000F550B06F0900F550B16F09000900F6CF84
:1023B000B4F0F7CFB5F0F8CFB6F0ADC0F6FFAEC0D1
:1023C000F7FFAFC0F8FF0001B05302E1B15307E0DF
:1023D0000900F550EE6EB007F8E2B107F9D7B4C0C6
:1023E000F6FFB5C0F7FFB6C0F8FF0001B207000E58
:0623F000B35BBFD7120031
:0A23F600D9CFE6FFDACFE6FFE1CF12
:10240000D9FFE2CFDAFFFD0EDB50C96EC6AE02D0B7
:10241000FF0E24D00F0EC61408080FE00F0EC614CE
:102420000B080BE0C6889EA6FED7C750040B03E13D
:10243000C750010B10E0000E11D00F0EC614080893
:1024400004E00F0EC6140B0809E1C7B0FED7E0EC9C
:1024500012F0C5AC02D0FE0E01D0000EE552E5CF61
:08246000DAFFE7CFD9FF1200FB
:08246800006A0EAE3DEF12F018
:102470000D6C0E1EE86A0E22001E09AE45EF12F02A
:10248000086C091EE86A0922001E75EC12F009BEEC
:1024900055EF12F000AE000C086C091EE86A092224
:1024A000046C051EE86A0522000C00BE4CEF12F019
:0424B0000188FF0C94
:0C24B400D9CFE6FFDACFE6FFE1CFD9FF79
:1024C000E2CFDAFF3F0EC716C66AC56AFD0EDB50C3
:1024D000C612FC0EDB50C71293829380C68AE55267
:0A24E000E5CFDAFFE7CFD9FF1200C5
:0624EA00056A046A100EF1
:1024F000E76ED89008360936043605360D50045C70
:102500000E50055805E30D50045E0E50055A082A7A
:06251000E72EF0D71200D7
:0A251600FF0EE350146E480E01D0D2
:102520004C0EE76EE72EFED7E76AE72EFED7142E95
:06253000F7D700001200C5
:0A253600000EF36E00EE00F0080E38
:1025400001D81200EA6002D0EE6AFCD7F350E960CD
:062550001200EE6AFCD748
:0A25560013EE00F023EE00F0F86A27
:10256000019CACEC11F003EC00F087EC0FF0FBD712
:02257000120057
:0E257200FF0EE350146E1B0E00D001D0200EA1
:0E258000E76EE72EFED7142EFAD700D0120019
:02258E00056ADC
:10259000080EE76ED890093605360E50055C02E34A
:0A25A000056E092AE72EF7D7120096
:0625AA00FF0EE350E84EB5
:1025B0001200000000D000D000D0E82EFAD71200A0
:0E25C0001F0EC514FDE1C750040BFAE1120016
:0225CE00050006
:1025D000000000000000000000000001009C9800C6
:1025E000000000FF02AA020002DB026602263B177F
:1025F000000000000030306830306D696E3030739C
:0F26000065630030303000303030000A000000D9
:020000040030CA
:010001000CF2
:010002001EDF
:010003001EDE
:0100050003F7
:010006008178
:00000001FF
