:020000040000FA
:060000002FEF05F01200D5
:0A0006000100A00A000060000000E5
:040010001A000000D2
:0C0014008482020EE66E3DEC05F0E55221
:1000200084920A0EE66E0FEC05F0E5521200D9CF6D
:10003000E6FFE1CFD9FF8494FE0EDB50836EEADF4A
:10004000E552E7CFD9FF1200D9CFE6FFE1CFD9FFC4
:10005000E652DF6AFE0EDB50030A16E0010A0FE0EB
:10006000030A08E0010A01E014D0FD0EDB50800F06
:10007000DF6E0FD0FD0EDB50C00FDF6E0AD0FD0E1D
:10008000DB50940FDF6E05D0FD0EDB50D40FDF6E1A
:1000900000D0DF5004E0DFCFE6FFC9DFE552E552D4
:1000A000E552E7CFD9FF1200D9CFE6FFE1CFD9FF64
:1000B0008484FE0EDB50836EADDFE552E7CFD9FFBF
:1000C0001200D9CFE6FFE1CFD9FFFD0EDBCFF6FF5F
:1000D000FE0EDBCFF7FF0800F55011E0FD0EDBCF81
:1000E000F6FFFE0EDBCFF7FF0800F550E66EDCDF13
:1000F000E552FD0EDB2AFE0E01E3DB2AE6D7E552D0
:10010000E7CFD9FF1200D9CFE6FFE1CFD9FFE65202
:10011000DF6A0F0EC16E8C6AF80E8D148D6E956AB3
:10012000F80E9614966EDF50F76A960FF66E0A0E6A
:10013000F7220800F55017E01E0EE66E0FEC05F0F2
:10014000E552DF50F76A960FF66E0A0EF7220800A6
:10015000F550E66E6CDFE5521E0EE66E0FEC05F014
:10016000E552DF2AE0D7E552E552E7CFD9FF12008A
:1001700083EF00F0D9CFE6FFE1CFD9FF040EE126EF
:10018000DE6ADD6ADE6ADD6ADECF10F0DDCF11F0F7
:10019000FE0EDB50000111AE02D0D89003D0105CEF
:1001A000000E115835E2010EE66E41DFE552E66AB7
:1001B000DFCFE6FF49DFE552E552970EE66E090E06
:1001C000E66E7FDFE552E552E80EF36E020EF3CFE6
:1001D000DBFF030EF36EF3CFDBFFD950020FE96EA6
:1001E000DACFEAFF000ED880EE54000EED540BE299
:1001F0000A0EE66E3DEC05F0E552020EDB06030E3C
:1002000001E2DB06EAD7DF2A010E01E3DB2ABCD7D5
:10021000040EE15C02E2E16AE552E16EE552E7CFED
:10022000D9FF1200806A896A010E926E816A8A6A19
:10023000936A836A8C6A956A846A8D6A966A810E6B
:10024000C06E0E0EC16E010EC26E830ED56EF2949C
:10025000C20ED76EF70ED66E8BDF11D8E66AACD918
:10026000E552F3CF84F0F4CF85F0C5D92DD91E0E19
:10027000E66EE66ADCDAE552E552F0D71200010ECE
:10028000E66ED5DEE552E66AE66ADEDEE552E55266
:10029000810EE66E090EE66E14DFE552E552E66A5F
:1002A000010EE66ED1DEE552E5526A0EE66E090EEB
:1002B000E66E07DFE552E55212005A0EE66E090EB1
:1002C000E66EFFDEE552E552E66A010EE66EBCDE42
:1002D000E552E5524A0EE66E090EE66EF2DEE55292
:1002E000E552E66AE66AB0DEE552E552FFD7120053
:1002F000410EE66E090EE66EE4DEE552E552E66A70
:10030000010EE66EA1DEE552E552370EE66E090EED
:10031000E66ED7DEE552E552E66AE66A95DEE5521C
:10032000E552FFD71200270EE66E090EE66EC9DE13
:10033000E552E552E66AE66A87DEE552E552FFD706
:100340001200190EE66E090EE66EBBDEE552E552AE
:10035000E66A010EE66E78DEE552E5520A0EE66EBA
:10036000090EE66EAEDEE552E552E66AE66A6CDE3E
:10037000E552E552FFD71200400EE66E58DEE55218
:10038000040EE66E91DEE5521B0EE66E8DDEE55242
:10039000110EE66E89DEE552110EE66E85DEE5523F
:1003A000110EE66E81DEE552110EE66E7DDEE5523F
:1003B0001F0EE66E79DEE5521F0EE66E75DEE55223
:1003C0001200400EE66E33DEE552040EE66E6CDE81
:1003D000E5520E0EE66E68DEE552E66A65DEE5522F
:1003E000E66A62DEE552010EE66E5EDEE552130E4F
:1003F000E66E5ADEE5521E0EE66E56DEE552E66AFF
:1004000053DEE5521200400EE66E11DEE552040E98
:10041000E66E4ADEE5520E0EE66E46DEE552E66A0E
:1004200043DEE552E66A40DEE552100EE66E3CDE43
:10043000E552190EE66E38DEE5520F0EE66E34DE3A
:10044000E552E66A31DEE5521200BBDFDCDFBCEFCD
:1004500001F00001755104E1745102E1776B16D08F
:10046000755106E1080E745D03E1010E776F0ED041
:10047000750505E1745103E1020E776F07D075052C
:1004800005E1080E745D02E1030E776F12000001B2
:10049000655119E0656B8178010EE66EC8DDE552A5
:1004A00000017751030A0DE0010A09E0030A05E0A3
:1004B000010A01E008D001DF06D01ADF04D033DFE3
:1004C00002D03FDF00D012000001665113E0666BDE
:1004D0008170745100080EE274C0E6FF75C0E6FF3B
:1004E000B3DDE552E552200EE66EDEDDE552080E84
:1004F0000001745F675112E0676B817275510008EB
:100500000DE274C0E6FF75C0E6FF9EDDE552E552E0
:10051000200EE66EC9DDE55200017507685113E053
:10052000686B8174080E745D0EE274C0E6FF75C0DE
:10053000E6FF8ADDE552E552200EE66EB5DDE552B6
:10054000080E00017427695112E0696B8176010E73
:10055000755D0DE274C0E6FF75C0E6FF75DDE5521E
:10056000E552200EE66EA0DDE5520001752B74C049
:10057000E6FF75C0E6FF68DDE552E552F2A40DD056
:100580008072F294C20ED76EF70ED66E00017651CD
:1005900002E0000E01D0010E766F0001765105E0F9
:1005A0003E0EE66E81DDE55204D0200EE66E7CDD67
:1005B000E5524FDF47EF02F0D9CFE6FFE1CFD9FF99
:1005C000FE0EDB500F0BF36EF346F346C30EC21460
:1005D000F310C26E010EE66E3DEC05F0E552C282EC
:1005E000C2B2FED7C3CFF3FFC4CFF4FF00D0E552B1
:1005F000E7CFD9FF1200D9CFE6FFE1CFD9FF020E36
:10060000E126DF6A050EDF5C4FE2010EDB6AEA6A73
:10061000DF34FE0BEA36E96E6A0EE926000EEA22A6
:10062000EECF10F0EFCF11F0050E105E000E115A54
:1006300000011050845D115085592BE3EA6ADF34C4
:10064000FE0BEA36E96E6A0EE926000EEA22EECFCC
:1006500012F0EFCF13F0050E1226000E1322845174
:10066000125C8551135815E3DE52010EDD6EDB502E
:1006700010E0DF50EA6A600FE96E000EEA22EF50E8
:1006800008E1DF50EA6A650FE96E000EEA22010E0A
:10069000EF6EDF50EA6A600FE96E000EEA22010E8B
:1006A000DBCFEFFFDF2AAED7020EE15C02E2E16AA8
:1006B000E552E16EE552E7CFD9FF1200D9CFE6FF50
:1006C000E1CFD9FF030EE126FD0EDBCFDEFFDBCF4E
:1006D000DDFF020EDB6AD9CFE9FFDACFEAFF0A0EAF
:1006E0000D6E0E6AEECF08F0EDCF09F0D3EC04F0FA
:1006F00008C0EEFF09C0EDFF020EDB2AD9CFE9FFEB
:10070000DACFEAFFEE50ED10E6E1020EDB50106E9C
:10071000030EE15C03E200D0E16AE552E16E1050A5
:10072000E552E7CFD9FF1200D9CFE6FFE1CFD9FFDD
:10073000040EE126FD0EDBCFE6FFFE0EDBCFE6FF6B
:10074000BDDFE552E552DE6EDD6A020EDB6A030EA6
:10075000DB6ADECF10F0DDCF11F01006000E115A6B
:10076000020E10C0DBFF030E11C0DBFF020EDBCF59
:1007700010F0030EDBCF11F00001800E111440E1E8
:10078000FD0EDBCF12F0FE0EDBCF13F00A0E0D6E66
:100790000E6A12C008F013C009F0F9EC04F004C0AE
:1007A00012F005C013F0300E1226000E1322020EB6
:1007B000DBCF10F0030EDBCF11F0FB0EDB5010246B
:1007C000E96EFC0EDB501120EA6E12C0EFFFD9502B
:1007D000FD0FE96EFF0EDA20EA6E0A0E0D6E0E6A4C
:1007E000EECF08F0EDCF09F0F9EC04F008C0EEFF11
:1007F00009C0EDFF020EDB06030E01E2DB06B6D7F1
:10080000FB0EDBCF10F0FC0EDBCF11F0DE5010241E
:10081000E96EDD501120EA6EEF6A040EE15C02E23F
:10082000E16AE552E16EE552E7CFD9FF1200D9CF78
:10083000E6FFE1CFD9FFD950FD0FE96EFF0EDA20B8
:10084000EA6E000ED880EE54000EED540BE20A0E54
:10085000E66E3DEC05F0E552FD0EDB06FE0E01E214
:0C086000DB06E9D7E552E7CFD9FF120014
:04086C00060EF66E10
:10087000000EF76E000EF86E00010900F5507F6F54
:100880000900F550806F03E17F6701D03DD009007A
:10089000F5507A6F0900F5507B6F0900F5507C6FB9
:1008A00009000900F550E96E0900F550EA6E0900EB
:1008B00009000900F5507D6F0900F5507E6F0900B1
:1008C0000900F6CF81F0F7CF82F0F8CF83F07AC03D
:1008D000F6FF7BC0F7FF7CC0F8FF00017D5302E10B
:1008E0007E5307E00900F550EE6E7D07F8E27E07C3
:1008F000F9D781C0F6FF82C0F7FF83C0F8FF00017F
:0A0900007F07000E805BBFD71200D6
:06090A004A6F72676520D0
:100910004D2E20462E204A2E00446576656C6F7061
:1009200065642062793A004341542D424F58205665
:100930002E3A20312E30002053656E736F7265732E
:1009400000204D6F746F72657300202020203030BE
:100950003A3030202020646961002020202043416B
:10096000542D424F5820202020002020494E464F31
:1009700020202041424F55542D4D4520202020203D
:10098000002020484F4D45202020434F4E464947E8
:10099000202020202020004A4F524745204D2E2065
:0609A000462E204A2E0045
:0A09A600006A0EAEDCEF04F00D6CE9
:1009B0000E1EE86A0E22001E09AEE4EF04F0086C79
:1009C000091EE86A0922001EF9EC04F009BEF4EFE2
:1009D00004F000AE000C086C091EE86A0922046CE1
:1009E000051EE86A0522000C00BEEBEF04F001884A
:0209F000FF0CFA
:0E09F200056A046A100EE76ED89008360936C2
:100A0000043605360D50045C0E50055805E30D50B4
:0E0A1000045E0E50055A082AE72EF0D7120099
:020A1E00FF0EC9
:100A2000E350146E480E01D04C0EE76EE72EFED751
:0E0A3000E76AE72EFED7142EF7D7000012005B
:020A3E00000EA8
:100A4000F36E00EE00F0080E01D81200EA6002D04A
:0E0A5000EE6AFCD7F350E9601200EE6AFCD7A4
:020A5E0013EE95
:100A600000F023EE00F0F86A019C36EC04F04FEC45
:0A0A700005F012EC01F0FBD71200B4
:060A7A00FF0EE350146EB4
:100A80001B0E00D001D0200EE76EE72EFED7142EED
:060A9000FAD700D01200AD
:080A96003838380C060C010091
:020A9E00120044
:100AA00000000000000000000000FF02AA02000297
:0A0AB000DB026602000001000000F6
:020000040030CA
:010001000CF2
:010003001EDE
:0100050003F7
:010006008178
:00000001FF
