:020000040000FA
:06000000ABEF00F012005E
:020006000000F8
:08000800060EF66E000EF76E05
:10001000000EF86E00010900F550656F0900F550FB
:10002000666F03E1656701D03DD00900F550606F50
:100030000900F550616F0900F550626F0900090071
:10004000F550E96E0900F550EA6E09000900090053
:10005000F550636F0900F550646F09000900F6CF91
:1000600067F0F7CF68F0F8CF69F060C0F6FF61C0C5
:10007000F7FF62C0F8FF0001635302E1645307E039
:100080000900F550EE6E6307F8E26407F9D767C020
:10009000F6FF68C0F7FF69C0F8FF00016507000EB2
:0600A000665BBFD71200F1
:0A00A600806A896A926A816A8A6A98
:1000B000936A826A8B6A946A836A8C6A956A846A94
:1000C0008D6A966A810EC06E0F0EC16E010EC26EF1
:1000D000070EB46E8068E80EE66E030EE66E0CD86E
:1000E000E552E552806AE80EE66E030EE66E04D82D
:1000F000E552E552EFD71200D9CFE6FFE1CFD9FFA5
:10010000D950FD0FE96EFF0EDA20EA6E000ED8809E
:10011000EE54000EED540BE20A0EE66EB9EC00F060
:10012000E552FD0EDB06FE0E01E2DB06E9D7E552E5
:06013000E7CFD9FF120029
:0A013600000EF36E00EE00F0080E5C
:1001400001D81200EA6002D0EE6AFCD7F350E960F1
:060150001200EE6AFCD76C
:0A01560013EE00F023EE00F0F86A4B
:10016000019C04EC00F0C7EC00F053EC00F0FBD76E
:0201700012007B
:0E017200FF0EE350026E1B0E00D001D0200ED7
:0E018000E76EE72EFED7022EFAD700D012004F
:02018E0012005D
:020000040030CA
:010001000CF2
:010002001EDF
:010003001EDE
:010005008377
:010006008178
:00000001FF
