:10000000EBEF00F01150070B006E1130016E013262
:1000100001321F0E011601501324E96E000E142048
:10002000EA6E016A012A002A17EF00F00136002E5D
:1000300016EF00F01252D8B422EF00F00150EF1288
:1000400025EF00F0011E0150EF1650EF00F01150A7
:10005000070B006E1130016E013201321F0E0116C6
:1000600001501224E96E000E1320EA6EEFCF01F06A
:10007000002A01D00132002EFDD7010E011657EFE4
:1000800000F00D50E96E0EC0EAFFEFCF10F010C087
:1000900011F0010E126E0F0E146E920E136EB2D787
:1000A00010C011F00F0E136E800E126ED0D7000E1E
:1000B00001B0010E0F5C10E1010E0D24E96E000E7F
:1000C0000E20EA6E010EEF6E020E0D24E96E000E98
:1000D0000E20EA6EEF6A08D0020E0D24E96E000EC3
:1000E0000E20EA6E010EEF6E010E0D24E96E000E79
:1000F0000E20EA6EEF521FE0020E0D24E96E000E94
:100100000E20EA6EEF5217E0010E0D24016E000E74
:100110000E20036E020E0D24E96E000E0E20EA6E14
:10012000EF6A000E03C0EAFF01C0E9FFEF6E010EA7
:10013000016E03D002D0000E016E12000E6A050E91
:100140000D6E0F6A9EDF015215E00CC003F00BC06C
:10015000E9FF0CC0EAFFEF3C01D006D00BC0E9FF7D
:100160000CC0EAFFEF2A05D00BC0E9FF0CC0EAFF84
:10017000EF681AD00E6A080E0D6E0F6A82DF015208
:1001800013E00CC003F00BC0E9FF0CC0EAFFEF5214
:1001900006E00BC0E9FF0CC0EAFFEF0605D00BC07C
:1001A000E9FF0CC0EAFFEF6AFBEF00F0EA6A0B0E12
:1001B000E96EEF500EE0010E016E006A002EFED7D0
:1001C000012EFBD74A0E006E002EFED700D0EF2E78
:1001D000F2D701EF01F0F86AD09E046AC150C00B5B
:1001E0000F09C16E070EB46E056A010E086E0C6A27
:1001F000040E0B6EA3D7936A04C08AFF1E0E0B6E0B
:06020000D5D7F5D7FFD7AA
:020000040030CA
:0E0000003FC0391E008700000FC00FE00F4008
:00000001FF
;PIC18F4550
;CRC=1047  CREATED="01-mai-24 22:52"
