:020000040000FA
:0600000037EF0AF01200C8
:0A0006000100E61400006000000095
:0400100020000000CC
:0C001400D9CFE6FFE1CFD9FFE6526BEC3C
:100020000AF0C580C5B0FED76BEC0AF04E0EE66E46
:1000300087EC09F0E552FE0EDB50F00BDF6E0C0E84
:10004000DF10DF6E6BEC0AF0DFCFE6FF87EC09F024
:10005000E552010EE66E60EC0AF0E552F80EDF1490
:10006000DF6E6BEC0AF0DFCFE6FF87EC09F0E552BC
:10007000FE0EDB38F00BF00BDF6E0C0EDF10DF6EC8
:100080006BEC0AF0DFCFE6FF87EC09F0E552010EDA
:10009000E66E60EC0AF0E552F80EDF14DF6E6BECF2
:1000A0000AF0DFCFE6FF87EC09F0E5526BEC0AF0CF
:1000B000C584C5B4FED7050EE66E17EC0AF0E5520E
:1000C000E552E552E7CFD9FF1200140EE66E17ECA9
:1000D0000AF0E552300EE66E9DDFE552050EE66E43
:1000E00017EC0AF0E552300EE66E94DFE552020E90
:1000F000E66E45EC0AF0E552300EE66E8BDFE55217
:10010000020EE66E87DFE552280EE66E83DFE552CB
:10011000060EE66E7FDFE5520C0EE66E7BDFE552E3
:10012000010EE66E77DFE5521200D9CFE6FFE1CF90
:10013000D9FFE6526BEC0AF0C580C5B0FED76BEC78
:100140000AF04E0EE66E87EC09F0E552FE0EDB502B
:10015000F00BDF6E0D0EDF10DF6E6BEC0AF0DFCF01
:10016000E6FF87EC09F0E5520A0EE66E60EC0AF055
:10017000E552F90EDF14DF6E6BEC0AF0DFCFE6FF1D
:1001800087EC09F0E552FE0EDB38F00BF00BDF6E6A
:100190000D0EDF10DF6E6BEC0AF0DFCFE6FF87ECB1
:1001A00009F0E5520A0EE66E60EC0AF0E552F90E2F
:1001B000DF14DF6E6BEC0AF0DFCFE6FF87EC09F0AF
:1001C000E5526BEC0AF0C584C5B4FED7050EE66EA9
:1001D00017EC0AF0E552E552E552E7CFD9FF1200DD
:1001E000D9CFE6FFE1CFD9FFFD0EDBCFF6FFFE0E44
:1001F000DBCFF7FF0800F55011E0FD0EDBCFF6FF77
:10020000FE0EDBCFF7FF0800F550E66E8EDFE552FD
:10021000FD0EDB2AFE0E01E3DB2AE6D7E552E7CF2F
:10022000D9FF1200D9CFE6FFE1CFD9FF040EE126B6
:10023000DE6ADD6AFD0EDBCF08F0FE0EDBCF09F0D3
:10024000020E08C0DBFF030E09C0DBFF040EE66EE2
:10025000E1DEE552FC0EDB50DE6EDD6ADECF10F033
:10026000DDCF11F0113404E210500008000E1154DB
:100270002FE2020EDBCF10F0030EDBCF11F00A0EDF
:100280000D6E0E6A10C008F011C009F001EC0AF002
:1002900004C010F005C011F0300E1024E66E45DFEA
:1002A000E552D950020FE96EDACFEAFF0A0E0D6E61
:1002B0000E6AEECF08F0EDCF09F001EC0AF008C0AD
:1002C000EEFF09C0EDFFDF06010E01E2DB06C6D737
:1002D000060EE66E9FDEE552040EE15C02E2E16A84
:1002E000E552E16EE552E7CFD9FF1200D9CFE6FF24
:1002F000E1CFD9FFE652DF6AFE0EDB50030A16E0BB
:10030000010A0FE0030A08E0010A01E014D0FD0E23
:10031000DB50800FDF6E0FD0FD0EDB50C00FDF6EA5
:100320000AD0FD0EDB50940FDF6E05D0FD0EDB50C2
:10033000D40FDF6E00D0DF5004E0DFCFE6FF6ADECF
:10034000E552E552E552E7CFD9FF12006BEC0AF017
:10035000C580C5B0FED76BEC0AF0D00EE66E87EC18
:1003600009F0E5526BEC0AF0E66A87EC09F0E55219
:100370006BEC0AF0E66A87EC09F0E5526BEC0AF0E8
:10038000190EE66E87EC09F0E5526BEC0AF0160EDA
:10039000E66E87EC09F0E5526BEC0AF0060EE66EAD
:1003A00087EC09F0E5526BEC0AF0230EE66E87EC61
:1003B00009F0E5526BEC0AF0100EE66E87EC09F0DE
:1003C000E5526BEC0AF0140EE66E87EC09F0E5528C
:1003D0006BEC0AF0C584C5B4FED712006BEC0AF0D2
:1003E000C580C5B0FED76BEC0AF0D00EE66E87EC88
:1003F00009F0E5526BEC0AF0E66A87EC09F0E55289
:100400006BEC0AF0C582C5B2FED76BEC0AF0D10ED8
:10041000E66E87EC09F0E5526BEC0AF053EC0AF05B
:1004200000018A6F6BEC0AF0C59AC588C5B8FED783
:100430006BEC0AF053EC0AF000018B6F6BEC0AF0E6
:10044000C59AC588C5B8FED76BEC0AF053EC0AF024
:1004500000018C6F6BEC0AF0C59AC588C5B8FED751
:100460006BEC0AF053EC0AF000018D6F6BEC0AF0B4
:10047000C59AC588C5B8FED76BEC0AF053EC0AF0F4
:1004800000018E6F6BEC0AF0C59AC588C5B8FED71F
:100490006BEC0AF053EC0AF000018F6F6BEC0AF082
:1004A000C59AC588C5B8FED76BEC0AF053EC0AF0C4
:1004B0000001906F6BEC0AF0C58AC588C5B8FED7FD
:1004C0006BEC0AF0C584C5B4FED71200800EE66E50
:1004D000A1DDE55200018C390F0B300FE66E25DEF1
:1004E000E5520F0E00018C15300FE66E1EDEE55250
:1004F0003A0EE66E1ADEE55200018B390F0B300F13
:10050000E66E13DEE5520F0E00018B15300FE66E1E
:100510000CDEE5523A0EE66E08DEE55200018A393D
:100520000F0B300FE66E01DEE5520F0E00018A154B
:10053000300FE66EFADDE552C00EE66E6BDDE55279
:1005400000018E390F0B300FE66EEFDDE5520F0E16
:1005500000018E15300FE66EE8DDE5522F0EE66ED7
:10056000E4DDE55200018F390F0B300FE66EDDDD63
:10057000E5520F0E00018F15300FE66ED6DDE55205
:100580002F0EE66ED2DDE552320EE66ECEDDE5527E
:10059000300EE66ECADDE552000190390F0B300FC8
:1005A000E66EC3DDE5520F0E00019015300FE66ECA
:1005B000BCDDE5521200806A896A010E926E816A82
:1005C0008A6A030E936E836A8C6A0F0E956E846A34
:1005D0008D6A966A810EC06E0E0EC16E010EC26EDD
:1005E000070EB46E830ED56EF294C20ED76EF70E60
:1005F000D66E800EE66E080EE66EE6EC09F0E55269
:10060000E552090EC86E61DDA1DE0BD8E7DEBADB6C
:100610001E0EE66EE66A6EEC08F0E552E552F6D77D
:100620001200010EE66EF6DCE552E66AE66A5EDE70
:10063000E552E552530EE66E120EE66ED1DDE5523E
:10064000E552E66A010EE66E51DEE552E5523C0ED9
:10065000E66E120EE66EC4DDE552E5521200010EA2
:10066000E66ED8DCE552E66AE66A40DEE552E5521F
:100670002C0EE66E120EE66EB3DDE552E552E66A2A
:10068000010EE66E33DEE552E5521C0EE66E120EEA
:10069000E66EA6DDE552E552E66A020EE66E26DE5D
:1006A000E552E5520C0EE66E120EE66E99DDE5524D
:1006B000E552E66A030EE66E19DEE552E552FC0EDF
:1006C000E66E110EE66E8CDDE552E5521200010E6B
:1006D000E66EA0DCE552E66AE66A08DEE552E5521F
:1006E000E70EE66E110EE66E7BDDE552E552E66A38
:1006F000010EE66EFBDDE552E552D20EE66E110EFE
:10070000E66E6EDDE552E5521200010EE66E82DC09
:10071000E552E66AE66AEADDE552E552C40EE66EA7
:10072000110EE66E5DDDE552E552E66A010EE66EFB
:10073000DDDDE552E552B60EE66E110EE66E50DDD9
:10074000E552E5521200A20EE66E110EE66E48DD8D
:10075000E552E552060EE66E010EE66EC7DDE55285
:10076000E55200018C390F0B300FE66EDEDCE552EE
:100770000F0E00018C15300FE66ED7DCE5523A0EF5
:10078000E66ED3DCE55200018B390F0B300FE66EBD
:10079000CCDCE5520F0E00018B15300FE66EC5DC88
:1007A000E5523A0EE66EC1DCE55200018A390F0BC4
:1007B000300FE66EBADCE5520F0E00018A15300FDD
:1007C000E66EB3DCE552050EE66E020EE66E8EDDD9
:1007D000E552E55200018E390F0B300FE66EA5DCB5
:1007E000E5520F0E00018E15300FE66E9EDCE552CD
:1007F0002F0EE66E9ADCE55200018F390F0B300F99
:10080000E66E93DCE5520F0E00018F15300FE66E99
:100810008CDCE5522F0EE66E88DCE552320EE66E79
:1008200084DCE552300EE66E80DCE5520001903942
:100830000F0B300FE66E79DCE5520F0E00019015BC
:10084000300FE66E72DCE552E66AE66A4FDDE5528D
:10085000E5520001665102E17FDBFBD7E2DE92DA6E
:100860000001666B1200990EE66E110EE66EB8DCA2
:10087000E552E552E66A010EE66E38DDE552E552D4
:100880008F0EE66E110EE66EABDCE552E552E66ABF
:10089000E66A2CDDE552E5520001665102E15CDBBF
:1008A000FBD7BFDE6FDA0001666B1200010EE66E49
:1008B0000AEC00F0E5527A0EE66E110EE66E90DC60
:1008C000E552E552E66A010EE66E10DDE552E552AC
:1008D000650EE66E110EE66E83DCE552E552E66AC1
:1008E000020EE66E03DDE552E552500EE66E110E85
:1008F000E66E76DCE552E552E66A030EE66EF6DC5D
:10090000E552E5523B0EE66E110EE66E69DCE552ED
:10091000E552E66AE66AEADCE552E5520001010EBC
:10092000756F746B000166513CE116DB0001675185
:1009300015E0676B817674C0E6FF75C0E6FFD6DC14
:10094000E552E552200EE66E95EC00F0E55200010E
:10095000750503E1030E756F01D07507695116E047
:10096000696B817A74C0E6FF75C0E6FFBFDCE552B3
:10097000E552200EE66E95EC00F0E552030E000104
:10098000755D03E1010E756F01D0752B74C0E6FF34
:1009900075C0E6FFABDCE552E552B3D8EED8D5D949
:1009A000C1D73FDEEFD90001666B12002D0EE66E57
:1009B000110EE66E15DCE552E552E66A010EE66EB2
:1009C00095DCE552E5521E0EE66E110EE66E08DC71
:1009D000E552E552E66AE66A89DCE552E552000135
:1009E000665102E1B9DAFBD71CDECCD90001666B97
:1009F0001200400EE66E0AEC00F0E552040EE66EC0
:100A000095EC00F0E5521B0EE66E95EC00F0E55219
:100A1000110EE66E95EC00F0E552110EE66E95ECC7
:100A200000F0E552110EE66E95EC00F0E552110E65
:100A3000E66E95EC00F0E5521F0EE66E95EC00F0C8
:100A4000E5521F0EE66E95EC00F0E5521200400EE6
:100A5000E66E0AEC00F0E552040EE66E95EC00F04E
:100A6000E5520E0EE66E95EC00F0E552E66A95EC66
:100A700000F0E552E66A95EC00F0E552010EE66EF4
:100A800095EC00F0E552130EE66E95EC00F0E552A1
:100A90001E0EE66E95EC00F0E552E66A95EC00F06D
:100AA000E5521200400EE66E0AEC00F0E552040E2C
:100AB000E66E95EC00F0E5520E0EE66E95EC00F059
:100AC000E552E66A95EC00F0E552E66A95EC00F036
:100AD000E552100EE66E95EC00F0E552190EE66E4A
:100AE00095EC00F0E5520F0EE66E95EC00F0E55245
:100AF000E66A95EC00F0E5521200A9DFD3DFF9EFCA
:100B000004F0F2A40DD08072F294C20ED76EF70EEC
:100B1000D66E0001765102E0000E01D0010E766F14
:100B20000001765106E03E0EE66E95EC00F0E552CF
:100B300005D0200EE66E95EC00F0E55212000001A3
:100B4000755104E1745102E1776B16D0755106E1DD
:100B5000080E745D03E1010E776F0ED0750505E197
:100B6000745103E1020E776F07D0750505E1080E99
:100B7000745D02E1030E776F12000001750502E15A
:100B8000776B0BD0020E755D03E1010E776F05D018
:100B9000030E755D02E1020E776F1200DDD90001D0
:100BA00066516EE1666B100EE66EE66A76EC01F059
:100BB000E552E55283A009D01A0EE66E110EE66EDC
:100BC000F0EC00F0E552E55208D0690EE66E120E28
:100BD000E66EF0EC00F0E552E552100EE66E010E06
:100BE000E66E76EC01F0E552E55283A209D01A0ECA
:100BF000E66E110EE66EF0EC00F0E552E55208D01C
:100C0000690EE66E120EE66EF0EC00F0E552E5526B
:100C1000100EE66E020EE66E76EC01F0E552E5523D
:100C200083A409D01A0EE66E110EE66EF0EC00F009
:100C3000E552E55208D0690EE66E120EE66EF0EC53
:100C400000F0E552E552100EE66E030EE66E76EC0D
:100C500001F0E552E55283A609D01A0EE66E110E98
:100C6000E66EF0EC00F0E552E55208D0690EE66E53
:100C7000120EE66EF0EC00F0E552E5526DD98FD71A
:100C8000666B56EF04F068D90001665102E164D941
:100C9000FBD7666B56EF04F05FD90001665134E173
:100CA0000D0EE66E010EE66E76EC01F0E552E552B1
:100CB0007AC0E6FF7BC0E6FF58D9E552E552E66E02
:100CC0007AC0E6FF7BC0E6FF12EC01F0E552E55288
:100CD000E552090EE66E010EE66E76EC01F0E55285
:100CE000E5527CC0E6FF7DC0E6FF3FD9E552E55204
:100CF000E66E7CC0E6FF7DC0E6FF12EC01F0E55237
:100D0000E552E55229D9C9D7666B56EF04F00001C8
:100D100065511AE0656B817C010EE66E0AEC00F00D
:100D2000E55200017751030A0DE0010A09E0030AC8
:100D300005E0010A01E008D006DD06D094DD04D00C
:100D4000B5DD02D033DE00D012000001655119E09C
:100D5000656B817C010EE66E0AEC00F0E552000145
:100D60007751020A0BE0030A06E0010A01E009D00C
:100D7000CCDC89DF06D073DC11DF03D0A8DC8CDF8C
:100D800000D01200E9D80001665115E0666B81744D
:100D90007451000810E274C0E6FF75C0E6FF76ECFF
:100DA00001F0E552E552200EE66E95EC00F0E552BA
:100DB000080E0001745F675114E0676B817675510E
:100DC00000080FE274C0E6FF75C0E6FF76EC01F0A4
:100DD000E552E552200EE66E95EC00F0E55200017A
:100DE0007507685115E0686B8178080E745D10E234
:100DF00074C0E6FF75C0E6FF76EC01F0E552E552FF
:100E0000200EE66E95EC00F0E552080E0001742706
:100E1000695114E0696B817A010E755D0FE274C04F
:100E2000E6FF75C0E6FF76EC01F0E552E552200ED4
:100E3000E66E95EC00F0E5520001752B74C0E6FFFC
:100E400075C0E6FF76EC01F0E552E5525ADE77DE3A
:100E500087EF06F0D9CFE6FFE1CFD9FFFE0EDB50DA
:100E60000F0BF36EF346F346C30EC214F310C26EBB
:100E7000010EE66E45EC0AF0E552C282C2B2FED720
:100E8000C3CFF3FFC4CFF4FF00D0E552E7CFD9FFC3
:100E90001200D9CFE6FFE1CFD9FF020EE126DF6ACB
:100EA000050EDF5C4FE2010EDB6AEA6ADF34FE0BFF
:100EB000EA36E96E6A0EE926000EEA22EECF10F05D
:100EC000EFCF11F0050E105E000E115A0001105008
:100ED000915D115092592BE3EA6ADF34FE0BEA363A
:100EE000E96E6A0EE926000EEA22EECF12F0EFCF8D
:100EF00013F0050E1226000E13229151125C92512E
:100F0000135815E3DE52010EDD6EDB5010E0DF50AA
:100F1000EA6A600FE96E000EEA22EF5008E1DF5046
:100F2000EA6A650FE96E000EEA22010EEF6EDF50ED
:100F3000EA6A600FE96E000EEA22010EDBCFEFFFD6
:100F4000DF2AAED7020EE15C02E2E16AE552E16E11
:100F5000E552E7CFD9FF1200E66A7CDFE552F3CF16
:100F600091F0F4CF92F049EF07F0D9CFE6FFE1CF4F
:100F7000D9FF030EE126FD0EDBCFDEFFDBCFDDFF69
:100F8000020EDB6AD9CFE9FFDACFEAFF0A0E0D6E57
:100F90000E6AEECF08F0EDCF09F0C0EC09F008C002
:100FA000EEFF09C0EDFF020EDB2AD9CFE9FFDACF51
:100FB000EAFFEE50ED10E6E1020EDB50106E030E7C
:100FC000E15C03E200D0E16AE552E16E1050E552C7
:100FD000E7CFD9FF1200D9CFE6FFE1CFD9FF040E4A
:100FE000E126FD0EDBCFE6FFFE0EDBCFE6FFBDDF29
:100FF000E552E552DE6EDD6A020EDB6A030EDB6A45
:10100000DECF10F0DDCF11F01006000E115A020EE7
:1010100010C0DBFF030E11C0DBFF020EDBCF10F0B0
:10102000030EDBCF11F00001800E111440E1FD0E24
:10103000DBCF12F0FE0EDBCF13F00A0E0D6E0E6A40
:1010400012C008F013C009F001EC0AF004C012F05D
:1010500005C013F0300E1226000E1322020EDBCF55
:1010600010F0030EDBCF11F0FB0EDB501024E96E05
:10107000FC0EDB501120EA6E12C0EFFFD950FD0FBD
:10108000E96EFF0EDA20EA6E0A0E0D6E0E6AEECFE2
:1010900008F0EDCF09F001EC0AF008C0EEFF09C03E
:1010A000EDFF020EDB06030E01E2DB06B6D7FB0EF8
:1010B000DBCF10F0FC0EDBCF11F0DE501024E96E18
:1010C000DD501120EA6EEF6A040EE15C02E2E16A93
:1010D000E552E16EE552E7CFD9FF1200D9CFE6FF26
:1010E000E1CFD9FFD950FD0FE96EFF0EDA20EA6E8D
:1010F000000ED880EE54000EED540BE20A0EE66EA0
:1011000045EC0AF0E552FD0EDB06FE0E01E2DB06C1
:0A111000E9D7E552E7CFD9FF12003E
:06111A004F4E20004A6F59
:10112000726765204D2E20462E204A2E004465769B
:10113000656C6F7065642062793A0020205075728A
:101140006966696361646F7220202020202020007E
:10115000202053656E736F7265732020202020203D
:10116000202020200020204D6F746F726573202096
:10117000202020202020202020002D2D2D434154F0
:101180002D424F5820563A20312E302D2D2D002043
:1011900053656E736F72657300204D6F746F726567
:1011A00073002D2D2D2D2D2D4341542D424F582DA3
:1011B0002D2D2D2D2D004D4F544F5220474156457A
:1011C000544120004D4F544F522054414D424F52F4
:1011D0002000535052415953203030302F3030309E
:1011E000202020202020002D2D2D2D505552494605
:1011F000494341444F522D2D2D2D20004741564546
:101200005441204645434841444F200047415645FC
:1012100054412041424552544F20200054414D42F8
:101220004F52204156414E4341444F0054414D429C
:101230004F52205245435541444F20002020494EF3
:10124000464F20202041424F55542D4D452020200F
:101250002020002020484F4D45202020434F4E465F
:101260004947202020202020004F4646004F4E00B6
:10127000060EF66E000EF76E000EF86E0001090005
:10128000F550856F0900F550866F03E1856701D041
:101290003DD00900F550806F0900F550816F0900BD
:1012A000F550826F09000900F550E96E0900F5500C
:1012B000EA6E090009000900F550836F0900F55036
:1012C000846F09000900F6CF87F0F7CF88F0F8CFD8
:1012D00089F080C0F6FF81C0F7FF82C0F8FF0001EF
:1012E000835302E1845307E00900F550EE6E830753
:1012F000F8E28407F9D787C0F6FF88C0F7FF89C0F6
:0E130000F8FF00018507000E865BBFD71200C4
:02130E00D9CF35
:10131000E6FFDACFE6FFE1CFD9FFE2CFDAFFFD0E3D
:10132000DB50C96EC6AE02D0FF0E24D00F0EC6141D
:1013300008080FE00F0EC6140B080BE0C6889EA627
:10134000FED7C750040B03E1C750010B10E0000E9D
:1013500011D00F0EC614080804E00F0EC6140B08B7
:1013600009E1C7B0FED76BEC0AF0C5AC02D0FE0EA7
:1013700001D0000EE552E5CFDAFFE7CFD9FF12002A
:10138000006A0EAEC9EF09F00D6C0E1EE86A0E225F
:10139000001E09AED1EF09F0086C091EE86A0922A7
:1013A000001E01EC0AF009BEE1EF09F000AE000CEE
:1013B000086C091EE86A0922046C051EE86A052209
:0C13C000000C00BED8EF09F00188FF0C03
:0413CC00D9CFE6FF90
:1013D000DACFE6FFE1CFD9FFE2CFDAFF3F0EC71643
:1013E000C66AC56AFD0EDB50C612FC0EDB50C71282
:1013F00093829380C68AE552E5CFDAFFE7CFD9FF23
:021400001200D8
:0E140200056A046A100EE76ED89008360936A7
:10141000043605360D50045C0E50055805E30D509A
:0E142000045E0E50055A082AE72EF0D712007F
:02142E00FF0EAF
:10143000E350146E480E01D04C0EE76EE72EFED737
:0E144000E76AE72EFED7142EF7D70000120041
:02144E00000E8E
:10145000F36E00EE00F0080E01D81200EA6002D030
:0E146000EE6AFCD7F350E9601200EE6AFCD78A
:02146E0013EE7B
:1014700000F023EE00F0F86A019C38EC09F072EC01
:0A1480000AF0DBEC02F0FBD71200CB
:06148A00FF0EE350146E9A
:101490001B0E00D001D0200EE76EE72EFED7142ED3
:0614A000FAD700D0120093
:0A14A6000F0EC614080804E00F0E34
:1014B000C6140B0801E1C586C7A0FED7C9501200AB
:1014C000FF0EE350E84E1200000000D000D000D024
:0614D000E82EFAD712001D
:0A14D6001F0EC514FDE1C750040B02
:0414E000FAE112001B
:0214E4001200F4
:0A14E60000000000000000000000FC
:1014F000FF02AA020002DB026602000001006D6921
:06150000F40112000000DE
:020000040030CA
:010001000CF2
:010002001EDF
:010003001EDE
:0100050003F7
:010006008178
:00000001FF
