:020000040000FA
:060000009EEF09F0120062
:0A0006000100B413000060000000C8
:040010001D000000CF
:0C001400D9CFE6FFE1CFD9FFE652D2ECD5
:1000200009F0C580C5B0FED7D2EC09F04E0EE66EE1
:10003000EEEC08F0E552FE0EDB50F00BDF6E0C0E1E
:10004000DF10DF6ED2EC09F0DFCFE6FFEEEC08F058
:10005000E552010EE66EC7EC09F0E552F80EDF142A
:10006000DF6ED2EC09F0DFCFE6FFEEEC08F0E552F0
:10007000FE0EDB38F00BF00BDF6E0C0EDF10DF6EC8
:10008000D2EC09F0DFCFE6FFEEEC08F0E552010E0E
:10009000E66EC7EC09F0E552F80EDF14DF6ED2EC25
:1000A00009F0DFCFE6FFEEEC08F0E552D2EC09F004
:1000B000C584C5B4FED7050EE66E7EEC09F0E552A8
:1000C000E552E552E7CFD9FF1200140EE66E7EEC42
:1000D00009F0E552300EE66E9DDFE552050EE66E44
:1000E0007EEC09F0E552300EE66E94DFE552020E2A
:1000F000E66EACEC09F0E552300EE66E8BDFE552B1
:10010000020EE66E87DFE552280EE66E83DFE552CB
:10011000060EE66E7FDFE5520C0EE66E7BDFE552E3
:10012000010EE66E77DFE5521200D9CFE6FFE1CF90
:10013000D9FFE652D2EC09F0C580C5B0FED7D2ECAB
:1001400009F04E0EE66EEEEC08F0E552FE0EDB50C6
:10015000F00BDF6E0D0EDF10DF6ED2EC09F0DFCF9B
:10016000E6FFEEEC08F0E5520A0EE66EC7EC09F089
:10017000E552F90EDF14DF6ED2EC09F0DFCFE6FFB7
:10018000EEEC08F0E552FE0EDB38F00BF00BDF6E04
:100190000D0EDF10DF6ED2EC09F0DFCFE6FFEEECE4
:1001A00008F0E5520A0EE66EC7EC09F0E552F90ECA
:1001B000DF14DF6ED2EC09F0DFCFE6FFEEEC08F0E3
:1001C000E552D2EC09F0C584C5B4FED7050EE66E43
:1001D0007EEC09F0E552E552E552E7CFD9FF120077
:1001E000D9CFE6FFE1CFD9FFFD0EDBCFF6FFFE0E44
:1001F000DBCFF7FF0800F55011E0FD0EDBCFF6FF77
:10020000FE0EDBCFF7FF0800F550E66E8EDFE552FD
:10021000FD0EDB2AFE0E01E3DB2AE6D7E552E7CF2F
:10022000D9FF1200D9CFE6FFE1CFD9FFE652DF6A4E
:10023000FE0EDB50030A16E0010A0FE0030A08E095
:10024000010A01E014D0FD0EDB50800FDF6E0FD0ED
:10025000FD0EDB50C00FDF6E0AD0FD0EDB50940F99
:10026000DF6E05D0FD0EDB50D40FDF6E00D0DF5007
:1002700004E0DFCFE6FFCEDEE552E552E552E7CF00
:10028000D9FF1200D2EC09F0C580C5B0FED7D2EC80
:1002900009F0D00EE66EEEEC08F0E552D2EC09F073
:1002A000E66AEEEC08F0E552D2EC09F0E66AEEEC14
:1002B00008F0E552D2EC09F0190EE66EEEEC08F00B
:1002C000E552D2EC09F0160EE66EEEEC08F0E552BF
:1002D000D2EC09F0060EE66EEEEC08F0E552D2EC38
:1002E00009F0230EE66EEEEC08F0E552D2EC09F0D0
:1002F000100EE66EEEEC08F0E552D2EC09F0140EAA
:10030000E66EEEEC08F0E552D2EC09F0C584C5B417
:10031000FED71200D2EC09F0C580C5B0FED7D2ECF2
:1003200009F0D00EE66EEEEC08F0E552D2EC09F0E2
:10033000E66AEEEC08F0E552D2EC09F0C582C5B2EF
:10034000FED7D2EC09F0D10EE66EEEEC08F0E552E5
:10035000D2EC09F0BAEC09F00001876FD2EC09F099
:10036000C59AC588C5B8FED7D2EC09F0BAEC09F039
:100370000001886FD2EC09F0C59AC588C5B8FED7D0
:10038000D2EC09F0BAEC09F00001896FD2EC09F067
:10039000C59AC588C5B8FED7D2EC09F0BAEC09F009
:1003A00000018A6FD2EC09F0C59AC588C5B8FED79E
:1003B000D2EC09F0BAEC09F000018B6FD2EC09F035
:1003C000C59AC588C5B8FED7D2EC09F0BAEC09F0D9
:1003D00000018C6FD2EC09F0C59AC588C5B8FED76C
:1003E000D2EC09F0BAEC09F000018D6FD2EC09F003
:1003F000C58AC588C5B8FED7D2EC09F0C584C5B496
:10040000FED71200800EE66E05DEE5520001893946
:100410000F0B300FE66E89DEE5520F0E00018915D5
:10042000300FE66E82DEE5523A0EE66E7EDEE55273
:10043000000188390F0B300FE66E77DEE5520F0EA4
:1004400000018815300FE66E70DEE5523A0EE66E5A
:100450006CDEE552000187390F0B300FE66E65DE6A
:10046000E5520F0E00018715300FE66E5EDEE55295
:10047000C00EE66ECFDDE55200018B390F0B300F59
:10048000E66E53DEE5520F0E00018B15300FE66E5F
:100490004CDEE5522F0EE66E48DEE55200018C3947
:1004A0000F0B300FE66E41DEE5520F0E00018C158A
:1004B000300FE66E3ADEE5522F0EE66E36DEE5527E
:1004C000320EE66E32DEE552300EE66E2EDEE5527C
:1004D00000018D390F0B300FE66E27DEE5520F0E4F
:1004E00000018D15300FE66E20DEE5521200806AA5
:1004F000896A010E926E816A8A6A030E936E836A1C
:100500008C6A0F0E956E846A8D6A966A810EC06E33
:100510000E0EC16E010EC26E070EB46E830ED56E46
:10052000F294C20ED76EF70ED66E800EE66E080EEF
:10053000E66E4DEC09F0E552E552090EC86EC5DDD8
:10054000A1DE0BD8E7DE85DB1E0EE66EE66AD5EC93
:1005500007F0E552E552F6D71200010EE66E5ADDBD
:10056000E552E66AE66A5EDEE552E552210EE66E87
:10057000110EE66E35DEE552E552E66A010EE66ED4
:1005800051DEE552E5520A0EE66E110EE66E28DEE9
:10059000E552E5521200010EE66E3CDDE552E66AD8
:1005A000E66A40DEE552E552FA0EE66E100EE66EA1
:1005B00017DEE552E552E66A010EE66E33DEE552DD
:1005C000E552EA0EE66E100EE66E0ADEE552E552E0
:1005D000E66A020EE66E26DEE552E552DA0EE66EB9
:1005E000100EE66EFDDDE552E552E66A030EE66E9C
:1005F00019DEE552E552CA0EE66E100EE66EF0DD2B
:10060000E552E5521200010EE66E04DDE552E66A9F
:10061000E66A08DEE552E552B50EE66E100EE66EAD
:10062000DFDDE552E552E66A010EE66EFBDDE552DE
:10063000E552A00EE66E100EE66ED2DDE552E552F2
:100640001200010EE66EE6DCE552E66AE66AEADDD5
:10065000E552E552920EE66E100EE66EC1DDE552F1
:10066000E552E66A010EE66EDDDDE552E552840EE6
:10067000E66E100EE66EB4DDE552E5521200700E25
:10068000E66E100EE66EACDDE552E552060EE66E45
:10069000010EE66EC7DDE552E552000189390F0B08
:1006A000300FE66E42DDE5520F0E00018915300F66
:1006B000E66E3BDDE5523A0EE66E37DDE5520001AF
:1006C00088390F0B300FE66E30DDE5520F0E00015A
:1006D0008815300FE66E29DDE5523A0EE66E25DD0F
:1006E000E552000187390F0B300FE66E1EDDE55233
:1006F0000F0E00018715300FE66E17DDE552050E6F
:10070000E66E020EE66E8EDDE552E55200018B3993
:100710000F0B300FE66E09DDE5520F0E00018B1551
:10072000300FE66E02DDE5522F0EE66EFEDCE5527E
:1007300000018C390F0B300FE66EF7DCE5520F0E1F
:1007400000018C15300FE66EF0DCE5522F0EE66EE0
:10075000ECDCE552320EE66EE8DCE552300EE66E79
:10076000E4DCE55200018D390F0B300FE66EDDDC65
:10077000E5520F0E00018D15300FE66ED6DCE55206
:10078000E66AE66A4FDDE552E5520001665102E194
:100790004ADBFBD7E2DE5DDA0001666B1200670E12
:1007A000E66E100EE66E1CDDE552E552E66A010EBD
:1007B000E66E38DDE552E5525D0EE66E100EE66E31
:1007C0000FDDE552E552E66AE66A2CDDE552E552B8
:1007D0000001665102E127DBFBD7BFDE3ADA0001F8
:1007E000666B1200010EE66E15DCE552480EE66EF1
:1007F000100EE66EF5DCE552E552E66A010EE66E95
:1008000011DDE552E552330EE66E100EE66EE8DCC1
:10081000E552E552E66A020EE66E04DDE552E55267
:100820001E0EE66E100EE66EDBDCE552E552E66A61
:10083000030EE66EF7DCE552E552090EE66E100E89
:10084000E66ECEDCE552E552E66AE66AEBDCE5529E
:10085000E5520001010E756F746B000166513AE1BB
:10086000E2DA0001675114E0676B817674C0E6FF3D
:1008700075C0E6FFD7DCE552E552200EE66E55DC8A
:10088000E5520001750503E1030E756F01D0750790
:10089000695115E0696B817A74C0E6FF75C0E6FFA7
:1008A000C1DCE552E552200EE66E3FDCE552030E58
:1008B0000001755D03E1010E756F01D0752B74C0E9
:1008C000E6FF75C0E6FFAEDCE552E552B3D8EED8E0
:1008D000A3D9C3D742DEBDD90001666B1200FB0E5F
:1008E000E66E0F0EE66E7CDCE552E552E66A010E1E
:1008F000E66E98DCE552E552EC0EE66E0F0EE66E03
:100900006FDCE552E552E66AE66A8CDCE552E552B8
:100910000001665102E187DAFBD71FDE9AD9000198
:10092000666B1200400EE66E0AEC00F0E552040E13
:10093000E66E95EC00F0E5521B0EE66E95EC00F0CD
:10094000E552110EE66E95EC00F0E552110EE66EE2
:1009500095EC00F0E552110EE66E95EC00F0E552D4
:10096000110EE66E95EC00F0E5521F0EE66E95EC6A
:1009700000F0E5521F0EE66E95EC00F0E552120015
:10098000400EE66E0AEC00F0E552040EE66E95ECC1
:1009900000F0E5520E0EE66E95EC00F0E552E66AC8
:1009A00095EC00F0E552E66A95EC00F0E552010E98
:1009B000E66E95EC00F0E552130EE66E95EC00F055
:1009C000E5521E0EE66E95EC00F0E552E66A95ECF7
:1009D00000F0E5521200400EE66E0AEC00F0E5521F
:1009E000040EE66E95EC00F0E5520E0EE66E95EC08
:1009F00000F0E552E66A95EC00F0E552E66A95EC07
:100A000000F0E552100EE66E95EC00F0E552190E7E
:100A1000E66E95EC00F0E5520F0EE66E95EC00F0F8
:100A2000E552E66A95EC00F0E5521200A9DFD3DF4B
:100A300092EF04F0F2A40DD08072F294C20ED76E41
:100A4000F70ED66E0001765102E0000E01D0010EC5
:100A5000766F0001765106E03E0EE66E95EC00F0F2
:100A6000E55205D0200EE66E95EC00F0E55212003E
:100A70000001755104E1745102E1776B16D0755194
:100A800006E1080E745D03E1010E776F0ED0750567
:100A900005E1745103E1020E776F07D0750505E19A
:100AA000080E745D02E1030E776F120000017505F8
:100AB00002E1776B0BD0020E755D03E1010E776FDB
:100AC00005D0030E755D02E1020E776F1200ABD9FF
:100AD000000166516EE1666B100EE66EE66A12EC7E
:100AE00001F0E552E55283A009D0E80EE66E0F0E44
:100AF000E66EF0EC00F0E552E55208D0370EE66EF7
:100B0000110EE66EF0EC00F0E552E552100EE66EC6
:100B1000010EE66E12EC01F0E552E55283A209D017
:100B2000E80EE66E0F0EE66EF0EC00F0E552E552D0
:100B300008D0370EE66E110EE66EF0EC00F0E552CE
:100B4000E552100EE66E020EE66E12EC01F0E55272
:100B5000E55283A409D0E80EE66E0F0EE66EF0ECC7
:100B600000F0E552E55208D0370EE66E110EE66E43
:100B7000F0EC00F0E552E552100EE66E030EE66E64
:100B800012EC01F0E552E55283A609D0E80EE66EBC
:100B90000F0EE66EF0EC00F0E552E55208D0370E8D
:100BA000E66E110EE66EF0EC00F0E552E5523BD930
:100BB0008FD7666BF2EF03F036D90001665102E180
:100BC00032D9FBD7666BF2EF03F02DD900016651E5
:100BD00002E129D9FBD7666BF2EF03F00001655102
:100BE0001AE0656B817C010EE66E0AEC00F0E552BE
:100BF00000017751030A0DE0010A09E0030A05E04C
:100C0000010A01E008D03BDD06D0C9DD04D0EADDF1
:100C100002D065DE00D012000001655119E0656B5D
:100C2000817C010EE66E0AEC00F0E552000177517E
:100C3000020A0BE0030A06E0010A01E009D001DD27
:100C4000BBDF06D0A8DC43DF03D0DDDCBEDF00D095
:100C50001200E9D80001665115E0666B8174745189
:100C6000000810E274C0E6FF75C0E6FF12EC01F068
:100C7000E552E552200EE66E95EC00F0E552080EC6
:100C80000001745F675114E0676B8176755100084D
:100C90000FE274C0E6FF75C0E6FF12EC01F0E5520A
:100CA000E552200EE66E95EC00F0E5520001750766
:100CB000685115E0686B8178080E745D10E274C0AD
:100CC000E6FF75C0E6FF12EC01F0E552E552200E9A
:100CD000E66E95EC00F0E552080E000174276951AC
:100CE00014E0696B817A010E755D0FE274C0E6FF56
:100CF00075C0E6FF12EC01F0E552E552200EE66EFB
:100D000095EC00F0E5520001752B74C0E6FF75C04C
:100D1000E6FF12EC01F0E552E5528CDEA9DEEEEFC3
:100D200005F0D9CFE6FFE1CFD9FFFE0EDB500F0B68
:100D3000F36EF346F346C30EC214F310C26E010EF7
:100D4000E66EACEC09F0E552C282C2B2FED7C3CF68
:100D5000F3FFC4CFF4FF00D0E552E7CFD9FF120074
:100D6000D9CFE6FFE1CFD9FF020EE126DF6A050EFB
:100D7000DF5C4FE2010EDB6AEA6ADF34FE0BEA3623
:100D8000E96E6A0EE926000EEA22EECF10F0EFCFF0
:100D900011F0050E105E000E115A000110508E5D0C
:100DA00011508F592BE3EA6ADF34FE0BEA36E96E05
:100DB0006A0EE926000EEA22EECF12F0EFCF13F012
:100DC000050E1226000E13228E51125C8F511358FD
:100DD00015E3DE52010EDD6EDB5010E0DF50EA6AF3
:100DE000600FE96E000EEA22EF5008E1DF50EA6A78
:100DF000650FE96E000EEA22010EEF6EDF50EA6A1F
:100E0000600FE96E000EEA22010EDBCFEFFFDF2A52
:100E1000AED7020EE15C02E2E16AE552E16EE55214
:100E2000E7CFD9FF1200E66A7CDFE552F3CF8EF000
:100E3000F4CF8FF0B0EF06F0D9CFE6FFE1CFD9FFC6
:100E4000030EE126FD0EDBCFDEFFDBCFDDFF020E62
:100E5000DB6AD9CFE9FFDACFEAFF0A0E0D6E0E6A20
:100E6000EECF08F0EDCF09F027EC09F008C0EEFF57
:100E700009C0EDFF020EDB2AD9CFE9FFDACFEAFF86
:100E8000EE50ED10E6E1020EDB50106E030EE15C59
:100E900003E200D0E16AE552E16E1050E552E7CF7F
:100EA000D9FF1200D9CFE6FFE1CFD9FF040EE1262A
:100EB000FD0EDBCFE6FFFE0EDBCFE6FFBDDFE5522A
:100EC000E552DE6EDD6A020EDB6A030EDB6ADECF00
:100ED00010F0DDCF11F01006000E115A020E10C0F6
:100EE000DBFF030E11C0DBFF020EDBCF10F0030EA1
:100EF000DBCF11F00001800E111440E1FD0EDBCFBD
:100F000012F0FE0EDBCF13F00A0E0D6E0E6A12C049
:100F100008F013C009F068EC09F004C012F005C035
:100F200013F0300E1226000E1322020EDBCF10F04B
:100F3000030EDBCF11F0FB0EDB501024E96EFC0E2C
:100F4000DB501120EA6E12C0EFFFD950FD0FE96EA1
:100F5000FF0EDA20EA6E0A0E0D6E0E6AEECF08F072
:100F6000EDCF09F068EC09F008C0EEFF09C0EDFF15
:100F7000020EDB06030E01E2DB06B6D7FB0EDBCF6B
:100F800010F0FC0EDBCF11F0DE501024E96EDD50C6
:100F90001120EA6EEF6A040EE15C02E2E16AE552BA
:100FA000E16EE552E7CFD9FF1200D9CFE6FFE1CFDE
:100FB000D9FFD950FD0FE96EFF0EDA20EA6E000E60
:100FC000D880EE54000EED540BE20A0EE66EACEC47
:100FD00009F0E552FD0EDB06FE0E01E2DB06E9D765
:080FE000E552E7CFD9FF120032
:080FE8004F4E20004A6F7267B2
:100FF00065204D2E20462E204A2E00446576656CD5
:101000006F7065642062793A0020205075726966BD
:10101000696361646F72202020202020200020203E
:1010200053656E736F72657320202020202020206E
:1010300020200020204D6F746F72657320202020C7
:1010400020202020202020002D2D2D4341542D42F2
:101050004F5820563A20312E302D2D2D002053652B
:101060006E736F72657300204D6F746F72657300DD
:101070002D2D2D2D2D2D4341542D424F582D2D2DED
:101080002D2D2D004D4F544F522047415645544170
:1010900020004D4F544F522054414D424F5220009A
:1010A000535052415953203030302F3030302020AF
:1010B00020202020002D2D2D2D50555249464943EA
:1010C00041444F522D2D2D2D20004741564554416E
:1010D000204645434841444F20004741564554412E
:1010E0002041424552544F20200054414D424F521E
:1010F000204156414E4341444F0054414D424F52CE
:10110000205245435541444F20002020494E464F30
:1011100020202041424F55542D4D45202020202095
:10112000002020484F4D45202020434F4E46494740
:0E113000202020202020004F4646004F4E0079
:02113E00060E9B
:10114000F66E000EF76E000EF86E00010900F55005
:10115000826F0900F550836F03E1826701D03DD0B3
:101160000900F5507D6F0900F5507E6F0900F550BC
:101170007F6F09000900F550E96E0900F550EA6E2D
:10118000090009000900F550806F0900F550816FD2
:1011900009000900F6CF84F0F7CF85F0F8CF86F08C
:1011A0007DC0F6FF7EC0F7FF7FC0F8FF00018053CF
:1011B00002E1815307E00900F550EE6E8007F8E286
:1011C0008107F9D784C0F6FF85C0F7FF86C0F8FF16
:0C11D00000018207000E835BBFD71200F5
:0411DC00D9CFE6FF82
:1011E000DACFE6FFE1CFD9FFE2CFDAFFFD0EDB5029
:1011F000C96EC6AE02D0FF0E24D00F0EC61408086A
:101200000FE00F0EC6140B080BE0C6889EA6FED793
:10121000C750040B03E1C750010B10E0000E11D0C2
:101220000F0EC614080804E00F0EC6140B0809E1DF
:10123000C7B0FED7D2EC09F0C5AC02D0FE0E01D08B
:0E124000000EE552E5CFDAFFE7CFD9FF12002E
:02124E00006A34
:101250000EAE30EF09F00D6C0E1EE86A0E22001E75
:1012600009AE38EF09F0086C091EE86A0922001E71
:1012700068EC09F009BE48EF09F000AE000C086CFC
:10128000091EE86A0922046C051EE86A0522000CA2
:0A12900000BE3FEF09F00188FF0CDB
:06129A00D9CFE6FFDACF18
:1012A000E6FFE1CFD9FFE2CFDAFF3F0EC716C66AED
:1012B000C56AFD0EDB50C612FC0EDB50C7129382CE
:1012C0009380C68AE552E5CFDAFFE7CFD9FF120057
:1012D000056A046A100EE76ED8900836093604369F
:1012E00005360D50045C0E50055805E30D50045EA4
:0C12F0000E50055A082AE72EF0D7120015
:0412FC00FF0EE350AE
:10130000146E480E01D04C0EE76EE72EFED7E76A4A
:0C131000E72EFED7142EF7D700001200C5
:04131C00000EF36E5E
:1013200000EE00F0080E01D81200EA6002D0EE6A6A
:0C133000FCD7F350E9601200EE6AFCD715
:04133C0013EE00F0BC
:1013400023EE00F0F86A019C9FEC08F0D9EC09F05C
:0813500077EC02F0FBD712005C
:08135800FF0EE350146E1B0EA2
:1013600000D001D0200EE76EE72EFED7142EFAD75C
:0413700000D0120097
:0C1374000F0EC614080804E00F0EC6148B
:0E1380000B0801E1C586C7A0FED7C9501200B8
:02138E00FF0E50
:10139000E350E84E1200000000D000D000D0E82E4C
:0413A000FAD7120066
:0C13A4001F0EC514FDE1C750040BFAE158
:0213B000120029
:0213B200120027
:0C13B40000000000000000000000FF022C
:1013C000AA020002DB026602000001003B370000B7
:0113D000001C
:020000040030CA
:010001000CF2
:010002001EDF
:010003001EDE
:0100050003F7
:010006008178
:00000001FF
